{
  "_format": "hh-sol-artifact-1",
  "contractName": "BitrStaking",
  "sourceName": "contracts/BitrStaking.sol",
  "abi": [
    {
      "inputs": [
        {
          "internalType": "address",
          "name": "_bitr",
          "type": "address"
        }
      ],
      "stateMutability": "nonpayable",
      "type": "constructor"
    },
    {
      "inputs": [
        {
          "internalType": "address",
          "name": "owner",
          "type": "address"
        }
      ],
      "name": "OwnableInvalidOwner",
      "type": "error"
    },
    {
      "inputs": [
        {
          "internalType": "address",
          "name": "account",
          "type": "address"
        }
      ],
      "name": "OwnableUnauthorizedAccount",
      "type": "error"
    },
    {
      "inputs": [],
      "name": "ReentrancyGuardReentrantCall",
      "type": "error"
    },
    {
      "anonymous": false,
      "inputs": [
        {
          "indexed": true,
          "internalType": "address",
          "name": "user",
          "type": "address"
        },
        {
          "indexed": false,
          "internalType": "uint256",
          "name": "bitrAmount",
          "type": "uint256"
        }
      ],
      "name": "Claimed",
      "type": "event"
    },
    {
      "anonymous": false,
      "inputs": [
        {
          "indexed": true,
          "internalType": "address",
          "name": "previousOwner",
          "type": "address"
        },
        {
          "indexed": true,
          "internalType": "address",
          "name": "newOwner",
          "type": "address"
        }
      ],
      "name": "OwnershipTransferred",
      "type": "event"
    },
    {
      "anonymous": false,
      "inputs": [
        {
          "indexed": true,
          "internalType": "address",
          "name": "pool",
          "type": "address"
        },
        {
          "indexed": false,
          "internalType": "bool",
          "name": "authorized",
          "type": "bool"
        }
      ],
      "name": "PoolAuthorized",
      "type": "event"
    },
    {
      "anonymous": false,
      "inputs": [
        {
          "indexed": false,
          "internalType": "uint256",
          "name": "bitrAmount",
          "type": "uint256"
        },
        {
          "indexed": false,
          "internalType": "uint256",
          "name": "monAmount",
          "type": "uint256"
        }
      ],
      "name": "RevenueAdded",
      "type": "event"
    },
    {
      "anonymous": false,
      "inputs": [
        {
          "indexed": true,
          "internalType": "address",
          "name": "user",
          "type": "address"
        },
        {
          "indexed": false,
          "internalType": "uint256",
          "name": "bitrAmount",
          "type": "uint256"
        },
        {
          "indexed": false,
          "internalType": "uint256",
          "name": "monAmount",
          "type": "uint256"
        }
      ],
      "name": "RevenueClaimed",
      "type": "event"
    },
    {
      "anonymous": false,
      "inputs": [],
      "name": "RevenueDistributed",
      "type": "event"
    },
    {
      "anonymous": false,
      "inputs": [
        {
          "indexed": true,
          "internalType": "address",
          "name": "user",
          "type": "address"
        },
        {
          "indexed": false,
          "internalType": "uint256",
          "name": "amount",
          "type": "uint256"
        },
        {
          "indexed": false,
          "internalType": "uint8",
          "name": "tier",
          "type": "uint8"
        },
        {
          "indexed": false,
          "internalType": "uint8",
          "name": "duration",
          "type": "uint8"
        }
      ],
      "name": "Staked",
      "type": "event"
    },
    {
      "anonymous": false,
      "inputs": [
        {
          "indexed": true,
          "internalType": "address",
          "name": "user",
          "type": "address"
        },
        {
          "indexed": false,
          "internalType": "uint256",
          "name": "amount",
          "type": "uint256"
        }
      ],
      "name": "Unstaked",
      "type": "event"
    },
    {
      "inputs": [
        {
          "internalType": "uint8",
          "name": "",
          "type": "uint8"
        }
      ],
      "name": "accRewardPerShareBITR",
      "outputs": [
        {
          "internalType": "uint256",
          "name": "",
          "type": "uint256"
        }
      ],
      "stateMutability": "view",
      "type": "function"
    },
    {
      "inputs": [
        {
          "internalType": "uint8",
          "name": "",
          "type": "uint8"
        }
      ],
      "name": "accRewardPerShareMON",
      "outputs": [
        {
          "internalType": "uint256",
          "name": "",
          "type": "uint256"
        }
      ],
      "stateMutability": "view",
      "type": "function"
    },
    {
      "inputs": [
        {
          "internalType": "uint256",
          "name": "_bitrAmount",
          "type": "uint256"
        }
      ],
      "name": "addRevenue",
      "outputs": [],
      "stateMutability": "payable",
      "type": "function"
    },
    {
      "inputs": [
        {
          "internalType": "uint256",
          "name": "_bitrAmount",
          "type": "uint256"
        }
      ],
      "name": "addRevenueFromPool",
      "outputs": [],
      "stateMutability": "payable",
      "type": "function"
    },
    {
      "inputs": [
        {
          "internalType": "address",
          "name": "_pool",
          "type": "address"
        },
        {
          "internalType": "bool",
          "name": "_authorized",
          "type": "bool"
        }
      ],
      "name": "authorizePool",
      "outputs": [],
      "stateMutability": "nonpayable",
      "type": "function"
    },
    {
      "inputs": [
        {
          "internalType": "address",
          "name": "",
          "type": "address"
        }
      ],
      "name": "authorizedPools",
      "outputs": [
        {
          "internalType": "bool",
          "name": "",
          "type": "bool"
        }
      ],
      "stateMutability": "view",
      "type": "function"
    },
    {
      "inputs": [],
      "name": "bitrToken",
      "outputs": [
        {
          "internalType": "contract IERC20",
          "name": "",
          "type": "address"
        }
      ],
      "stateMutability": "view",
      "type": "function"
    },
    {
      "inputs": [
        {
          "internalType": "address",
          "name": "_user",
          "type": "address"
        },
        {
          "internalType": "uint256",
          "name": "_index",
          "type": "uint256"
        }
      ],
      "name": "calculateRewards",
      "outputs": [
        {
          "internalType": "uint256",
          "name": "bitrReward",
          "type": "uint256"
        }
      ],
      "stateMutability": "view",
      "type": "function"
    },
    {
      "inputs": [
        {
          "internalType": "uint256",
          "name": "_index",
          "type": "uint256"
        }
      ],
      "name": "claim",
      "outputs": [],
      "stateMutability": "nonpayable",
      "type": "function"
    },
    {
      "inputs": [],
      "name": "claimRevenue",
      "outputs": [],
      "stateMutability": "nonpayable",
      "type": "function"
    },
    {
      "inputs": [],
      "name": "distributeRevenue",
      "outputs": [],
      "stateMutability": "nonpayable",
      "type": "function"
    },
    {
      "inputs": [],
      "name": "distributionInterval",
      "outputs": [
        {
          "internalType": "uint256",
          "name": "",
          "type": "uint256"
        }
      ],
      "stateMutability": "view",
      "type": "function"
    },
    {
      "inputs": [
        {
          "internalType": "uint256",
          "name": "",
          "type": "uint256"
        }
      ],
      "name": "durationBonuses",
      "outputs": [
        {
          "internalType": "uint256",
          "name": "",
          "type": "uint256"
        }
      ],
      "stateMutability": "view",
      "type": "function"
    },
    {
      "inputs": [
        {
          "internalType": "uint256",
          "name": "",
          "type": "uint256"
        }
      ],
      "name": "durations",
      "outputs": [
        {
          "internalType": "uint256",
          "name": "",
          "type": "uint256"
        }
      ],
      "stateMutability": "view",
      "type": "function"
    },
    {
      "inputs": [
        {
          "internalType": "uint256",
          "name": "_amount",
          "type": "uint256"
        }
      ],
      "name": "fundAPYRewards",
      "outputs": [],
      "stateMutability": "nonpayable",
      "type": "function"
    },
    {
      "inputs": [],
      "name": "getContractStats",
      "outputs": [
        {
          "internalType": "uint256",
          "name": "_totalStaked",
          "type": "uint256"
        },
        {
          "internalType": "uint256",
          "name": "_totalRewardsPaid",
          "type": "uint256"
        },
        {
          "internalType": "uint256",
          "name": "_totalRevenuePaid",
          "type": "uint256"
        },
        {
          "internalType": "uint256",
          "name": "_contractBITRBalance",
          "type": "uint256"
        },
        {
          "internalType": "uint256",
          "name": "_contractMONBalance",
          "type": "uint256"
        }
      ],
      "stateMutability": "view",
      "type": "function"
    },
    {
      "inputs": [],
      "name": "getDurationOptions",
      "outputs": [
        {
          "internalType": "uint256[]",
          "name": "",
          "type": "uint256[]"
        }
      ],
      "stateMutability": "view",
      "type": "function"
    },
    {
      "inputs": [
        {
          "internalType": "address",
          "name": "_user",
          "type": "address"
        },
        {
          "internalType": "uint256",
          "name": "_index",
          "type": "uint256"
        }
      ],
      "name": "getPendingRewards",
      "outputs": [
        {
          "internalType": "uint256",
          "name": "apyReward",
          "type": "uint256"
        },
        {
          "internalType": "uint256",
          "name": "pendingBITR",
          "type": "uint256"
        },
        {
          "internalType": "uint256",
          "name": "pendingMON",
          "type": "uint256"
        }
      ],
      "stateMutability": "view",
      "type": "function"
    },
    {
      "inputs": [
        {
          "internalType": "address",
          "name": "_user",
          "type": "address"
        },
        {
          "internalType": "uint256",
          "name": "_index",
          "type": "uint256"
        }
      ],
      "name": "getRevenueShareRate",
      "outputs": [
        {
          "internalType": "uint256",
          "name": "",
          "type": "uint256"
        }
      ],
      "stateMutability": "view",
      "type": "function"
    },
    {
      "inputs": [],
      "name": "getTierStats",
      "outputs": [
        {
          "internalType": "uint256[]",
          "name": "tierStaked",
          "type": "uint256[]"
        },
        {
          "internalType": "uint256[]",
          "name": "tierAPY",
          "type": "uint256[]"
        },
        {
          "internalType": "uint256[]",
          "name": "tierMinStake",
          "type": "uint256[]"
        },
        {
          "internalType": "uint256[]",
          "name": "tierRevenueShare",
          "type": "uint256[]"
        }
      ],
      "stateMutability": "view",
      "type": "function"
    },
    {
      "inputs": [],
      "name": "getTiers",
      "outputs": [
        {
          "components": [
            {
              "internalType": "uint256",
              "name": "baseAPY",
              "type": "uint256"
            },
            {
              "internalType": "uint256",
              "name": "minStake",
              "type": "uint256"
            },
            {
              "internalType": "uint256",
              "name": "revenueShareRate",
              "type": "uint256"
            }
          ],
          "internalType": "struct BitrStaking.Tier[]",
          "name": "",
          "type": "tuple[]"
        }
      ],
      "stateMutability": "view",
      "type": "function"
    },
    {
      "inputs": [
        {
          "internalType": "address",
          "name": "_user",
          "type": "address"
        },
        {
          "internalType": "uint256",
          "name": "_index",
          "type": "uint256"
        }
      ],
      "name": "getTimeUntilUnlock",
      "outputs": [
        {
          "internalType": "uint256",
          "name": "",
          "type": "uint256"
        }
      ],
      "stateMutability": "view",
      "type": "function"
    },
    {
      "inputs": [
        {
          "internalType": "address",
          "name": "_user",
          "type": "address"
        }
      ],
      "name": "getUserStakeCount",
      "outputs": [
        {
          "internalType": "uint256",
          "name": "",
          "type": "uint256"
        }
      ],
      "stateMutability": "view",
      "type": "function"
    },
    {
      "inputs": [
        {
          "internalType": "address",
          "name": "_user",
          "type": "address"
        }
      ],
      "name": "getUserStakes",
      "outputs": [
        {
          "components": [
            {
              "internalType": "uint256",
              "name": "amount",
              "type": "uint256"
            },
            {
              "internalType": "uint256",
              "name": "startTime",
              "type": "uint256"
            },
            {
              "internalType": "uint8",
              "name": "tierId",
              "type": "uint8"
            },
            {
              "internalType": "uint8",
              "name": "durationOption",
              "type": "uint8"
            },
            {
              "internalType": "uint256",
              "name": "claimedRewardBITR",
              "type": "uint256"
            },
            {
              "internalType": "uint256",
              "name": "rewardDebtBITR",
              "type": "uint256"
            },
            {
              "internalType": "uint256",
              "name": "rewardDebtMON",
              "type": "uint256"
            }
          ],
          "internalType": "struct BitrStaking.Stake[]",
          "name": "",
          "type": "tuple[]"
        }
      ],
      "stateMutability": "view",
      "type": "function"
    },
    {
      "inputs": [
        {
          "internalType": "address",
          "name": "_user",
          "type": "address"
        }
      ],
      "name": "getUserTotalStaked",
      "outputs": [
        {
          "internalType": "uint256",
          "name": "total",
          "type": "uint256"
        }
      ],
      "stateMutability": "view",
      "type": "function"
    },
    {
      "inputs": [
        {
          "internalType": "address",
          "name": "_user",
          "type": "address"
        },
        {
          "internalType": "uint256",
          "name": "_index",
          "type": "uint256"
        }
      ],
      "name": "isStakeUnlocked",
      "outputs": [
        {
          "internalType": "bool",
          "name": "",
          "type": "bool"
        }
      ],
      "stateMutability": "view",
      "type": "function"
    },
    {
      "inputs": [],
      "name": "lastRevenueDistribution",
      "outputs": [
        {
          "internalType": "uint256",
          "name": "",
          "type": "uint256"
        }
      ],
      "stateMutability": "view",
      "type": "function"
    },
    {
      "inputs": [],
      "name": "owner",
      "outputs": [
        {
          "internalType": "address",
          "name": "",
          "type": "address"
        }
      ],
      "stateMutability": "view",
      "type": "function"
    },
    {
      "inputs": [
        {
          "internalType": "address",
          "name": "",
          "type": "address"
        }
      ],
      "name": "pendingRevenueBITR",
      "outputs": [
        {
          "internalType": "uint256",
          "name": "",
          "type": "uint256"
        }
      ],
      "stateMutability": "view",
      "type": "function"
    },
    {
      "inputs": [
        {
          "internalType": "address",
          "name": "",
          "type": "address"
        }
      ],
      "name": "pendingRevenueMON",
      "outputs": [
        {
          "internalType": "uint256",
          "name": "",
          "type": "uint256"
        }
      ],
      "stateMutability": "view",
      "type": "function"
    },
    {
      "inputs": [],
      "name": "renounceOwnership",
      "outputs": [],
      "stateMutability": "nonpayable",
      "type": "function"
    },
    {
      "inputs": [],
      "name": "revenuePoolBITR",
      "outputs": [
        {
          "internalType": "uint256",
          "name": "",
          "type": "uint256"
        }
      ],
      "stateMutability": "view",
      "type": "function"
    },
    {
      "inputs": [],
      "name": "revenuePoolMON",
      "outputs": [
        {
          "internalType": "uint256",
          "name": "",
          "type": "uint256"
        }
      ],
      "stateMutability": "view",
      "type": "function"
    },
    {
      "inputs": [
        {
          "internalType": "uint256",
          "name": "_amount",
          "type": "uint256"
        },
        {
          "internalType": "uint8",
          "name": "_tierId",
          "type": "uint8"
        },
        {
          "internalType": "uint8",
          "name": "_durationOption",
          "type": "uint8"
        }
      ],
      "name": "stake",
      "outputs": [],
      "stateMutability": "nonpayable",
      "type": "function"
    },
    {
      "inputs": [
        {
          "internalType": "uint256",
          "name": "",
          "type": "uint256"
        }
      ],
      "name": "tiers",
      "outputs": [
        {
          "internalType": "uint256",
          "name": "baseAPY",
          "type": "uint256"
        },
        {
          "internalType": "uint256",
          "name": "minStake",
          "type": "uint256"
        },
        {
          "internalType": "uint256",
          "name": "revenueShareRate",
          "type": "uint256"
        }
      ],
      "stateMutability": "view",
      "type": "function"
    },
    {
      "inputs": [],
      "name": "totalRevenuePaid",
      "outputs": [
        {
          "internalType": "uint256",
          "name": "",
          "type": "uint256"
        }
      ],
      "stateMutability": "view",
      "type": "function"
    },
    {
      "inputs": [],
      "name": "totalRewardsPaid",
      "outputs": [
        {
          "internalType": "uint256",
          "name": "",
          "type": "uint256"
        }
      ],
      "stateMutability": "view",
      "type": "function"
    },
    {
      "inputs": [],
      "name": "totalStaked",
      "outputs": [
        {
          "internalType": "uint256",
          "name": "",
          "type": "uint256"
        }
      ],
      "stateMutability": "view",
      "type": "function"
    },
    {
      "inputs": [
        {
          "internalType": "uint8",
          "name": "",
          "type": "uint8"
        }
      ],
      "name": "totalStakedInTier",
      "outputs": [
        {
          "internalType": "uint256",
          "name": "",
          "type": "uint256"
        }
      ],
      "stateMutability": "view",
      "type": "function"
    },
    {
      "inputs": [
        {
          "internalType": "address",
          "name": "newOwner",
          "type": "address"
        }
      ],
      "name": "transferOwnership",
      "outputs": [],
      "stateMutability": "nonpayable",
      "type": "function"
    },
    {
      "inputs": [
        {
          "internalType": "uint256",
          "name": "_index",
          "type": "uint256"
        }
      ],
      "name": "unstake",
      "outputs": [],
      "stateMutability": "nonpayable",
      "type": "function"
    },
    {
      "inputs": [
        {
          "internalType": "address",
          "name": "",
          "type": "address"
        },
        {
          "internalType": "uint256",
          "name": "",
          "type": "uint256"
        }
      ],
      "name": "userStakes",
      "outputs": [
        {
          "internalType": "uint256",
          "name": "amount",
          "type": "uint256"
        },
        {
          "internalType": "uint256",
          "name": "startTime",
          "type": "uint256"
        },
        {
          "internalType": "uint8",
          "name": "tierId",
          "type": "uint8"
        },
        {
          "internalType": "uint8",
          "name": "durationOption",
          "type": "uint8"
        },
        {
          "internalType": "uint256",
          "name": "claimedRewardBITR",
          "type": "uint256"
        },
        {
          "internalType": "uint256",
          "name": "rewardDebtBITR",
          "type": "uint256"
        },
        {
          "internalType": "uint256",
          "name": "rewardDebtMON",
          "type": "uint256"
        }
      ],
      "stateMutability": "view",
      "type": "function"
    }
  ],
  "bytecode": "0x608034620002cb57601f620027b738819003918201601f1916830192916001600160401b03841183851017620002d05780839260409586528339602092839181010312620002cb57516001600160a01b0380821691829003620002cb573315620002b35760008054336001600160a01b031980831682178455939091167f8be0079c531659141344cd1fd0a4f28419497f9722a3daafe3b4186f6b6457e08380a3600190818055620000b0620002e6565b9080825260c88683015261019087830152600554916003928360055580841062000288575b50600582528682209084835b858110620002715750505050620000f7620002e6565b6203f4808152620697808782015262093a80888201526006548360065580841062000246575b509060068152868120905b8381106200022f57505050505062278d006008558115620001eb5790620001dd92916002541617600255426007556200018462000164620002e6565b6102588152683635c9adc5dea00000838201526103e88582015262000306565b620001b262000192620002e6565b6104b0815268a2a15d09519be0000083820152610bb88582015262000306565b69021e19e0c9bab2400000620001c7620002e6565b9161070883528201526117708382015262000306565b5161244b90816200036c8239f35b835162461bcd60e51b815260048101849052601460248201527f496e76616c6964204249545220616464726573730000000000000000000000006044820152606490fd5b825162ffffff168282015591870191840162000128565b60068352848489852092830192015b828110620002655750506200011d565b84815501859062000255565b8961ffff84511693019281850155018590620000e1565b60058352848489852092830192015b828110620002a7575050620000d5565b84815501859062000297565b8351631e4fbdf760e01b815260006004820152602490fd5b600080fd5b634e487b7160e01b600052604160045260246000fd5b60405190606082016001600160401b03811183821017620002d057604052565b60045468010000000000000000811015620002d0576001810180600455811015620003555760406002916004600052600360206000209102019280518455602081015160018501550151910155565b634e487b7160e01b600052603260045260246000fdfe608060408181526004918236101561001657600080fd5b60009260e08435811c92836301b708c21461192c57508263039af9eb146118e657826319d1e987146117e45782631b545a17146117ab5782632061d2a014611779578263225dab081461170257826327f68cbd146116e25782632d07953a146116c95782632e17de78146113c1578263379607f51461137d578263390989d9146112f957826345894bd4146112c05782634e1b70c71461128e578263564f4f7614610fb357826363ec512d14610f915782636e2f169614610ed357826370cdc93014610eb357826371201a0e14610e93578263715018a614610e4b57826374958e3514610e2b578263817b1cd214610e0b57826382387c2314610dc557826382dc6bda14610a83578263842e29811461097157826384837141146109455782638da5cb5b1461091c5782638e241253146108b257826397b20870146107cc578263b5d5b5fa1461073957508163bc20a7af146106fd578163beb8314c146106cd578163c0c485d41461069c578163c45bbab91461067d578163c9216344146105b9578163d9bcb6101461059a578163de170570146104e4578163dfe6b5d61461042b578163e4e7c6b414610357578163e816b39314610319578163f2fde38b146102a057508063f62284a31461022f5763fb521157146101f557600080fd5b3461022b57602036600319011261022b5760209181906001600160a01b0361021b6119d0565b168152600f845220549051908152f35b5080fd5b503461022b578160031936011261022b578051908180936006549081855260208095019160068252858220915b868282106102895785906102858861027684890385611aaa565b5192828493845283019061199c565b0390f35b83548552889550909301926001928301920161025c565b905034610315576020366003190112610315576102bb6119d0565b906102c4611a4d565b6001600160a01b039182169283156102ff57505082546001600160a01b0319811683178455166000805160206123d68339815191528380a380f35b51631e4fbdf760e01b8152908101849052602490fd5b8280fd5b50503461022b57602036600319011261022b5760209160ff9082906001600160a01b036103446119d0565b1681526010855220541690519015158152f35b50503461022b578060031936011261022b576102856103746119d0565b916104206103c06103ba6024356103aa8160018060a01b03891698898b5260036020526103a5888c20548310611ff5565b612037565b9688526003602052848820611a31565b506120f5565b60c061040261041661040e868086019a60ff8c51168152600c60205260ff828220549c51168152600d602052205499670de0b6b3a76400009384918751611c04565b0460a086015190611e7c565b988451611c04565b0491015190611e7c565b905193849384611986565b91905034610315578260031936011261031557601154916012549160135490602060018060a01b03600254169360248351809681936370a0823160e01b835230908301525afa9283156104da57869361049f575b5060a0955047938151958652602086015284015260608301526080820152f35b9092506020813d82116104d2575b816104ba60209383611aaa565b810103126104ce5760a0955051913861047f565b8580fd5b3d91506104ad565b81513d88823e3d90fd5b8391503461022b578160031936011261022b5780549161050383612305565b61050f85519182611aaa565b8381526020938482018094845285842084915b8383106105755750505050845193808501918186525180925285850193925b82811061054e5785850386f35b83518051865280830151868401528701518786015260609094019392810192600101610541565b600388600192610588859b98999b611fa5565b81520192019201919096949396610522565b50503461022b578160031936011261022b576020906013549051908152f35b919050346103155780600319360112610315576105d46119d0565b9060243591821515809303610679576105eb611a4d565b6001600160a01b031692831561064057507fe36c1c5646056c35ea7cf47929401e11acbbe689ed31e681ae372723ce3621dc916020918486526010835280862060ff1981541660ff841617905551908152a280f35b6020606492519162461bcd60e51b83528201526014602482015273496e76616c696420706f6f6c206164647265737360601b6044820152fd5b8480fd5b50503461022b578160031936011261022b57602090600a549051908152f35b50503461022b57602036600319011261022b578060209260ff6106bd6119eb565b168152600c845220549051908152f35b50503461022b578060031936011261022b576020906106f66106ed6119d0565b60243590612037565b9051908152f35b90503461031557602036600319011261031557359160065483101561073657506107286020926119fb565b91905490519160031b1c8152f35b80fd5b908385346107365781600319360112610736576107546119d0565b6001600160a01b0316815260036020528181208054602435929083101561073657509061078091611a31565b5080549260ff600183015493600284015490600560038601549486015495015495815197885260208801528282169087015260081c166060850152608084015260a083015260c0820152f35b50905034610315576020366003190112610315578035906107eb611a4d565b811561086f5760025483516323b872dd60e01b8152939260209285926001600160a01b0316918391889183916108279190309033908501611ae5565b03925af1908115610866575061083b575080f35b61085b9060203d811161085f575b6108538183611aaa565b810190611acd565b5080f35b503d610849565b513d84823e3d90fd5b606490602084519162461bcd60e51b8352820152601d60248201527f416d6f756e74206d7573742062652067726561746572207468616e20300000006044820152fd5b848285602036600319011261031557338352601060205260ff8184205416156108e557506108e290349035611b2a565b80f35b906020606492519162461bcd60e51b83528201526011602482015270155b985d5d1a1bdc9a5e9959081c1bdbdb607a1b6044820152fd5b5050503461022b578160031936011261022b57905490516001600160a01b039091168152602090f35b509050346103155760203660031901126103155735916005548310156107365750610728602092611a16565b9150503461031557602080600319360112610a7f5790916001600160a01b036109986119d0565b16845260038252808420918254916109af83612305565b926109bc82519485611aaa565b8084528284018095885283882088915b838310610a52575050505080519482860193838752518094528186019496915b8483106109f95786860387f35b87518051875280850151878601528082015160ff90811688840152606080830151909116908801526080808201519088015260a0808201519088015260c0908101519087015296830196948101946001909201916109ec565b600686600192610a69859d999a9b9d9c989c6120f5565b81520192019201919098969594989793976109cc565b8380fd5b509050346103155760603660031901126103155780359160249182359260ff841691828503610dc1576044359460ff8616809603610dbd57610ac3611e4a565b8154841015610d8c57600654861015610d57578615610d095790610aea610af59392611951565b506020938491611fa5565b01518710610cce57610b0633611e89565b60025485516323b872dd60e01b815290849082906001600160a01b0316818c81610b348e30338b8501611ae5565b03925af18015610cc457610ca7575b503388526003835284882090848952600c8452670de0b6b3a76400008981610b6e898320548c611c04565b0491878252600d8752610b84898320548c611c04565b0493885190610b9282611a79565b8b82528782014281528a8301928a845260608101928d84526080820195865260a0820196875260c08201988952805490600160401b821015610c935790610bde91600182018155611a31565b999099610c835750610c1692600598979695949260ff92518b555160018b01558160028b019351168219845416178355511690611fdf565b516003860155519084015551910155818652600b8152828620610c3a868254611b07565b9055610c4885601154611b07565b60115582519485528401528201527f07265264ac9c1ddb54910d73bfe2208ea6385ea459c0163512e38fdd771cce4e60603392a26001805580f35b8f8089634e487b7160e01b825252fd5b5050634e487b7160e01b8f5260418752888ffd5b610cbd90843d861161085f576108538183611aaa565b5038610b43565b86513d8b823e3d90fd5b60186064928487519362461bcd60e51b85528401528201527742656c6f772074696572206d696e696d756d207374616b6560401b6044820152fd5b506023608492602086519362461bcd60e51b85528401528201527f5374616b6520616d6f756e74206d75737420626520677265617465722074686160448201526206e20360ec1b6064820152fd5b506010606492602086519362461bcd60e51b85528401528201526f24b73b30b634b210323ab930ba34b7b760811b6044820152fd5b50600c606492602086519362461bcd60e51b85528401528201526b24b73b30b634b2103a34b2b960a11b6044820152fd5b8780fd5b8680fd5b5050503461022b578060031936011261022b576106f6602092610de66119d0565b610e06846024359360018060a01b03841681526003885220548310611ff5565b612362565b5050503461022b578160031936011261022b576020906011549051908152f35b5050503461022b578160031936011261022b576020906012549051908152f35b8434610736578060031936011261073657610e64611a4d565b80546001600160a01b03198116825581906001600160a01b03166000805160206123d68339815191528280a380f35b5050503461022b578160031936011261022b576020906008549051908152f35b5050503461022b578160031936011261022b576020906007549051908152f35b838534610736576020908160031936011261073657610ef06119d0565b6001600160a01b03168152600382528281208054919290918390610f1381612305565b93610f2087519586611aaa565b81855282528282208290848087015b848410610f72575050505050925b8251841015610f6b57610f5f610f6591610f57868661231c565b515190611b07565b93611e6d565b92610f3d565b8451908152f35b600191600691610f81856120f5565b8152019201920191908590610f2f565b8482602036600319011261022b576108e290610fab611a4d565b349035611b2a565b8385833461022b578160031936011261022b57610fce611e4a565b610fd733611e89565b338252602092600e84528083205491600f85528184205490831580158091611285575b1561124f57338652600e87528584812055600f8752858481205561112c575b81611056575b507f93f4874ba298e34c281f3250aae66c9bad9de65e7f2dd0dc6f8549c1234df15b92939482519485528401523392a26001805580f35b8147106110ee578480808085335af13d156110e9573d6001600160401b0381116110d657845190611090601f8201601f19168a0183611aaa565b815286883d92013e5b61101f57825162461bcd60e51b815290810186905260136024820152721353d3881d1c985b9cd9995c8819985a5b1959606a1b6044820152606490fd5b634e487b7160e01b875260418352602487fd5b611099565b825162461bcd60e51b81529081018690526018602482015277496e73756666696369656e74204d4f4e2062616c616e636560401b6044820152606490fd5b60025483516370a0823160e01b815230838201526001600160a01b03909116908781602481855afa908115611245579086918891611214575b50106111d557868451809263a9059cbb60e01b825281898161118a8b338a8401611e2f565b03925af180156111cb576111ae575b506111a684601354611b07565b601355611019565b6111c490873d891161085f576108538183611aaa565b5086611199565b84513d88823e3d90fd5b835162461bcd60e51b81528083018890526019602482015278496e73756666696369656e7420424954522062616c616e636560381b6044820152606490fd5b809250898092503d831161123e575b61122d8183611aaa565b81010312610dc15785905189611165565b503d611223565b85513d89823e3d90fd5b835162461bcd60e51b8152808301889052601060248201526f4e6f7468696e6720746f20636c61696d60801b6044820152606490fd5b50821515610ffa565b5050503461022b57602036600319011261022b578060209260ff6112b06119eb565b168152600d845220549051908152f35b5050503461022b57602036600319011261022b5760209181906001600160a01b036112e96119d0565b168152600e845220549051908152f35b5050503461022b578060031936011261022b576113736113526103ba602094846113216119d0565b6001600160a01b03168083526003885281832054602435939190611346908510611ff5565b81526003885220611a31565b61136660ff606086840151930151166119fb565b90549060031b1c90611b07565b4210159051908152f35b84828534610315576020366003190112610315576113b46113ba9235916113a2611e4a565b33855260036020528420548210611ff5565b33612195565b6001805580f35b8482853461031557602080600319360112610a7f578235916113e1611e4a565b33855260038083526113f7828720548510611ff5565b61140033611e89565b3386528083526114156103ba85848920611a31565b936114398486015161142d60ff6060890151166119fb565b905490851b1c90611b07565b4210611694576114498133612195565b60ff838651960151168752600b8452828720611466868254611e7c565b905561147485601154611e7c565b60115533875281845282872080549091600019918281019081116116815761149f6114a79185611a31565b509184611a31565b91909161166f5780820361161d575b50508154801561160a5701916114cc8383611a31565b9190916115f857818960059281809555816001840155816002840155820155828982015501555560018060a01b03600254169381516370a0823160e01b815230828201528381602481895afa9081156115ee5787916115bf575b5061155695849261153a8780941015612149565b88855180998195829463a9059cbb60e01b845233908401611e2f565b03925af19384156115b5577f0f5bb82176feb1b5e747e28471aa92156a04d9f3ab9f45f28e2d704232b93f759394611598575b50519283523392a26001805580f35b6115ae90833d851161085f576108538183611aaa565b5085611589565b81513d87823e3d90fd5b90508381813d83116115e7575b6115d68183611aaa565b81010312610dc15751611556611526565b503d6115cc565b83513d89823e3d90fd5b634e487b7160e01b8952888852602489fd5b634e487b7160e01b895260318852602489fd5b6005818192548455600181015460018501556116536002850160ff600284018181541682198454161783555460081c1690611fdf565b86810154878501558a8101548b850155015491015588806114b6565b634e487b7160e01b8a5289895260248afd5b634e487b7160e01b8a526011895260248afd5b825162461bcd60e51b8152808701859052600f60248201526e14dd185ad9481a5cc81b1bd8dad959608a1b6044820152606490fd5b84346107365780600319360112610736576108e2611c37565b5050503461022b578160031936011261022b576020906009549051908152f35b5050503461022b578060031936011261022b578061177061176a60ff836117626103ba602098836117316119d0565b6001600160a01b031680835260038c5281832054602435939190611756908510611ff5565b815260038c5220611a31565b015116611951565b50611fa5565b01519051908152f35b5050503461022b57602036600319011261022b578060209260ff61179b6119eb565b168152600b845220549051908152f35b5050503461022b57602036600319011261022b5760209181906001600160a01b036117d46119d0565b1681526003845220549051908152f35b8385833461022b578160031936011261022b57549061180282612330565b9161180c81612330565b61181582612330565b9161181f81612330565b93805b8281106118765761184d87610285886118688c8a61185b8b835198899860808a5260808a019061199c565b9088820360208a015261199c565b918683039087015261199c565b90838203606085015261199c565b8060ff6118e192168352600b60205288832054611893828a61231c565b5261189d81611951565b50546118a9828761231c565b5260016118b582611951565b5001546118c2828861231c565b5260026118ce82611951565b5001546118db828961231c565b52611e6d565b611822565b838286346107365760203660031901126107365781359154821015610736575061190f90611951565b509061028582549160026001850154940154905193849384611986565b85903461022b578160031936011261022b576002546001600160a01b03168152602090f35b6004548110156119705760046000526003602060002091020190600090565b634e487b7160e01b600052603260045260246000fd5b6040919493926060820195825260208201520152565b90815180825260208080930193019160005b8281106119bc575050505090565b8351855293810193928101926001016119ae565b600435906001600160a01b03821682036119e657565b600080fd5b6004359060ff821682036119e657565b60065481101561197057600660005260206000200190600090565b60055481101561197057600560005260206000200190600090565b8054821015611970576000526006602060002091020190600090565b6000546001600160a01b03163303611a6157565b60405163118cdaa760e01b8152336004820152602490fd5b60e081019081106001600160401b03821117611a9457604052565b634e487b7160e01b600052604160045260246000fd5b601f909101601f19168101906001600160401b03821190821017611a9457604052565b908160209103126119e6575180151581036119e65790565b6001600160a01b03918216815291166020820152604081019190915260600190565b91908201809211611b1457565b634e487b7160e01b600052601160045260246000fd5b9081611b6b575b6000805160206123b68339815191529181604092611b57575b82519182526020820152a1565b611b6381600a54611b07565b600a55611b4a565b6002546040516323b872dd60e01b8152929060209084906001600160a01b031681600081611b9e87303360048501611ae5565b03925af1918215611bf8576000805160206123b683398151915293604093611bda575b50611bce82600954611b07565b60095591509150611b31565b611bf19060203d811161085f576108538183611aaa565b5038611bc1565b6040513d6000823e3d90fd5b81810292918115918404141715611b1457565b8115611c21570490565b634e487b7160e01b600052601260045260246000fd5b611c4660075460085490611b07565b4210611df15742600755600954600a5491811580611de9575b611de4576000918260095582600a55825b600480549060ff831691821015611db8578186526020600b815260409182882054908115611dae576002611ca387611951565b50015490612710611cc081611cb8858c611c04565b04938d611c04565b049180158015611d5d575b505081158015611d06575b505050505050505b60ff809116908114611cf257600101611c70565b634e487b7160e01b84526011600452602484fd5b670de0b6b3a7640000808402938404141715611d4a575091611d2e600d92611d3c9594611c17565b948952528620918254611b07565b905538808080808080611cd6565b634e487b7160e01b8a5260119052602489fd5b670de0b6b3a7640000808302928304141715611d9b5783611d7d91611c17565b868b52600c8552611d92868c20918254611b07565b90553880611ccb565b634e487b7160e01b8b526011825260248bfd5b5050505050611cde565b5050505091507f6dac861c86078d7c3d9728e18fa2b5595af50eeea617ef04111b218a72e62c0b9080a1565b915050565b508215611c5f565b60405162461bcd60e51b8152602060048201526016602482015275446973747269627574696f6e20746f6f206561726c7960501b6044820152606490fd5b6001600160a01b039091168152602081019190915260400190565b600260015414611e5b576002600155565b604051633ee5aeb560e01b8152600490fd5b6000198114611b145760010190565b91908203918211611b1457565b60005b60018060a01b0382169081600052602091600383526040806000208054841015611f9d57611f5894611ec185611f5093611a31565b509260ff600285015416600052600c8252806000205490600d8352806000205492611f48865496670de0b6b3a764000097889384611eff8884611c04565b049585611f1c8a611f16600488019a8b5490611e7c565b95611c04565b049b611f2e600586019d8e5490611e7c565b9380611f7e575b5083611f5d575b50505050549384611c04565b049055611c04565b049055611e6d565b611e8c565b611f7392600f9160005252600020918254611b07565b905538808080611f3c565b81600052600e8452611f9583600020918254611b07565b905538611f35565b505050505050565b604051909190606081016001600160401b03811182821017611a945760405260406002829480548452600181015460208501520154910152565b9061ff0082549160081b169061ff001916179055565b15611ffc57565b60405162461bcd60e51b8152602060048201526013602482015272092dcecc2d8d2c840e6e8c2d6ca40d2dcc8caf606b1b6044820152606490fd5b6001600160a01b03166000818152600360205260408120549092612074926103ba92612064908310611ff5565b8452600360205260408420611a31565b60806301e133806120d46120b261209461176a60ff604088015116611951565b6120a460ff606088015116611a16565b90549060031b1c9051611b07565b6127106120ce6120c6602088015142611e7c565b928751611c04565b04611c04565b04910151908181116000146120f0576120ed9250611e7c565b90565b505090565b9060405161210281611a79565b60c060058294805484526001810154602085015260ff6002820154818116604087015260081c16606085015260038101546080850152600481015460a08501520154910152565b1561215057565b60405162461bcd60e51b815260206004820152601d60248201527f496e73756666696369656e7420636f6e74726163742062616c616e63650000006044820152606490fd5b919060018060a01b039283811691600094838652602092600384526040916121ca6121c285858b20611a31565b509483612037565b93846121ee575b5050506000805160206123f68339815191529394955051908152a2565b6003016121fc858254611b07565b9055600254168251916370a0823160e01b83523060048401528583602481855afa9283156122fb5791859187938b956122bf575b506122408361225c961015612149565b8a865180968195829463a9059cbb60e01b845260048401611e2f565b03925af180156122b5576000805160206123f683398151915295969750612298575b5061228b82601254611b07565b60125585949338806121d1565b6122ae90843d861161085f576108538183611aaa565b503861227e565b82513d89823e3d90fd5b92509290935081813d83116122f4575b6122d98183611aaa565b810103126122f05751918591859190612240612230565b8880fd5b503d6122cf565b84513d8b823e3d90fd5b6001600160401b038111611a945760051b60200190565b80518210156119705760209160051b010190565b9061233a82612305565b6123476040519182611aaa565b8281528092612358601f1991612305565b0190602036910137565b6103ba61239c926123879260018060a01b031660005260036020526040600020611a31565b61136660ff60606020840151930151166119fb565b804210156123af576120ed904290611e7c565b5060009056fe5d22f5d15d95ed39d12130528f910a501ad34deb0428d9227c9d316d9bcb99e98be0079c531659141344cd1fd0a4f28419497f9722a3daafe3b4186f6b6457e0d8138f8a3f377c5259ca548e70e4c2de94f129f5a11036a15b69513cba2b426aa2646970667358221220edd3599303093260811da8de00574ee914457f59af3c70c126d3f555f9c7cc7c64736f6c63430008140033",
  "linkReferences": {},
  "deployedLinkReferences": {}
}