{
  "_format": "hh-sol-artifact-1",
  "contractName": "BitrFaucet",
  "sourceName": "contracts/BitrFaucet.sol",
  "abi": [
    {
      "inputs": [
        {
          "internalType": "address",
          "name": "_bitrToken",
          "type": "address"
        },
        {
          "internalType": "address",
          "name": "_oddysseyContract",
          "type": "address"
        }
      ],
      "stateMutability": "nonpayable",
      "type": "constructor"
    },
    {
      "inputs": [
        {
          "internalType": "address",
          "name": "owner",
          "type": "address"
        }
      ],
      "name": "OwnableInvalidOwner",
      "type": "error"
    },
    {
      "inputs": [
        {
          "internalType": "address",
          "name": "account",
          "type": "address"
        }
      ],
      "name": "OwnableUnauthorizedAccount",
      "type": "error"
    },
    {
      "inputs": [],
      "name": "ReentrancyGuardReentrantCall",
      "type": "error"
    },
    {
      "anonymous": false,
      "inputs": [
        {
          "indexed": true,
          "internalType": "address",
          "name": "owner",
          "type": "address"
        },
        {
          "indexed": false,
          "internalType": "uint256",
          "name": "amount",
          "type": "uint256"
        },
        {
          "indexed": false,
          "internalType": "uint256",
          "name": "timestamp",
          "type": "uint256"
        }
      ],
      "name": "EmergencyWithdraw",
      "type": "event"
    },
    {
      "anonymous": false,
      "inputs": [
        {
          "indexed": true,
          "internalType": "address",
          "name": "user",
          "type": "address"
        },
        {
          "indexed": false,
          "internalType": "uint256",
          "name": "amount",
          "type": "uint256"
        },
        {
          "indexed": false,
          "internalType": "uint256",
          "name": "timestamp",
          "type": "uint256"
        }
      ],
      "name": "FaucetClaimed",
      "type": "event"
    },
    {
      "anonymous": false,
      "inputs": [
        {
          "indexed": false,
          "internalType": "uint256",
          "name": "timestamp",
          "type": "uint256"
        }
      ],
      "name": "FaucetDeactivated",
      "type": "event"
    },
    {
      "anonymous": false,
      "inputs": [
        {
          "indexed": false,
          "internalType": "uint256",
          "name": "timestamp",
          "type": "uint256"
        }
      ],
      "name": "FaucetReactivated",
      "type": "event"
    },
    {
      "anonymous": false,
      "inputs": [
        {
          "indexed": false,
          "internalType": "uint256",
          "name": "amount",
          "type": "uint256"
        },
        {
          "indexed": false,
          "internalType": "uint256",
          "name": "timestamp",
          "type": "uint256"
        }
      ],
      "name": "FaucetRefilled",
      "type": "event"
    },
    {
      "anonymous": false,
      "inputs": [
        {
          "indexed": true,
          "internalType": "address",
          "name": "previousOwner",
          "type": "address"
        },
        {
          "indexed": true,
          "internalType": "address",
          "name": "newOwner",
          "type": "address"
        }
      ],
      "name": "OwnershipTransferred",
      "type": "event"
    },
    {
      "inputs": [],
      "name": "FAUCET_AMOUNT",
      "outputs": [
        {
          "internalType": "uint256",
          "name": "",
          "type": "uint256"
        }
      ],
      "stateMutability": "view",
      "type": "function"
    },
    {
      "inputs": [],
      "name": "MIN_ODDYSSEY_SLIPS",
      "outputs": [
        {
          "internalType": "uint256",
          "name": "",
          "type": "uint256"
        }
      ],
      "stateMutability": "view",
      "type": "function"
    },
    {
      "inputs": [],
      "name": "bitrToken",
      "outputs": [
        {
          "internalType": "contract IERC20",
          "name": "",
          "type": "address"
        }
      ],
      "stateMutability": "view",
      "type": "function"
    },
    {
      "inputs": [
        {
          "internalType": "address",
          "name": "user",
          "type": "address"
        }
      ],
      "name": "checkEligibility",
      "outputs": [
        {
          "internalType": "bool",
          "name": "eligible",
          "type": "bool"
        },
        {
          "internalType": "string",
          "name": "reason",
          "type": "string"
        },
        {
          "internalType": "uint256",
          "name": "oddysseySlips",
          "type": "uint256"
        }
      ],
      "stateMutability": "view",
      "type": "function"
    },
    {
      "inputs": [],
      "name": "claimBitr",
      "outputs": [],
      "stateMutability": "nonpayable",
      "type": "function"
    },
    {
      "inputs": [],
      "name": "emergencyWithdraw",
      "outputs": [],
      "stateMutability": "nonpayable",
      "type": "function"
    },
    {
      "inputs": [
        {
          "internalType": "uint256",
          "name": "amount",
          "type": "uint256"
        }
      ],
      "name": "emergencyWithdrawAmount",
      "outputs": [],
      "stateMutability": "nonpayable",
      "type": "function"
    },
    {
      "inputs": [],
      "name": "faucetActive",
      "outputs": [
        {
          "internalType": "bool",
          "name": "",
          "type": "bool"
        }
      ],
      "stateMutability": "view",
      "type": "function"
    },
    {
      "inputs": [],
      "name": "getFaucetStats",
      "outputs": [
        {
          "internalType": "uint256",
          "name": "balance",
          "type": "uint256"
        },
        {
          "internalType": "uint256",
          "name": "totalDistributed",
          "type": "uint256"
        },
        {
          "internalType": "uint256",
          "name": "userCount",
          "type": "uint256"
        },
        {
          "internalType": "bool",
          "name": "active",
          "type": "bool"
        }
      ],
      "stateMutability": "view",
      "type": "function"
    },
    {
      "inputs": [
        {
          "internalType": "address",
          "name": "user",
          "type": "address"
        }
      ],
      "name": "getUserInfo",
      "outputs": [
        {
          "internalType": "bool",
          "name": "claimed",
          "type": "bool"
        },
        {
          "internalType": "uint256",
          "name": "claimTime",
          "type": "uint256"
        }
      ],
      "stateMutability": "view",
      "type": "function"
    },
    {
      "inputs": [
        {
          "internalType": "address",
          "name": "",
          "type": "address"
        }
      ],
      "name": "hasClaimed",
      "outputs": [
        {
          "internalType": "bool",
          "name": "",
          "type": "bool"
        }
      ],
      "stateMutability": "view",
      "type": "function"
    },
    {
      "inputs": [],
      "name": "hasSufficientBalance",
      "outputs": [
        {
          "internalType": "bool",
          "name": "",
          "type": "bool"
        }
      ],
      "stateMutability": "view",
      "type": "function"
    },
    {
      "inputs": [
        {
          "internalType": "address",
          "name": "",
          "type": "address"
        }
      ],
      "name": "lastClaimTime",
      "outputs": [
        {
          "internalType": "uint256",
          "name": "",
          "type": "uint256"
        }
      ],
      "stateMutability": "view",
      "type": "function"
    },
    {
      "inputs": [],
      "name": "maxPossibleClaims",
      "outputs": [
        {
          "internalType": "uint256",
          "name": "",
          "type": "uint256"
        }
      ],
      "stateMutability": "view",
      "type": "function"
    },
    {
      "inputs": [],
      "name": "oddysseyContract",
      "outputs": [
        {
          "internalType": "contract IOddyssey",
          "name": "",
          "type": "address"
        }
      ],
      "stateMutability": "view",
      "type": "function"
    },
    {
      "inputs": [],
      "name": "owner",
      "outputs": [
        {
          "internalType": "address",
          "name": "",
          "type": "address"
        }
      ],
      "stateMutability": "view",
      "type": "function"
    },
    {
      "inputs": [
        {
          "internalType": "uint256",
          "name": "amount",
          "type": "uint256"
        }
      ],
      "name": "refillFaucet",
      "outputs": [],
      "stateMutability": "nonpayable",
      "type": "function"
    },
    {
      "inputs": [],
      "name": "renounceOwnership",
      "outputs": [],
      "stateMutability": "nonpayable",
      "type": "function"
    },
    {
      "inputs": [
        {
          "internalType": "bool",
          "name": "active",
          "type": "bool"
        }
      ],
      "name": "setFaucetActive",
      "outputs": [],
      "stateMutability": "nonpayable",
      "type": "function"
    },
    {
      "inputs": [],
      "name": "totalClaimed",
      "outputs": [
        {
          "internalType": "uint256",
          "name": "",
          "type": "uint256"
        }
      ],
      "stateMutability": "view",
      "type": "function"
    },
    {
      "inputs": [],
      "name": "totalUsers",
      "outputs": [
        {
          "internalType": "uint256",
          "name": "",
          "type": "uint256"
        }
      ],
      "stateMutability": "view",
      "type": "function"
    },
    {
      "inputs": [
        {
          "internalType": "address",
          "name": "newOwner",
          "type": "address"
        }
      ],
      "name": "transferOwnership",
      "outputs": [],
      "stateMutability": "nonpayable",
      "type": "function"
    }
  ],
  "bytecode": "0x60c0346101df5761151f90601f38839003908101601f19168201906001600160401b038211838310176101e457808391604095869485528339810103126101df57610055602061004e836101fa565b92016101fa565b9033156101c75760008054336001600160a01b03198216811783558551946001600160a01b0394909385939192918416907f8be0079c531659141344cd1fd0a4f28419497f9722a3daafe3b4186f6b6457e09080a360018055600160ff196006541617600655169283156101855750169081156101375760805260a05251611310908161020f82396080518181816101ca0152818161038e015281816104e601528181610635015281816107be01528181610b8e01528181610d3201528181610e840152610fb5015260a05181818161077001528181610c8901526110140152f35b825162461bcd60e51b815260206004820152602160248201527f496e76616c6964204f6464797373657920636f6e7472616374206164647265736044820152607360f81b6064820152608490fd5b62461bcd60e51b815260206004820152601a60248201527f496e76616c6964204249545220746f6b656e20616464726573730000000000006044820152606490fd5b8251631e4fbdf760e01b815260006004820152602490fd5b600080fd5b634e487b7160e01b600052604160045260246000fd5b51906001600160a01b03821682036101df5756fe608060408181526004908136101561001657600080fd5b600092833560e01c90816301b708c214610e70575080631e2f5c0514610e545780632487426014610dc1578063485405d714610d045780636386c1c714610cb857806370bc5e5214610c74578063715018a614610c2c57806371ecbb1a14610b6057806373b2e80e14610b215780637669764014610afc5780637723bafb14610a755780637868e2031461070b5780638da5cb5b146106e357806390559584146106bf578063a6e340c6146105e4578063b77cf9c6146105aa578063bff1f9e11461058b578063c13463c9146104bb578063c6c8f6b614610348578063d54ad2a11461032a578063db2e21bc146101945763f2fde38b1461011657600080fd5b34610190576020366003190112610190576001600160a01b0382358181169391929084900361018c57610147610eb3565b831561017657505082546001600160a01b03198116831784551660008051602061129b8339815191528380a380f35b51631e4fbdf760e01b8152908101849052602490fd5b8480fd5b8280fd5b509190346103265781600319360112610326576101af610eb3565b82516370a0823160e01b815230828201526001600160a01b037f00000000000000000000000000000000000000000000000000000000000000008116946020939092919084836024818a5afa92831561031c5786936102e9575b5082156102ae57828697869288856102389a54169188519a8b958694859363a9059cbb60e01b85528401610f50565b03925af19485156102a4576000805160206112bb8339815191529495610265918891610277575b5061123c565b8554169382519182524290820152a280f35b6102979150873d891161029d575b61028f8183610f10565b810190610f33565b3861025f565b503d610285565b83513d88823e3d90fd5b835162461bcd60e51b815290810185905260156024820152744e6f20746f6b656e7320746f20776974686472617760581b6044820152606490fd5b9092508481813d8311610315575b6103018183610f10565b8101031261031157519138610209565b8580fd5b503d6102f7565b84513d88823e3d90fd5b5080fd5b50903461019057826003193601126101905760209250549051908152f35b508290346103265760209081600319360112610190578335610368610eb3565b6103738115156111f0565b81516370a0823160e01b815230868201526001600160a01b037f0000000000000000000000000000000000000000000000000000000000000000811696909185816024818b5afa9081156104b157908491889161047c575b501061044257828697869288856103f99a54169188519a8b958694859363a9059cbb60e01b85528401610f50565b03925af19485156102a4576000805160206112bb8339815191529495610265918891610425575061123c565b61043c9150873d891161029d5761028f8183610f10565b8861025f565b835162461bcd60e51b81529081018590526014602482015273496e73756666696369656e742062616c616e636560601b6044820152606490fd5b809250878092503d83116104aa575b6104958183610f10565b810103126104a657839051896103cb565b8680fd5b503d61048b565b85513d89823e3d90fd5b503461019057826003193601126101905780516370a0823160e01b81523083820152916020836024817f00000000000000000000000000000000000000000000000000000000000000006001600160a01b03165afa928315610581578493610546575b506080935054906005549060ff60065416928151948552602085015283015215156060820152f35b9092506020813d8211610579575b8161056160209383610f10565b81010312610575576080935051913861051e565b8380fd5b3d9150610554565b82513d86823e3d90fd5b8382346103265781600319360112610326576020906005549051908152f35b50903461019057602036600319011261019057356001600160a01b0381169081900361019057828291602094526003845220549051908152f35b5034610190576020366003190112610190578135610600610eb3565b61060b8115156111f0565b81516323b872dd60e01b8152339381019390935230602484015260448301819052602083606481877f00000000000000000000000000000000000000000000000000000000000000006001600160a01b03165af1928315610581577f816ddc8dab13184fc09fe728cd28ba4738cf188266c107b2cb3158d5aa006d49936106989186916106a7575061123c565b8151908152426020820152a180f35b610297915060203d811161029d5761028f8183610f10565b83823461032657816003193601126103265760209060ff6006541690519015158152f35b838234610326578160031936011261032657905490516001600160a01b039091168152602090f35b5090346101905782600319360112610190576001916002835414610a68576002835560ff6006541615610a2e5733845260206002815260ff82862054166109fb578151635e56616b60e01b81523384820152602493906001600160a01b0390838187817f000000000000000000000000000000000000000000000000000000000000000086165afa80156109045788906109cd575b60029150106109925783516370a0823160e01b8152308382015294907f00000000000000000000000000000000000000000000000000000000000000001683868381845afa95861561090457889661095f575b5069043c33c193756480000080961061092057338852600284528488208760ff19825416179055600384524285892055825486810180911161090e578355600554600019811461090e57889188869201600555604487518094819363a9059cbb60e01b835233898401528b888401525af19081156109045788916108e7575b50156108af575050907fa19a7d2b5bf6a987a66e0eac8a6eb2dbd34ae6a43285849af788b224268ec02291815193845242908401523392a2805580f35b60159192606494519362461bcd60e51b855284015282015274151bdad95b881d1c985b9cd9995c8819985a5b1959605a1b6044820152fd5b6108fe9150843d861161029d5761028f8183610f10565b38610872565b85513d8a823e3d90fd5b634e487b7160e01b8952601184528289fd5b50601b9192606494519362461bcd60e51b85528401528201527a496e73756666696369656e74206661756365742062616c616e636560281b6044820152fd5b9095508381813d831161098b575b6109778183610f10565b81010312610987575194386107f3565b8780fd5b503d61096d565b5060238460849385519362461bcd60e51b855284015282015260008051602061127b83398151915260448201526269707360e81b6064820152fd5b508381813d83116109f4575b6109e38183610f10565b8101031261098757600290516107a0565b503d6109d9565b905162461bcd60e51b815291820152600f60248201526e105b1c9958591e4818db185a5b5959608a1b6044820152606490fd5b906020606492519162461bcd60e51b83528201526014602482015273466175636574206973206e6f742061637469766560601b6044820152fd5b51633ee5aeb560e01b8152fd5b5034610190576020918260031936011261057557356001600160a01b038116810361057557610aa390610f6b565b90939192805195869415158552606084860152855193846060870152815b858110610ae557505060808096508486010152830152601f80199101168101030190f35b808801820151898201608001528896508101610ac1565b8382346103265781600319360112610326576020905169043c33c19375648000008152f35b50903461019057602036600319011261019057356001600160a01b0381169081900361019057818360ff92602095526002855220541690519015158152f35b50903461019057826003193601126101905781516370a0823160e01b815230918101919091526020816024817f00000000000000000000000000000000000000000000000000000000000000006001600160a01b03165afa928315610c21578093610bdd575b60208469043c33c193756480000085519110158152f35b9092506020833d8211610c19575b81610bf860209383610f10565b81010312610c16575069043c33c19375648000006020925192610bc6565b80fd5b3d9150610beb565b8251903d90823e3d90fd5b8334610c165780600319360112610c1657610c45610eb3565b80546001600160a01b03198116825581906001600160a01b031660008051602061129b8339815191528280a380f35b838234610326578160031936011261032657517f00000000000000000000000000000000000000000000000000000000000000006001600160a01b03168152602090f35b5091903461032657602036600319011261032657356001600160a01b0381169081900361032657815260026020528160ff81832054169160036020522054825191151582526020820152f35b50903461019057826003193601126101905781516370a0823160e01b815230918101919091526020816024817f00000000000000000000000000000000000000000000000000000000000000006001600160a01b03165afa928315610c21578093610d80575b60208469043c33c1937564800000855191048152f35b9092506020833d8211610db9575b81610d9b60209383610f10565b81010312610c16575069043c33c19375648000006020925192610d6a565b3d9150610d8e565b509034610190576020366003190112610190573580151580820361057557610de7610eb3565b60ff801960065416911617600655600014610e285760207fb410793f8aa086651daa1819a0f70d6b03a433510a7d1a7c995af5bbcba458c49151428152a180f35b60207fdbbda224ce43b9a76fdd2a5b3bd5ac693e8a1738f7f57beea8b84d6a4af4839c9151428152a180f35b8382346103265781600319360112610326576020905160028152f35b8490346103265781600319360112610326577f00000000000000000000000000000000000000000000000000000000000000006001600160a01b03168152602090f35b6000546001600160a01b03163303610ec757565b60405163118cdaa760e01b8152336004820152602490fd5b604081019081106001600160401b03821117610efa57604052565b634e487b7160e01b600052604160045260246000fd5b601f909101601f19168101906001600160401b03821190821017610efa57604052565b90816020910312610f4b57518015158103610f4b5790565b600080fd5b6001600160a01b039091168152602081019190915260400190565b60018060a01b03809116916000918383526020906002825260409460ff86862054166111c35760ff60065416156111915785516370a0823160e01b815230600482015283816024817f000000000000000000000000000000000000000000000000000000000000000087165afa9081156111875790849291879161114c575b5069043c33c193756480000011611112576024875180948193635e56616b60e01b835260048301527f0000000000000000000000000000000000000000000000000000000000000000165afa9081156111085784916110db575b5080936002821061107f57505070456c696769626c6520746f20636c61696d60781b600194519161107483610edf565b601183528201529190565b855190959194509160608301866001600160401b038211858310176110c7575082526023835260008051602061127b833981519152908301526269707360e81b908201529190565b634e487b7160e01b81526041600452602490fd5b90508181813d8311611101575b6110f28183610f10565b81010312610575575138611044565b503d6110e8565b85513d86823e3d90fd5b5050507a496e73756666696369656e74206661756365742062616c616e636560281b8394519161114183610edf565b601b83528201529190565b8381939492503d8311611180575b6111648183610f10565b81010312610311575183919069043c33c1937564800000610fea565b503d61115a565b87513d88823e3d90fd5b505073466175636574206973206e6f742061637469766560601b839451916111b883610edf565b601483528201529190565b50506e105b1c9958591e4818db185a5b5959608a1b839451916111e583610edf565b600f83528201529190565b156111f757565b60405162461bcd60e51b815260206004820152601d60248201527f416d6f756e74206d7573742062652067726561746572207468616e20300000006044820152606490fd5b1561124357565b60405162461bcd60e51b815260206004820152600f60248201526e151c985b9cd9995c8819985a5b1959608a1b6044820152606490fdfe4d7573742068617665206174206c656173742032204f6464797373657920736c8be0079c531659141344cd1fd0a4f28419497f9722a3daafe3b4186f6b6457e0bb757047c2b5f3974fe26b7c10f732e7bce710b0952a71082702781e62ae0595a2646970667358221220c3f4d3c9e5060b145d99602f8f8a0902be874f6f0c70cfded571ffdec34efba264736f6c63430008140033",
  "linkReferences": {},
  "deployedLinkReferences": {}
}