{
  "_format": "hh-sol-artifact-1",
  "contractName": "BitrPool",
  "sourceName": "contracts/BitrPool.sol",
  "abi": [
    {
      "inputs": [
        {
          "internalType": "address",
          "name": "_bitrToken",
          "type": "address"
        },
        {
          "internalType": "address",
          "name": "_feeCollector",
          "type": "address"
        },
        {
          "internalType": "address",
          "name": "_guidedOracle",
          "type": "address"
        },
        {
          "internalType": "address",
          "name": "_optimisticOracle",
          "type": "address"
        }
      ],
      "stateMutability": "nonpayable",
      "type": "constructor"
    },
    {
      "inputs": [
        {
          "internalType": "address",
          "name": "owner",
          "type": "address"
        }
      ],
      "name": "OwnableInvalidOwner",
      "type": "error"
    },
    {
      "inputs": [
        {
          "internalType": "address",
          "name": "account",
          "type": "address"
        }
      ],
      "name": "OwnableUnauthorizedAccount",
      "type": "error"
    },
    {
      "anonymous": false,
      "inputs": [
        {
          "indexed": true,
          "internalType": "uint256",
          "name": "poolId",
          "type": "uint256"
        },
        {
          "indexed": true,
          "internalType": "address",
          "name": "bettor",
          "type": "address"
        },
        {
          "indexed": false,
          "internalType": "uint256",
          "name": "amount",
          "type": "uint256"
        },
        {
          "indexed": false,
          "internalType": "bool",
          "name": "isForOutcome",
          "type": "bool"
        }
      ],
      "name": "BetPlaced",
      "type": "event"
    },
    {
      "anonymous": false,
      "inputs": [
        {
          "indexed": true,
          "internalType": "uint256",
          "name": "poolId",
          "type": "uint256"
        },
        {
          "indexed": false,
          "internalType": "enum BoostTier",
          "name": "tier",
          "type": "uint8"
        }
      ],
      "name": "BoostExpired",
      "type": "event"
    },
    {
      "anonymous": false,
      "inputs": [
        {
          "indexed": true,
          "internalType": "uint256",
          "name": "comboPoolId",
          "type": "uint256"
        },
        {
          "indexed": true,
          "internalType": "address",
          "name": "bettor",
          "type": "address"
        },
        {
          "indexed": false,
          "internalType": "uint256",
          "name": "amount",
          "type": "uint256"
        }
      ],
      "name": "ComboBetPlaced",
      "type": "event"
    },
    {
      "anonymous": false,
      "inputs": [
        {
          "indexed": true,
          "internalType": "uint256",
          "name": "comboPoolId",
          "type": "uint256"
        },
        {
          "indexed": true,
          "internalType": "address",
          "name": "creator",
          "type": "address"
        },
        {
          "indexed": false,
          "internalType": "uint256",
          "name": "conditionCount",
          "type": "uint256"
        },
        {
          "indexed": false,
          "internalType": "uint16",
          "name": "totalOdds",
          "type": "uint16"
        }
      ],
      "name": "ComboPoolCreated",
      "type": "event"
    },
    {
      "anonymous": false,
      "inputs": [
        {
          "indexed": true,
          "internalType": "uint256",
          "name": "comboPoolId",
          "type": "uint256"
        },
        {
          "indexed": false,
          "internalType": "bool",
          "name": "creatorSideWon",
          "type": "bool"
        },
        {
          "indexed": false,
          "internalType": "uint256",
          "name": "timestamp",
          "type": "uint256"
        }
      ],
      "name": "ComboPoolSettled",
      "type": "event"
    },
    {
      "anonymous": false,
      "inputs": [
        {
          "indexed": true,
          "internalType": "uint256",
          "name": "poolId",
          "type": "uint256"
        },
        {
          "indexed": true,
          "internalType": "address",
          "name": "provider",
          "type": "address"
        },
        {
          "indexed": false,
          "internalType": "uint256",
          "name": "amount",
          "type": "uint256"
        }
      ],
      "name": "LiquidityAdded",
      "type": "event"
    },
    {
      "anonymous": false,
      "inputs": [
        {
          "indexed": true,
          "internalType": "address",
          "name": "previousOwner",
          "type": "address"
        },
        {
          "indexed": true,
          "internalType": "address",
          "name": "newOwner",
          "type": "address"
        }
      ],
      "name": "OwnershipTransferred",
      "type": "event"
    },
    {
      "anonymous": false,
      "inputs": [
        {
          "indexed": true,
          "internalType": "uint256",
          "name": "poolId",
          "type": "uint256"
        },
        {
          "indexed": false,
          "internalType": "enum BoostTier",
          "name": "tier",
          "type": "uint8"
        },
        {
          "indexed": false,
          "internalType": "uint256",
          "name": "expiry",
          "type": "uint256"
        },
        {
          "indexed": false,
          "internalType": "uint256",
          "name": "fee",
          "type": "uint256"
        }
      ],
      "name": "PoolBoosted",
      "type": "event"
    },
    {
      "anonymous": false,
      "inputs": [
        {
          "indexed": true,
          "internalType": "uint256",
          "name": "poolId",
          "type": "uint256"
        },
        {
          "indexed": true,
          "internalType": "address",
          "name": "creator",
          "type": "address"
        },
        {
          "indexed": false,
          "internalType": "uint256",
          "name": "eventStartTime",
          "type": "uint256"
        },
        {
          "indexed": false,
          "internalType": "uint256",
          "name": "eventEndTime",
          "type": "uint256"
        },
        {
          "indexed": false,
          "internalType": "enum OracleType",
          "name": "oracleType",
          "type": "uint8"
        },
        {
          "indexed": false,
          "internalType": "bytes32",
          "name": "marketId",
          "type": "bytes32"
        },
        {
          "indexed": false,
          "internalType": "enum MarketType",
          "name": "marketType",
          "type": "uint8"
        },
        {
          "indexed": false,
          "internalType": "string",
          "name": "league",
          "type": "string"
        },
        {
          "indexed": false,
          "internalType": "string",
          "name": "category",
          "type": "string"
        }
      ],
      "name": "PoolCreated",
      "type": "event"
    },
    {
      "anonymous": false,
      "inputs": [
        {
          "indexed": true,
          "internalType": "uint256",
          "name": "poolId",
          "type": "uint256"
        },
        {
          "indexed": false,
          "internalType": "uint256",
          "name": "fillPercentage",
          "type": "uint256"
        },
        {
          "indexed": false,
          "internalType": "uint256",
          "name": "timestamp",
          "type": "uint256"
        }
      ],
      "name": "PoolFilledAboveThreshold",
      "type": "event"
    },
    {
      "anonymous": false,
      "inputs": [
        {
          "indexed": true,
          "internalType": "uint256",
          "name": "poolId",
          "type": "uint256"
        },
        {
          "indexed": false,
          "internalType": "string",
          "name": "reason",
          "type": "string"
        }
      ],
      "name": "PoolRefunded",
      "type": "event"
    },
    {
      "anonymous": false,
      "inputs": [
        {
          "indexed": true,
          "internalType": "uint256",
          "name": "poolId",
          "type": "uint256"
        },
        {
          "indexed": false,
          "internalType": "bytes32",
          "name": "result",
          "type": "bytes32"
        },
        {
          "indexed": false,
          "internalType": "bool",
          "name": "creatorSideWon",
          "type": "bool"
        },
        {
          "indexed": false,
          "internalType": "uint256",
          "name": "timestamp",
          "type": "uint256"
        }
      ],
      "name": "PoolSettled",
      "type": "event"
    },
    {
      "anonymous": false,
      "inputs": [
        {
          "indexed": true,
          "internalType": "uint256",
          "name": "poolId",
          "type": "uint256"
        },
        {
          "indexed": false,
          "internalType": "uint256",
          "name": "totalVolume",
          "type": "uint256"
        },
        {
          "indexed": false,
          "internalType": "uint256",
          "name": "participantCount",
          "type": "uint256"
        }
      ],
      "name": "PoolVolumeUpdated",
      "type": "event"
    },
    {
      "anonymous": false,
      "inputs": [
        {
          "indexed": true,
          "internalType": "address",
          "name": "user",
          "type": "address"
        },
        {
          "indexed": false,
          "internalType": "enum ReputationAction",
          "name": "action",
          "type": "uint8"
        },
        {
          "indexed": false,
          "internalType": "uint256",
          "name": "value",
          "type": "uint256"
        },
        {
          "indexed": true,
          "internalType": "bytes32",
          "name": "poolId",
          "type": "bytes32"
        },
        {
          "indexed": false,
          "internalType": "uint256",
          "name": "timestamp",
          "type": "uint256"
        }
      ],
      "name": "ReputationActionOccurred",
      "type": "event"
    },
    {
      "anonymous": false,
      "inputs": [
        {
          "indexed": true,
          "internalType": "uint256",
          "name": "poolId",
          "type": "uint256"
        },
        {
          "indexed": true,
          "internalType": "address",
          "name": "user",
          "type": "address"
        },
        {
          "indexed": false,
          "internalType": "uint256",
          "name": "amount",
          "type": "uint256"
        }
      ],
      "name": "RewardClaimed",
      "type": "event"
    },
    {
      "anonymous": false,
      "inputs": [
        {
          "indexed": true,
          "internalType": "uint256",
          "name": "poolId",
          "type": "uint256"
        },
        {
          "indexed": true,
          "internalType": "address",
          "name": "user",
          "type": "address"
        },
        {
          "indexed": false,
          "internalType": "uint256",
          "name": "amount",
          "type": "uint256"
        },
        {
          "indexed": false,
          "internalType": "uint256",
          "name": "totalUserBets",
          "type": "uint256"
        }
      ],
      "name": "UserBetPlaced",
      "type": "event"
    },
    {
      "anonymous": false,
      "inputs": [
        {
          "indexed": true,
          "internalType": "uint256",
          "name": "poolId",
          "type": "uint256"
        },
        {
          "indexed": true,
          "internalType": "address",
          "name": "user",
          "type": "address"
        },
        {
          "indexed": false,
          "internalType": "uint256",
          "name": "amount",
          "type": "uint256"
        },
        {
          "indexed": false,
          "internalType": "uint256",
          "name": "totalUserLiquidity",
          "type": "uint256"
        }
      ],
      "name": "UserLiquidityAdded",
      "type": "event"
    },
    {
      "anonymous": false,
      "inputs": [
        {
          "indexed": true,
          "internalType": "uint256",
          "name": "poolId",
          "type": "uint256"
        },
        {
          "indexed": true,
          "internalType": "address",
          "name": "user",
          "type": "address"
        }
      ],
      "name": "UserWhitelisted",
      "type": "event"
    },
    {
      "inputs": [],
      "name": "BOOST_DURATION",
      "outputs": [
        {
          "internalType": "uint256",
          "name": "",
          "type": "uint256"
        }
      ],
      "stateMutability": "view",
      "type": "function"
    },
    {
      "inputs": [],
      "name": "HIGH_ODDS_THRESHOLD",
      "outputs": [
        {
          "internalType": "uint256",
          "name": "",
          "type": "uint256"
        }
      ],
      "stateMutability": "view",
      "type": "function"
    },
    {
      "inputs": [],
      "name": "MAX_BRONZE_POOLS",
      "outputs": [
        {
          "internalType": "uint256",
          "name": "",
          "type": "uint256"
        }
      ],
      "stateMutability": "view",
      "type": "function"
    },
    {
      "inputs": [],
      "name": "MAX_GOLD_POOLS",
      "outputs": [
        {
          "internalType": "uint256",
          "name": "",
          "type": "uint256"
        }
      ],
      "stateMutability": "view",
      "type": "function"
    },
    {
      "inputs": [],
      "name": "MAX_LP_PROVIDERS",
      "outputs": [
        {
          "internalType": "uint256",
          "name": "",
          "type": "uint256"
        }
      ],
      "stateMutability": "view",
      "type": "function"
    },
    {
      "inputs": [],
      "name": "MAX_PARTICIPANTS",
      "outputs": [
        {
          "internalType": "uint256",
          "name": "",
          "type": "uint256"
        }
      ],
      "stateMutability": "view",
      "type": "function"
    },
    {
      "inputs": [],
      "name": "MAX_SILVER_POOLS",
      "outputs": [
        {
          "internalType": "uint256",
          "name": "",
          "type": "uint256"
        }
      ],
      "stateMutability": "view",
      "type": "function"
    },
    {
      "inputs": [
        {
          "internalType": "enum BoostTier",
          "name": "",
          "type": "uint8"
        }
      ],
      "name": "activeBoostCount",
      "outputs": [
        {
          "internalType": "uint256",
          "name": "",
          "type": "uint256"
        }
      ],
      "stateMutability": "view",
      "type": "function"
    },
    {
      "inputs": [
        {
          "internalType": "uint256",
          "name": "poolId",
          "type": "uint256"
        },
        {
          "internalType": "uint256",
          "name": "amount",
          "type": "uint256"
        }
      ],
      "name": "addLiquidity",
      "outputs": [],
      "stateMutability": "payable",
      "type": "function"
    },
    {
      "inputs": [
        {
          "internalType": "uint256",
          "name": "poolId",
          "type": "uint256"
        },
        {
          "internalType": "address",
          "name": "user",
          "type": "address"
        }
      ],
      "name": "addToWhitelist",
      "outputs": [],
      "stateMutability": "nonpayable",
      "type": "function"
    },
    {
      "inputs": [
        {
          "internalType": "address",
          "name": "user",
          "type": "address"
        }
      ],
      "name": "adjustedFeeRate",
      "outputs": [
        {
          "internalType": "uint256",
          "name": "",
          "type": "uint256"
        }
      ],
      "stateMutability": "view",
      "type": "function"
    },
    {
      "inputs": [],
      "name": "arbitrationTimeout",
      "outputs": [
        {
          "internalType": "uint256",
          "name": "",
          "type": "uint256"
        }
      ],
      "stateMutability": "view",
      "type": "function"
    },
    {
      "inputs": [],
      "name": "bettingGracePeriod",
      "outputs": [
        {
          "internalType": "uint256",
          "name": "",
          "type": "uint256"
        }
      ],
      "stateMutability": "view",
      "type": "function"
    },
    {
      "inputs": [
        {
          "internalType": "uint256",
          "name": "",
          "type": "uint256"
        },
        {
          "internalType": "address",
          "name": "",
          "type": "address"
        }
      ],
      "name": "bettorStakes",
      "outputs": [
        {
          "internalType": "uint256",
          "name": "",
          "type": "uint256"
        }
      ],
      "stateMutability": "view",
      "type": "function"
    },
    {
      "inputs": [],
      "name": "bitrToken",
      "outputs": [
        {
          "internalType": "contract IERC20",
          "name": "",
          "type": "address"
        }
      ],
      "stateMutability": "view",
      "type": "function"
    },
    {
      "inputs": [
        {
          "internalType": "uint256",
          "name": "",
          "type": "uint256"
        }
      ],
      "name": "boostFees",
      "outputs": [
        {
          "internalType": "uint256",
          "name": "",
          "type": "uint256"
        }
      ],
      "stateMutability": "view",
      "type": "function"
    },
    {
      "inputs": [
        {
          "internalType": "uint256",
          "name": "poolId",
          "type": "uint256"
        },
        {
          "internalType": "enum BoostTier",
          "name": "tier",
          "type": "uint8"
        }
      ],
      "name": "boostPool",
      "outputs": [],
      "stateMutability": "payable",
      "type": "function"
    },
    {
      "inputs": [
        {
          "internalType": "bytes32",
          "name": "",
          "type": "bytes32"
        },
        {
          "internalType": "uint256",
          "name": "",
          "type": "uint256"
        }
      ],
      "name": "categoryPools",
      "outputs": [
        {
          "internalType": "uint256",
          "name": "",
          "type": "uint256"
        }
      ],
      "stateMutability": "view",
      "type": "function"
    },
    {
      "inputs": [
        {
          "internalType": "uint256",
          "name": "poolId",
          "type": "uint256"
        }
      ],
      "name": "claim",
      "outputs": [],
      "stateMutability": "nonpayable",
      "type": "function"
    },
    {
      "inputs": [
        {
          "internalType": "uint256",
          "name": "comboPoolId",
          "type": "uint256"
        }
      ],
      "name": "claimCombo",
      "outputs": [],
      "stateMutability": "nonpayable",
      "type": "function"
    },
    {
      "inputs": [
        {
          "internalType": "uint256",
          "name": "",
          "type": "uint256"
        },
        {
          "internalType": "address",
          "name": "",
          "type": "address"
        }
      ],
      "name": "claimed",
      "outputs": [
        {
          "internalType": "bool",
          "name": "",
          "type": "bool"
        }
      ],
      "stateMutability": "view",
      "type": "function"
    },
    {
      "inputs": [
        {
          "internalType": "uint256[]",
          "name": "poolIds",
          "type": "uint256[]"
        }
      ],
      "name": "cleanupExpiredBoosts",
      "outputs": [],
      "stateMutability": "nonpayable",
      "type": "function"
    },
    {
      "inputs": [
        {
          "internalType": "uint256",
          "name": "",
          "type": "uint256"
        },
        {
          "internalType": "address",
          "name": "",
          "type": "address"
        }
      ],
      "name": "comboBettorStakes",
      "outputs": [
        {
          "internalType": "uint256",
          "name": "",
          "type": "uint256"
        }
      ],
      "stateMutability": "view",
      "type": "function"
    },
    {
      "inputs": [
        {
          "internalType": "uint256",
          "name": "",
          "type": "uint256"
        },
        {
          "internalType": "address",
          "name": "",
          "type": "address"
        }
      ],
      "name": "comboClaimed",
      "outputs": [
        {
          "internalType": "bool",
          "name": "",
          "type": "bool"
        }
      ],
      "stateMutability": "view",
      "type": "function"
    },
    {
      "inputs": [
        {
          "internalType": "uint256",
          "name": "",
          "type": "uint256"
        },
        {
          "internalType": "address",
          "name": "",
          "type": "address"
        }
      ],
      "name": "comboLPStakes",
      "outputs": [
        {
          "internalType": "uint256",
          "name": "",
          "type": "uint256"
        }
      ],
      "stateMutability": "view",
      "type": "function"
    },
    {
      "inputs": [
        {
          "internalType": "uint256",
          "name": "",
          "type": "uint256"
        },
        {
          "internalType": "uint256",
          "name": "",
          "type": "uint256"
        }
      ],
      "name": "comboPoolBettors",
      "outputs": [
        {
          "internalType": "address",
          "name": "",
          "type": "address"
        }
      ],
      "stateMutability": "view",
      "type": "function"
    },
    {
      "inputs": [],
      "name": "comboPoolCount",
      "outputs": [
        {
          "internalType": "uint256",
          "name": "",
          "type": "uint256"
        }
      ],
      "stateMutability": "view",
      "type": "function"
    },
    {
      "inputs": [
        {
          "internalType": "uint256",
          "name": "",
          "type": "uint256"
        },
        {
          "internalType": "uint256",
          "name": "",
          "type": "uint256"
        }
      ],
      "name": "comboPoolLPs",
      "outputs": [
        {
          "internalType": "address",
          "name": "",
          "type": "address"
        }
      ],
      "stateMutability": "view",
      "type": "function"
    },
    {
      "inputs": [
        {
          "internalType": "uint256",
          "name": "",
          "type": "uint256"
        }
      ],
      "name": "comboPools",
      "outputs": [
        {
          "internalType": "address",
          "name": "creator",
          "type": "address"
        },
        {
          "internalType": "uint256",
          "name": "creatorStake",
          "type": "uint256"
        },
        {
          "internalType": "uint256",
          "name": "totalCreatorSideStake",
          "type": "uint256"
        },
        {
          "internalType": "uint256",
          "name": "maxBettorStake",
          "type": "uint256"
        },
        {
          "internalType": "uint256",
          "name": "totalBettorStake",
          "type": "uint256"
        },
        {
          "internalType": "uint16",
          "name": "totalOdds",
          "type": "uint16"
        },
        {
          "internalType": "bool",
          "name": "settled",
          "type": "bool"
        },
        {
          "internalType": "bool",
          "name": "creatorSideWon",
          "type": "bool"
        },
        {
          "internalType": "bool",
          "name": "usesBitr",
          "type": "bool"
        },
        {
          "internalType": "uint256",
          "name": "eventStartTime",
          "type": "uint256"
        },
        {
          "internalType": "uint256",
          "name": "eventEndTime",
          "type": "uint256"
        },
        {
          "internalType": "uint256",
          "name": "bettingEndTime",
          "type": "uint256"
        },
        {
          "internalType": "uint256",
          "name": "resultTimestamp",
          "type": "uint256"
        },
        {
          "internalType": "string",
          "name": "category",
          "type": "string"
        },
        {
          "internalType": "uint256",
          "name": "maxBetPerUser",
          "type": "uint256"
        }
      ],
      "stateMutability": "view",
      "type": "function"
    },
    {
      "inputs": [
        {
          "components": [
            {
              "internalType": "bytes32",
              "name": "marketId",
              "type": "bytes32"
            },
            {
              "internalType": "bytes32",
              "name": "expectedOutcome",
              "type": "bytes32"
            },
            {
              "internalType": "bool",
              "name": "resolved",
              "type": "bool"
            },
            {
              "internalType": "bytes32",
              "name": "actualOutcome",
              "type": "bytes32"
            }
          ],
          "internalType": "struct BitrPool.OutcomeCondition[]",
          "name": "conditions",
          "type": "tuple[]"
        },
        {
          "internalType": "uint16",
          "name": "combinedOdds",
          "type": "uint16"
        },
        {
          "internalType": "uint256",
          "name": "creatorStake",
          "type": "uint256"
        },
        {
          "internalType": "uint256",
          "name": "earliestEventStart",
          "type": "uint256"
        },
        {
          "internalType": "uint256",
          "name": "latestEventEnd",
          "type": "uint256"
        },
        {
          "internalType": "string",
          "name": "category",
          "type": "string"
        },
        {
          "internalType": "uint256",
          "name": "maxBetPerUser",
          "type": "uint256"
        },
        {
          "internalType": "bool",
          "name": "useBitr",
          "type": "bool"
        }
      ],
      "name": "createComboPool",
      "outputs": [],
      "stateMutability": "payable",
      "type": "function"
    },
    {
      "inputs": [
        {
          "internalType": "bytes32",
          "name": "_predictedOutcome",
          "type": "bytes32"
        },
        {
          "internalType": "uint256",
          "name": "_odds",
          "type": "uint256"
        },
        {
          "internalType": "uint256",
          "name": "_creatorStake",
          "type": "uint256"
        },
        {
          "internalType": "uint256",
          "name": "_eventStartTime",
          "type": "uint256"
        },
        {
          "internalType": "uint256",
          "name": "_eventEndTime",
          "type": "uint256"
        },
        {
          "internalType": "string",
          "name": "_league",
          "type": "string"
        },
        {
          "internalType": "string",
          "name": "_category",
          "type": "string"
        },
        {
          "internalType": "enum MarketType",
          "name": "_marketType",
          "type": "uint8"
        },
        {
          "internalType": "bool",
          "name": "_isPrivate",
          "type": "bool"
        },
        {
          "internalType": "uint256",
          "name": "_maxBetPerUser",
          "type": "uint256"
        },
        {
          "internalType": "bool",
          "name": "_useBitr",
          "type": "bool"
        },
        {
          "internalType": "enum OracleType",
          "name": "_oracleType",
          "type": "uint8"
        },
        {
          "internalType": "bytes32",
          "name": "_marketId",
          "type": "bytes32"
        }
      ],
      "name": "createPool",
      "outputs": [],
      "stateMutability": "payable",
      "type": "function"
    },
    {
      "inputs": [],
      "name": "creationFeeBITR",
      "outputs": [
        {
          "internalType": "uint256",
          "name": "",
          "type": "uint256"
        }
      ],
      "stateMutability": "view",
      "type": "function"
    },
    {
      "inputs": [],
      "name": "creationFeeMON",
      "outputs": [
        {
          "internalType": "uint256",
          "name": "",
          "type": "uint256"
        }
      ],
      "stateMutability": "view",
      "type": "function"
    },
    {
      "inputs": [
        {
          "internalType": "address",
          "name": "",
          "type": "address"
        },
        {
          "internalType": "uint256",
          "name": "",
          "type": "uint256"
        }
      ],
      "name": "creatorActivePools",
      "outputs": [
        {
          "internalType": "uint256",
          "name": "",
          "type": "uint256"
        }
      ],
      "stateMutability": "view",
      "type": "function"
    },
    {
      "inputs": [
        {
          "internalType": "address",
          "name": "stakingContract",
          "type": "address"
        }
      ],
      "name": "distributeFees",
      "outputs": [],
      "stateMutability": "nonpayable",
      "type": "function"
    },
    {
      "inputs": [],
      "name": "feeCollector",
      "outputs": [
        {
          "internalType": "address",
          "name": "",
          "type": "address"
        }
      ],
      "stateMutability": "view",
      "type": "function"
    },
    {
      "inputs": [
        {
          "internalType": "address",
          "name": "creator",
          "type": "address"
        },
        {
          "internalType": "uint256",
          "name": "limit",
          "type": "uint256"
        },
        {
          "internalType": "uint256",
          "name": "offset",
          "type": "uint256"
        }
      ],
      "name": "getActivePoolsByCreator",
      "outputs": [
        {
          "internalType": "uint256[]",
          "name": "poolIds",
          "type": "uint256[]"
        }
      ],
      "stateMutability": "view",
      "type": "function"
    },
    {
      "inputs": [
        {
          "internalType": "bytes32",
          "name": "categoryHash",
          "type": "bytes32"
        },
        {
          "internalType": "uint256",
          "name": "limit",
          "type": "uint256"
        },
        {
          "internalType": "uint256",
          "name": "offset",
          "type": "uint256"
        }
      ],
      "name": "getPoolsByCategory",
      "outputs": [
        {
          "internalType": "uint256[]",
          "name": "poolIds",
          "type": "uint256[]"
        }
      ],
      "stateMutability": "view",
      "type": "function"
    },
    {
      "inputs": [],
      "name": "guidedOracle",
      "outputs": [
        {
          "internalType": "address",
          "name": "",
          "type": "address"
        }
      ],
      "stateMutability": "view",
      "type": "function"
    },
    {
      "inputs": [
        {
          "internalType": "uint256",
          "name": "",
          "type": "uint256"
        },
        {
          "internalType": "address",
          "name": "",
          "type": "address"
        }
      ],
      "name": "lpStakes",
      "outputs": [
        {
          "internalType": "uint256",
          "name": "",
          "type": "uint256"
        }
      ],
      "stateMutability": "view",
      "type": "function"
    },
    {
      "inputs": [],
      "name": "minBetAmount",
      "outputs": [
        {
          "internalType": "uint256",
          "name": "",
          "type": "uint256"
        }
      ],
      "stateMutability": "view",
      "type": "function"
    },
    {
      "inputs": [],
      "name": "minPoolStakeBITR",
      "outputs": [
        {
          "internalType": "uint256",
          "name": "",
          "type": "uint256"
        }
      ],
      "stateMutability": "view",
      "type": "function"
    },
    {
      "inputs": [],
      "name": "minPoolStakeMON",
      "outputs": [
        {
          "internalType": "uint256",
          "name": "",
          "type": "uint256"
        }
      ],
      "stateMutability": "view",
      "type": "function"
    },
    {
      "inputs": [],
      "name": "optimisticOracle",
      "outputs": [
        {
          "internalType": "address",
          "name": "",
          "type": "address"
        }
      ],
      "stateMutability": "view",
      "type": "function"
    },
    {
      "inputs": [],
      "name": "owner",
      "outputs": [
        {
          "internalType": "address",
          "name": "",
          "type": "address"
        }
      ],
      "stateMutability": "view",
      "type": "function"
    },
    {
      "inputs": [
        {
          "internalType": "uint256",
          "name": "poolId",
          "type": "uint256"
        },
        {
          "internalType": "uint256",
          "name": "amount",
          "type": "uint256"
        }
      ],
      "name": "placeBet",
      "outputs": [],
      "stateMutability": "payable",
      "type": "function"
    },
    {
      "inputs": [
        {
          "internalType": "uint256",
          "name": "comboPoolId",
          "type": "uint256"
        },
        {
          "internalType": "uint256",
          "name": "amount",
          "type": "uint256"
        }
      ],
      "name": "placeComboBet",
      "outputs": [],
      "stateMutability": "payable",
      "type": "function"
    },
    {
      "inputs": [],
      "name": "platformFee",
      "outputs": [
        {
          "internalType": "uint256",
          "name": "",
          "type": "uint256"
        }
      ],
      "stateMutability": "view",
      "type": "function"
    },
    {
      "inputs": [
        {
          "internalType": "uint256",
          "name": "",
          "type": "uint256"
        },
        {
          "internalType": "uint256",
          "name": "",
          "type": "uint256"
        }
      ],
      "name": "poolBettors",
      "outputs": [
        {
          "internalType": "address",
          "name": "",
          "type": "address"
        }
      ],
      "stateMutability": "view",
      "type": "function"
    },
    {
      "inputs": [
        {
          "internalType": "uint256",
          "name": "",
          "type": "uint256"
        }
      ],
      "name": "poolBoostExpiry",
      "outputs": [
        {
          "internalType": "uint256",
          "name": "",
          "type": "uint256"
        }
      ],
      "stateMutability": "view",
      "type": "function"
    },
    {
      "inputs": [
        {
          "internalType": "uint256",
          "name": "",
          "type": "uint256"
        }
      ],
      "name": "poolBoostTier",
      "outputs": [
        {
          "internalType": "enum BoostTier",
          "name": "",
          "type": "uint8"
        }
      ],
      "stateMutability": "view",
      "type": "function"
    },
    {
      "inputs": [],
      "name": "poolCount",
      "outputs": [
        {
          "internalType": "uint256",
          "name": "",
          "type": "uint256"
        }
      ],
      "stateMutability": "view",
      "type": "function"
    },
    {
      "inputs": [
        {
          "internalType": "uint256",
          "name": "",
          "type": "uint256"
        }
      ],
      "name": "poolIdToCreatorIndex",
      "outputs": [
        {
          "internalType": "uint256",
          "name": "",
          "type": "uint256"
        }
      ],
      "stateMutability": "view",
      "type": "function"
    },
    {
      "inputs": [
        {
          "internalType": "uint256",
          "name": "",
          "type": "uint256"
        },
        {
          "internalType": "uint256",
          "name": "",
          "type": "uint256"
        }
      ],
      "name": "poolLPs",
      "outputs": [
        {
          "internalType": "address",
          "name": "",
          "type": "address"
        }
      ],
      "stateMutability": "view",
      "type": "function"
    },
    {
      "inputs": [
        {
          "internalType": "uint256",
          "name": "",
          "type": "uint256"
        },
        {
          "internalType": "address",
          "name": "",
          "type": "address"
        }
      ],
      "name": "poolWhitelist",
      "outputs": [
        {
          "internalType": "bool",
          "name": "",
          "type": "bool"
        }
      ],
      "stateMutability": "view",
      "type": "function"
    },
    {
      "inputs": [
        {
          "internalType": "uint256",
          "name": "",
          "type": "uint256"
        }
      ],
      "name": "pools",
      "outputs": [
        {
          "internalType": "address",
          "name": "creator",
          "type": "address"
        },
        {
          "internalType": "uint16",
          "name": "odds",
          "type": "uint16"
        },
        {
          "internalType": "bool",
          "name": "settled",
          "type": "bool"
        },
        {
          "internalType": "bool",
          "name": "creatorSideWon",
          "type": "bool"
        },
        {
          "internalType": "bool",
          "name": "isPrivate",
          "type": "bool"
        },
        {
          "internalType": "bool",
          "name": "usesBitr",
          "type": "bool"
        },
        {
          "internalType": "bool",
          "name": "filledAbove60",
          "type": "bool"
        },
        {
          "internalType": "enum OracleType",
          "name": "oracleType",
          "type": "uint8"
        },
        {
          "internalType": "uint256",
          "name": "creatorStake",
          "type": "uint256"
        },
        {
          "internalType": "uint256",
          "name": "totalCreatorSideStake",
          "type": "uint256"
        },
        {
          "internalType": "uint256",
          "name": "maxBettorStake",
          "type": "uint256"
        },
        {
          "internalType": "uint256",
          "name": "totalBettorStake",
          "type": "uint256"
        },
        {
          "internalType": "bytes32",
          "name": "predictedOutcome",
          "type": "bytes32"
        },
        {
          "internalType": "bytes32",
          "name": "result",
          "type": "bytes32"
        },
        {
          "internalType": "bytes32",
          "name": "marketId",
          "type": "bytes32"
        },
        {
          "internalType": "uint256",
          "name": "eventStartTime",
          "type": "uint256"
        },
        {
          "internalType": "uint256",
          "name": "eventEndTime",
          "type": "uint256"
        },
        {
          "internalType": "uint256",
          "name": "bettingEndTime",
          "type": "uint256"
        },
        {
          "internalType": "uint256",
          "name": "resultTimestamp",
          "type": "uint256"
        },
        {
          "internalType": "uint256",
          "name": "arbitrationDeadline",
          "type": "uint256"
        },
        {
          "internalType": "string",
          "name": "league",
          "type": "string"
        },
        {
          "internalType": "string",
          "name": "category",
          "type": "string"
        },
        {
          "internalType": "enum MarketType",
          "name": "marketType",
          "type": "uint8"
        },
        {
          "internalType": "uint256",
          "name": "maxBetPerUser",
          "type": "uint256"
        }
      ],
      "stateMutability": "view",
      "type": "function"
    },
    {
      "inputs": [
        {
          "internalType": "uint256",
          "name": "poolId",
          "type": "uint256"
        }
      ],
      "name": "refundPool",
      "outputs": [],
      "stateMutability": "nonpayable",
      "type": "function"
    },
    {
      "inputs": [
        {
          "internalType": "uint256",
          "name": "poolId",
          "type": "uint256"
        },
        {
          "internalType": "address",
          "name": "user",
          "type": "address"
        }
      ],
      "name": "removeFromWhitelist",
      "outputs": [],
      "stateMutability": "nonpayable",
      "type": "function"
    },
    {
      "inputs": [],
      "name": "renounceOwnership",
      "outputs": [],
      "stateMutability": "nonpayable",
      "type": "function"
    },
    {
      "inputs": [],
      "name": "reputationSystem",
      "outputs": [
        {
          "internalType": "contract IReputationSystem",
          "name": "",
          "type": "address"
        }
      ],
      "stateMutability": "view",
      "type": "function"
    },
    {
      "inputs": [
        {
          "internalType": "uint256",
          "name": "comboPoolId",
          "type": "uint256"
        },
        {
          "internalType": "uint256",
          "name": "conditionIndex",
          "type": "uint256"
        },
        {
          "internalType": "bytes32",
          "name": "actualOutcome",
          "type": "bytes32"
        }
      ],
      "name": "resolveComboCondition",
      "outputs": [],
      "stateMutability": "nonpayable",
      "type": "function"
    },
    {
      "inputs": [
        {
          "internalType": "address",
          "name": "_reputationSystem",
          "type": "address"
        }
      ],
      "name": "setReputationSystem",
      "outputs": [],
      "stateMutability": "nonpayable",
      "type": "function"
    },
    {
      "inputs": [
        {
          "internalType": "uint256",
          "name": "poolId",
          "type": "uint256"
        },
        {
          "internalType": "bytes32",
          "name": "outcome",
          "type": "bytes32"
        }
      ],
      "name": "settlePool",
      "outputs": [],
      "stateMutability": "nonpayable",
      "type": "function"
    },
    {
      "inputs": [
        {
          "internalType": "uint256",
          "name": "poolId",
          "type": "uint256"
        }
      ],
      "name": "settlePoolAutomatically",
      "outputs": [],
      "stateMutability": "nonpayable",
      "type": "function"
    },
    {
      "inputs": [],
      "name": "totalCollectedBITR",
      "outputs": [
        {
          "internalType": "uint256",
          "name": "",
          "type": "uint256"
        }
      ],
      "stateMutability": "view",
      "type": "function"
    },
    {
      "inputs": [],
      "name": "totalCollectedMON",
      "outputs": [
        {
          "internalType": "uint256",
          "name": "",
          "type": "uint256"
        }
      ],
      "stateMutability": "view",
      "type": "function"
    },
    {
      "inputs": [
        {
          "internalType": "address",
          "name": "newOwner",
          "type": "address"
        }
      ],
      "name": "transferOwnership",
      "outputs": [],
      "stateMutability": "nonpayable",
      "type": "function"
    },
    {
      "inputs": [
        {
          "internalType": "uint256",
          "name": "poolId",
          "type": "uint256"
        }
      ],
      "name": "withdrawCreatorStake",
      "outputs": [],
      "stateMutability": "nonpayable",
      "type": "function"
    },
    {
      "inputs": [
        {
          "internalType": "uint256",
          "name": "poolId",
          "type": "uint256"
        }
      ],
      "name": "withdrawLiquidity",
      "outputs": [],
      "stateMutability": "nonpayable",
      "type": "function"
    }
  ],
  "bytecode": "0x60e034620001ce57601f620061e038819003918201601f19168301926001600160401b0392909183851183861017620001d3578160809284926040978852833981010312620001ce576200005381620001e9565b91602062000063818401620001e9565b916200007f606062000077888701620001e9565b9501620001e9565b943315620001b65760008054336001600160a01b031980831682178455956001600160a01b0395939290919086167f8be0079c531659141344cd1fd0a4f28419497f9722a3daafe3b4186f6b6457e08480a389516080810181811085821117620001a2578b52828152671bc16d674ec80000828201526729a2241af62c00008b820152674563918244f400006060820152915b600481106200018c57505050501690600154161760015560805260a05260c05251615fe19081620001ff8239608051818181610e2b0152611f29015260a051818181610b8801528181610e7001528181613b9d015261410d015260c051818181610ded01528181613ca401528181613da901526142640152f35b8251841660078201559181019160010162000112565b634e487b7160e01b84526041600452602484fd5b8651631e4fbdf760e01b815260006004820152602490fd5b600080fd5b634e487b7160e01b600052604160045260246000fd5b51906001600160a01b0382168203620001ce5756fe61010080604052600436101561001457600080fd5b600090813560e01c90816301b708c214614cf7575080630a861f2a146148965780630e8a01bc1461446157806310d032521461436c578063120aa87714614323578063152cdda9146140855780631787010f14613dd85780632230292214613d93578063237e23be14613b3157806326232a2e146106f457806329402fea14613b0b5780632d78546114613a7257806331143cee14613a2d578063379607f5146137f1578063394d997614610b1a57806339cb2c91146137c45780633df2afa61461379a5780633e8670ff14613768578063474e43a11461374a578063480d1541146137165780634afe62b51461324f5780634d7aae781461322b57806355faf5c914613208578063598f2d841461300e5780635e4de66514612fdc578063657c183f14612fc05780636587eda114612f975780636b65761214612f4e578063715018a614612f0657806384499bb614612ee2578063845d11641461232a5780638b4ed235146123005780638da5cb5b146122d95780638f63f748146122bb5780639413f25c14611f035780639cd441da14611ae55780639fd482be14611a99578063a0b310df14611a52578063a0f8b49114611a15578063a12a41cf146119cd578063a695ee38146119a1578063a7a891bf1461196f578063a82457831461181d578063ab78cc1514611801578063ac4afa3814611626578063aedc5981146115df578063bc19c6dd14610ee6578063c26e797e14610e9f578063c341261014610e5a578063c415b95c14610e15578063c4baad8114610b66578063d0f808be14610b1f578063d96d09aa146106f4578063d9c6176c14610b1a578063e0de55d014610853578063e82ac07614610820578063ebbe74d7146106d1578063ed517547146107d8578063f05e2525146107ba578063f23b420f1461076f578063f2fde38b146106f9578063f3baf070146106f4578063f525cb68146106d6578063f56926b2146106d1578063f82d4591146106cc578063f8bf195f146106d1578063fa968eea146106cc578063fea3e6131461065a5763ffd230c91461031957600080fd5b604036600319011261065757600435602480359060048210156106535761034360025484106153a8565b811561061a578284526018602090815260408520546001600160a01b031633036105df578385526018815260086040862001544210156105a5576000600184036105525760055b61039385615037565b54101561051d57848652600c825260ff604087205416600481101561050a57801515806104f6575b6104db575b506104c857826007015491823403610488576103de8360055461516c565b600555848652600c82526040862060ff1981541660ff8616179055620151804201908142116104765750917fefc14802c8cf8d64bd7c3cfffe96632ef815d3f9d4a6dcf5033b415a166b53b69391606093868852600d8252604088205561044483615037565b61044e8154615399565b9055858752600d815260408720549061046a6040518095614f84565b8301526040820152a280f35b634e487b7160e01b8752601160045286fd5b90601a6064926040519262461bcd60e51b8452600484015282015279125b98dbdc9c9958dd08189bdbdcdd0819995948185b5bdd5b9d60321b6044820152fd5b50634e487b7160e01b8452602160045283fd5b6104e490615037565b6104ee8154615e41565b9055386103c0565b50858752600d8352604087205442106103bb565b634e487b7160e01b875260216004528387fd5b50600f6064926040519262461bcd60e51b845260048401528201526e109bdbdcdd081d1a595c88199d5b1b608a1b6044820152fd5b6002840361056157600561038a565b5060006003840361057357600561038a565b50600c6064926040519262461bcd60e51b845260048401528201526b24b73b30b634b2103a34b2b960a11b6044820152fd5b60156064926040519262461bcd60e51b8452600484015282015274115d995b9d08185b1c9958591e481cdd185c9d1959605a1b6044820152fd5b60166064926040519262461bcd60e51b845260048401528201527513db9b1e4818dc99585d1bdc8818d85b88189bdbdcdd60521b6044820152fd5b60649060126040519162461bcd60e51b8352602060048401528201527124b73b30b634b2103137b7b9ba103a34b2b960711b6044820152fd5b8380fd5b80fd5b503461065757604036600319011261065757600435610677614e9e565b9061068560025482106153a8565b808352601860205260408320546001600160a01b0391906106a99083163314615cfa565b8352600e602052604083209116600052602052604060002060ff19815416905580f35b61506c565b615050565b50346106575780600319360112610657576020600254604051908152f35b614eca565b503461065757602036600319011261065757610713614eb4565b61071b61508f565b6001600160a01b03908116908115610756576000548260018060a01b031982161760005516600080516020615f4c833981519152600080a380f35b604051631e4fbdf760e01b815260048101849052602490fd5b50346106575761077e36614f40565b919081526015602052604081209081548310156106575760206107a18484614f56565b905460405160039290921b1c6001600160a01b03168152f35b50346106575780600319360112610657576020600354604051908152f35b503461065757604036600319011261065757602435906004358152600f602052604081209081548310156106575760206108128484614f56565b90546040519160031b1c8152f35b50346106575760203660031901126106575760043590600482101561065757602061084a83615037565b54604051908152f35b503461065757602080600319360112610b16576004356108766003548210615e6a565b8083526012825260408320916005830161089660ff825460101c166159c9565b82855260178252604085203360005282526108b960ff6040600020541615615a03565b82855260178252604085203360005282526040600020600160ff198254161790558493815460ff8160181c16600014610a7657508386526016835260408620336000528352604060002054908115908115610a18575b5050505b8361091c578480f35b54811c60ff16156109ea5760015460405163a9059cbb60e01b81529190819083906001600160a01b03168188816109578a3360048401615800565b03925af19182156109df578592610993575b50610982600080516020615f0c83398151915292615a81565b6040519384523393a3388080808480f35b91508082813d83116109d8575b6109aa8183614d8d565b810103126109d4576109826109cd600080516020615f0c833981519152936150bb565b9250610969565b8480fd5b503d6109a0565b6040513d87823e3d90fd5b600080516020615f0c83398151915290610a138580808088335af1610a0d6157d0565b50615a41565b610982565b9091929550612710918284029084820484141715610a6257816004610a4a610a52936002610a599897960154906152f1565b9101546152de565b049061516c565b9238808061090f565b634e487b7160e01b88526011600452602488fd5b9050838652601483526040862033600052835260406000205480610a9c575b5050610913565b909450610ada612710610ad2610ac36064610abb61ffff8b16876152de565b049485615274565b610acc33615ac2565b906152de565b048092615274565b948115610a9557831c60ff1615610b0257610af79060065461516c565b6006555b3880610a95565b610b0e9060055461516c565b600555610afb565b5080fd5b614f22565b5034610657576040366003190112610657576040610b3b614e9e565b9160043581526014602052209060018060a01b03166000526020526020604060002054604051908152f35b50346106575760603660031901126106575760043560243560018060a01b03807f0000000000000000000000000000000000000000000000000000000000000000163314908115610de9575b5015610db757600390610bc782548410615e6a565b82845260126020526040842091600583019160ff91610bec83855460101c1615615741565b600c8501918254811015610d7857610c048184615e4e565b50908460028093015416610d3657610c3682610c208387615e4e565b5001916001928360ff1982541617905585615e4e565b5083604435910155809389958a938254945b858110610cd2575b5050505050505080610cc4575b610c65578480f35b7f229d1ce99036a89ca341013e342e45bf92c5f3802ab63e6c2e9c718e0ac39882928262010000604094549315159363ff0000008560181b169063ffff00001916171790556009429101558151908152426020820152a2388080808480f35b506007830154421015610c5d565b8282610cde8387615e4e565b5001541615610d215786610cf28286615e4e565b50015485610d008387615e4e565b50015403610d17575b610d1290615399565b610c48565b9397508793610d09565b50505050505050508438808080808080610c50565b60405162461bcd60e51b815260206004820152601a60248201527910dbdb991a5d1a5bdb88185b1c9958591e481c995cdbdb1d995960321b6044820152606490fd5b60405162461bcd60e51b8152602060048201526017602482015276092dcecc2d8d2c840c6dedcc8d2e8d2dedc40d2dcc8caf604b1b6044820152606490fd5b60405162461bcd60e51b815260206004820152600a6024820152694e6f74206f7261636c6560b01b6044820152606490fd5b90507f000000000000000000000000000000000000000000000000000000000000000016331438610bb2565b50346106575780600319360112610657576040517f00000000000000000000000000000000000000000000000000000000000000006001600160a01b03168152602090f35b50346106575780600319360112610657576040517f00000000000000000000000000000000000000000000000000000000000000006001600160a01b03168152602090f35b5034610657576040366003190112610657576040610ebb614e9e565b916004358152601c602052209060018060a01b03166000526020526020604060002054604051908152f35b50610100366003190112610657576004356001600160401b038111610b165736602382011215610b1657806004013590610f1f82615020565b91610f2d6040519384614d8d565b8083526024602084019160071b830101913683116109d457602401905b828210611561575050506024359161ffff831683036106575760a4356001600160401b038111610b1657610f82903690600401614fc2565b9160e43592831515840361155c57815160028110159081611550575b501561151157606461ffff86161180611501575b156114c45783156114a957610fd4683635c9adc5dea000006044351015615114565b603c42018042116113d457610fec906064351161518f565b606435608435111561146e578315611460576802b5e3af16b18800005b836110166044358361516c565b861561143f576001546040516323b872dd60e01b81529260209284926001600160a01b0316918391829061104f9030336004850161520f565b03925af19081156109df5785916113fc575b509061106f61107792615231565b60065461516c565b6006555b61ffff606486821604811660001901116113e8576110aa61ffff600019816064818a16041601166044356152f1565b93606435603b198101116113d457600380548552601260209081526040862080546001600160a01b03191633178155604435600182018190556002820155918201969096556004810185905560058101805464ffffffffff191661ffff89161792151590961b60ff60201b1691909117909455606435600685018190556084356007860155603b19016008850155600984018390558051906001600160401b0382116113c057819061115f600a870154614d1c565b601f811161136f575b50602090601f83116001146112fd5785926112f2575b50508160011b916000199060031b1c191617600a8401559291925b60c435600b850155600c829401935b8151811015611247576111bb818361581b565b518554600160401b811015611233578060016111da9201885587615e4e565b91909161121f5790600360608361121a959451845560208101516001850155600284016040820151151560ff801983541691161790550151910155615399565b6111a8565b634e487b7160e01b85526004859052602485fd5b634e487b7160e01b85526041600452602485fd5b506112ec919260035484526015602052611264336040862061533a565b60035484526016602052604084203360005260205260443560406000205561ffff600354925191604051928352166020820152817f9fd48ac66783aaba800ed3f46853bc3ada5277bd5db71378441d817c74bafa8c60403393a3806040518481526044356020820152426040820152600080516020615ecc83398151915260603392a3615399565b60035580f35b01519050388061117e565b9250600a86018552602085209085935b601f1984168510611354576001945083601f1981161061133b575b505050811b01600a840155929192611199565b015160001960f88460031b161c19169055388080611328565b8181015183556020948501946001909301929091019061130d565b909150600a8601855260208520601f840160051c8101602085106113b9575b90849392915b601f830160051c820181106113aa575050611168565b60008155859450600101611394565b508061138e565b634e487b7160e01b84526041600452602484fd5b634e487b7160e01b84526011600452602484fd5b634e487b7160e01b83526011600452602483fd5b90506020813d602011611437575b8161141760209383614d8d565b810103126109d4579061106f61142f611077936150bb565b919250611061565b3d915061140a565b6114589291506114509034146151cc565b60055461516c565b60055561107b565b670de0b6b3a7640000611009565b60405162461bcd60e51b8152602060048201526013602482015272496e76616c6964206576656e742074696d657360681b6044820152606490fd5b6114bf674563918244f4000060443510156150c8565b610fd4565b60405162461bcd60e51b8152602060048201526015602482015274496e76616c696420636f6d62696e6564206f64647360581b6044820152606490fd5b5061c35061ffff86161115610fb2565b60405162461bcd60e51b81526020600482015260176024820152760c8b4d0818dbdb991a5d1a5bdb9cc81c995c5d5a5c9959604a1b6044820152606490fd5b60049150111538610f9e565b600080fd5b60809081833603126115db576040519182016001600160401b038111838210176115c5576040528235825260208301356020830152604083013590811515820361155c57826020926040608095015260608086013590820152815201910190610f4a565b634e487b7160e01b600052604160045260246000fd5b8580fd5b50346106575760403660031901126106575760406115fb614e9e565b916004358152601a602052209060018060a01b03166000526020526020604060002054604051908152f35b5034610657576020366003190112610657576004358152601860205260409020805490600181015460a052600281015460c052600381015460048201546005830154600684015460078501546008860154600987015491600a88015493600b89015495600c8a015497600d8b0161169c90614db0565b996116a9600e8d01614db0565b9b600f81015460ff16608052601001549c6040518060e052600160a01b60019003821690528060a01c61ffff1660e051602001528060b01c60ff16151560e051604001528060b81c60ff16151560e051606001528060c01c60ff16151560e051608001528060c81c60ff16151560e05160a001528060d01c60ff16151560e05160c0015260e05160e0019060d81c60ff169061174491615009565b60a05160e051610100015260c05160e051610120015260e051610140015260e051610160015260e051610180015260e0516101a0015260e0516101c0015260e0516101e0015260e051610200015260e051610220015260e051610240015260e05161026001526103008060e051610280015260e051016117c391614e79565b60e051808203906102a001526117d891614e79565b906080516117e590615016565b60805160e0516102c0015260e0516102e0015260e05180910390f35b50346106575780600319360112610657576020604051603c8152f35b503461065757602080600319360112610b1657600435906001600160401b03908183116106535736602384011215610653578260040135918211610653576024926005368585831b840101116115db57855b84811061187a578680f35b8581831b8401013560025481101561196557808852600c80865260ff60408a20541690600d9081885260408b2054600484101561195257928b9289926118d79796958315159081611947575b506118dc575b505050505050615399565b61186f565b857f3b39599a0e569d32e7c39669f521b7704a4abb9e4ec2a4d9826f205270f6c3029552835260408d2060ff198154169055848d5282528b604081205561192281615037565b61192c8154615e41565b905561193b6040518092614f84565ba23888868280806118cc565b9050421015386118c6565b634e487b7160e01b8c5260216004528a8cfd5b506118d790615399565b50346106575761197e36614f40565b919081526013602052604081209081548310156106575760206107a18484614f56565b50346106575760203660031901126106575760206119c56119c0614eb4565b615ac2565b604051908152f35b5034610657576040366003190112610657576119e7614eb4565b6001600160a01b03168152601060205260408120805460243592908310156106575760206108128484614f56565b503461065757606036600319011261065757611a4e611a42611a35614eb4565b6044359060243590615c7e565b60405191829182614ee7565b0390f35b5034610657576040366003190112610657576040611a6e614e9e565b9160043581526016602052209060018060a01b03166000526020526020604060002054604051908152f35b5034610657576040366003190112610657576040611ab5614e9e565b916004358152600e602052209060018060a01b0316600052602052602060ff604060002054166040519015158152f35b50611aef36614f40565b90611afd60025482106153a8565b80835260206018815260408420805490611b1d60ff8360b01c161561552a565b670de0b6b3a76400008510611ec4576969e10de76676d08000008511611e8957611b4c600a82015442106155a5565b60028101918254861910611e4b57848752601c84526040872033600052845260406000205415611dfb575b60c01c60ff16611dd4575b838652601c83526040862033600052835260406000205415611dbb575b838652601c8352604086203360005283526040600020611bc086825461516c565b9055611bcd85835461516c565b809255838652601c8352604086203360005283526040600020546040519086825284820152847f35117e5a4bc40b77c8c3d0fdfbce90f80e07c5cc7718d0f666c727a84c012aad60403393a360048101549184600080516020615f6c8339815191526040611c3b848761516c565b838b5260198852611c57828c2054601b8a52838d20549061516c565b825191825288820152a2600182015492838115918215611db1575b5050611da9575b5080549161ffff8360a01c1690611c9360648310156155e8565b6063198201918211610a6257611caa821515615281565b606481029080820460641490151715610a6257611ccd60ff9493926003926152f1565b91015560c81c1615611d89576001546040516323b872dd60e01b81529190819083906001600160a01b0316818881611d0a8a30336004850161520f565b03925af19182156109df578592611d41575b50611d35600080516020615eec83398151915292615231565b6040519384523393a380f35b91508082813d8311611d82575b611d588183614d8d565b810103126109d457611d35611d7b600080516020615eec833981519152936150bb565b9250611d1c565b503d611d4e565b600080516020615eec83398151915290611da48434146151cc565b611d35565b915038611c79565b1190508338611c72565b838652601b8352611dcf336040882061533a565b611b9f565b838652600e835260408620336000528352611df660ff604060002054166156af565b611b82565b848752601b84526064604088205410611b775760405162461bcd60e51b8152600481018590526015602482015274546f6f206d616e79204c502070726f76696465727360581b6044820152606490fd5b60405162461bcd60e51b815260048101859052601660248201527543726561746f72207374616b65206f766572666c6f7760501b6044820152606490fd5b60405162461bcd60e51b81526004810184905260136024820152724c697175696469747920746f6f206c6172676560681b6044820152606490fd5b60405162461bcd60e51b81526004810184905260176024820152764c69717569646974792062656c6f77206d696e696d756d60481b6044820152606490fd5b503461065757602080600319360112610b1657611f1e614eb4565b906001600160a01b037f000000000000000000000000000000000000000000000000000000000000000081811692913384900361228157600554946006549486159384918215908161217c575b5087159687159283612047575b50509161203f575b50611f89578680f35b1691601e8402938404601e14171561202b57601e8402938404601e1417156113d457908184923b156120275760649183604492846040519788968795633d6bcfaf60e11b87520460048601520460248401525af1801561201c57611ff1575b80808080808680f35b6001600160401b0381116120085760405238611fe8565b634e487b7160e01b82526041600452602482fd5b6040513d84823e3d90fd5b8280fd5b634e487b7160e01b85526011600452602485fd5b905038611f80565b909350601e8902898104601e148917156121685760648c91048160065581866120978d612079858d6001541692615274565b60405196878094819363a9059cbb60e01b9b8c845260048401615800565b03925af192831561215b578793612122575b506120c99389600154169160405180968195829483528c60048401615800565b03925af193841561211757879415611f785790809450813d8311612110575b6120f28183614d8d565b8101031261210c5761210486936150bb565b503880611f78565b8980fd5b503d6120e8565b6040513d8d823e3d90fd5b9283813d8311612154575b6121378183614d8d565b81010312610657576120c99361214d88946150bb565b50936120a9565b503d61212d565b50604051903d90823e3d90fd5b634e487b7160e01b8c52601160045260248cfd5b90919250601e8902898104601e1487171561226d578a80808c946121a96064839604809784600555615274565b905af16121b46157d0565b501561221e5789808080938888165af16121cc6157d0565b50156121db5790849138611f6b565b60405162461bcd60e51b815260048101879052601b60248201527a1353d3881cdd185ada5b99c81d1c985b9cd9995c8819985a5b1959602a1b6044820152606490fd5b60405162461bcd60e51b815260048101889052602160248201527f4d4f4e2066656520636f6c6c6563746f72207472616e73666572206661696c656044820152601960fa1b6064820152608490fd5b634e487b7160e01b8b52601160045260248bfd5b60405162461bcd60e51b815260048101849052601260248201527127b7363c903332b29031b7b63632b1ba37b960711b6044820152606490fd5b50346106575780600319360112610657576020600654604051908152f35b5034610657578060031936011261065757546040516001600160a01b039091168152602090f35b50346106575760203660031901126106575760406020916004358152601183522054604051908152f35b506101a03660031901126106575760a4356001600160401b038111610b1657612357903690600401614fc2565b60c4356001600160401b03811161202757612376903690600401614fc2565b90600860e4351015612027576101043580151581036106535761014435151561014435036106535760026101643510156106535760646024351180612ed4575b15612e79576004546001600160a01b031680612cd1575b506101443515612cb6576123ee683635c9adc5dea000006044351015615114565b69d3c21bcecceda100000060443511612c7f57426064351115612c40576064356084351115612bfb57603c420180421161202b5761242f906064351161518f565b6301e13380420180421161202b576064351015612bc6576101443515612bb757836802b5e3af16b18800005b6124676044358261516c565b6101443515612b9f576001546040516323b872dd60e01b81529360209285926001600160a01b031691839182906124a39030336004850161520f565b03925af1918215612b94578692612b54575b5061106f6124c292615231565b6006555b6024356063198101116113d4576124e4602435606319011515615281565b606460443502604435810460641460443515171561202b5761250d9060243560631901906152f1565b606435603b1981011161202b5762015180608435016084351161202b576040519161253783614d56565b33835261ffff6024351660208401528560408401528560608401521515608083015261014435151560a08301528460c083015261257a6101643560e08401615311565b60443561010083015260443561012083015261014082015283610160820152600435610180820152836101a0820152610184356101c08201526064356101e0820152608435610200820152603b196064350161022082015283610240820152620151806084350161026082015281610280820152826102a082015261260060e435615016565b60e4356102c0820152610124356102e082015260025484526018602052604084209060018060a01b0381511682549061ffff60a01b602084015160a01b169060ff60b01b6040850151151560b01b169260018060b81b031916171717825561266e606082015115158361531d565b60808101511515825460ff60c81b60a0840151151560c81b1660ff60d01b60c0850151151560d01b169160e08501516002811015612b405763ffffffff60c01b1990911660c09490941b60ff60c01b1693909317171760d89190911b60ff60d81b16178255610100810151600183015561012081015160028301556101408101516003830155610160810151600483015561018081015160058301556101a081015160068301556101c081015160078301556101e081015160088301556102008101516009830155610220810151600a830155610240810151600b830155610260810151600c8301556102808101518051906001600160401b038211612a6257819061277d600d860154614d1c565b601f8111612af0575b50602090601f8311600114612a81578892612a76575b50508160011b916000199060031b1c191617600d8301555b6102a08101518051906001600160401b038211612a62576127d8600e850154614d1c565b601f8111612a1e575b50602090601f83116001146129ab579180601094926102e0948a926129a0575b50508160011b916000199060031b1c191617600e8501555b600f84016102c082015161282c81615016565b61283581615016565b60ff8019835416911617905501519101556002548352601b60205261285d336040852061533a565b6002548352601c602052604083203384526020526044356040842055815160208301208352600f602052612897604084206002549061535d565b33835260106020526128af604084206002549061535d565b3383526010602052604083205460001981019081116113d457916129839161299a936002548652601160205260408620557f0969c5071aabc67e302a63a5cbdf2d1fab657f3743f459fa914094ae7604c0ee600254938492836040518981526044356020820152426040820152600080516020615ecc83398151915260603392a3612992604051928392606435845260843560208501526129566040850161016435615009565b61018435606085015261296a60e435615016565b60e435608085015260e060a085015260e0840190614e79565b82810360c08401523396614e79565b0390a3615399565b60025580f35b015190503880612801565b90600e850188526020882091885b601f1985168110612a06575092601094926001926102e09583601f198116106129ed575b505050811b01600e850155612819565b015160001960f88460031b161c191690553880806129dd565b919260206001819286850151815501940192016129b9565b600e8501885260208820601f840160051c810160208510612a5b575b601f830160051c82018110612a505750506127e1565b898155600101612a3a565b5080612a3a565b634e487b7160e01b87526041600452602487fd5b01519050388061279c565b9250600d85018852602088209088935b601f1984168510612ad5576001945083601f19811610612abc575b505050811b01600d8301556127b4565b015160001960f88460031b161c19169055388080612aac565b81810151835560209485019460019093019290910190612a91565b909150600d8501885260208820601f840160051c810160208510612b39575b90849392915b601f830160051c82018110612b2b575050612786565b8a8155859450600101612b15565b5080612b0f565b634e487b7160e01b8a52602160045260248afd5b91506020823d8211612b8c575b81612b6e60209383614d8d565b810103126115db5761106f612b856124c2936150bb565b92506124b5565b3d9150612b61565b6040513d88823e3d90fd5b612baf92506114509034146151cc565b6005556124c6565b83670de0b6b3a764000061245b565b60405162461bcd60e51b815260206004820152600d60248201526c22bb32b73a103a37b7903330b960991b6044820152606490fd5b60405162461bcd60e51b815260206004820152601d60248201527f4576656e7420656e64206d7573742062652061667465722073746172740000006044820152606490fd5b60405162461bcd60e51b81526020600482015260176024820152764576656e74206d75737420626520696e2066757475726560481b6044820152606490fd5b60405162461bcd60e51b815260206004820152600f60248201526e5374616b6520746f6f206c6172676560881b6044820152606490fd5b612ccc674563918244f4000060443510156150c8565b6123ee565b602060249160016101643514600014612db2576040516313f31f3960e31b815233600482015292839182905afa9081156109df578591612d79575b5015612d19575b386123cd565b60405162461bcd60e51b815260206004820152603260248201527f496e73756666696369656e742072657075746174696f6e20666f72204f50454e60448201527120706f6f6c7320286e656564203130302b2960701b6064820152608490fd5b90506020813d8211612daa575b81612d9360209383614d8d565b810103126109d457612da4906150bb565b38612d0c565b3d9150612d86565b60405163fbad6cf560e01b815233600482015292839182905afa9081156109df578591612e40575b50612d135760405162461bcd60e51b815260206004820152603360248201527f496e73756666696369656e742072657075746174696f6e20666f722047554944604482015272454420706f6f6c7320286e6565642034302b2960681b6064820152608490fd5b90506020813d8211612e71575b81612e5a60209383614d8d565b810103126109d457612e6b906150bb565b38612dda565b3d9150612e4d565b60405162461bcd60e51b815260206004820152602d60248201527f496e76616c6964206f6464733a206d757374206265206265747765656e20312e60448201526c0303120616e64203130302e303609c1b6064820152608490fd5b5061271060243511156123b6565b503461065757806003193601126106575760206040516802b5e3af16b18800008152f35b5034610657578060031936011261065757612f1f61508f565b80546001600160a01b03198116825581906001600160a01b0316600080516020615f4c8339815191528280a380f35b50346106575760403660031901126106575760ff6040602092612f6f614e9e565b6004358252601785528282206001600160a01b03909116825284522054604051911615158152f35b50346106575780600319360112610657576004546040516001600160a01b039091168152602090f35b5034610657578060031936011261065757602060405160648152f35b503461065757612feb36614f40565b91908152601b602052604081209081548310156106575760206107a18484614f56565b5061301836614f40565b906130266003548210615e6a565b80835260206012815260ff60408520600581019061304a83835460101c161561552a565b61305e670de0b6b3a7640000871015615565565b61306d600882015442106155a5565b600b600482019161308e61308289855461516c565b60038301541015615633565b0154806131d9575b50848752601484526040872033885284526040872054156131a8575b84875260148452604087203388528452604087206130d187825461516c565b90556130de86825461516c565b905554821c161561318d576001546040516323b872dd60e01b81529190819083906001600160a01b031681888161311a8a30336004850161520f565b03925af19182156109df578592613145575b50611d35600080516020615f8c83398151915292615231565b91508082813d8311613186575b61315c8183614d8d565b810103126109d457611d3561317f600080516020615f8c833981519152936150bb565b925061312c565b503d613152565b600080516020615f8c83398151915290611da48434146151cc565b848752601384526131c06101f460408920541061566b565b848752601384526131d4336040892061533a565b6130b2565b613202908689526014865260408920338a5286526131fb8860408b205461516c565b11156156fa565b38613096565b50346106575780600319360112610657576020604051674563918244f400008152f35b50346106575780600319360112610657576020604051683635c9adc5dea000008152f35b5061325936614f40565b9061326760025482106153a8565b8083526020601881526040842061327d816153e3565b9061328c60408301511561552a565b6132a0670de0b6b3a7640000861015615565565b69152d02c7e14af680000085116136e1576132c161022083015142106155a5565b6101008201908151916101608401908151908882159283156136cb575b5050506136be575b61ffff85850151166064936132fd858310156155e8565b60631982019182116136aa57613314821515615281565b848102908082048614901517156136aa579061332f916152f1565b906133468261333f8a845161516c565b1115615633565b805188191061367557876133b391888b52601a885260408b20338c5288526133988260408d20548d811580613658575b60808c0151613633575b6102e08c018051613616575b506135fb575b5061516c565b898c52601a895260408c20338d52895260408c20555161516c565b928360048401558160038401558084029084820414841517156135e757916133e060a095949288946152f1565b90838a52601a875260408a20338b52875260408a2054604051908a825288820152847f4fffa97aea18b7b0938a33064b3754e560623c34d66cc3e22c42917a4dd4a06460403393a383600080516020615f6c83398151915260408c6134678b8361344f6101208d01518b61516c565b9387815260198352601b82822054935220549061516c565b82519182528b820152a2805460ff8160d01c1615806135dc575b613563575b50505050910151159050613550576001546040516323b872dd60e01b81529190819083906001600160a01b03168188816134c58a30336004850161520f565b03925af19182156109df578592613515575b506134e3600192615231565b6040519384528301527fb1bd10cf5ea9540f12b9b182707734fd82deacc56830e2bd316133deb372bff460403393a380f35b91508082813d8311613549575b61352c8183614d8d565b810103126109d4576134e36135426001936150bb565b92506134d7565b503d613522565b60019061355e8434146151cc565b6134e3565b60ff60d01b1916600160d01b17905560408051918252428783015283917fe300e0e86f3ae67ce6f7cd1eed45a59457dbbf67c83b0785fd604f15c348239b9190a2600080516020615ecc8339815191526060600180871b0385511692604051906001825288820152426040820152a38338808080613486565b50603c831015613481565b634e487b7160e01b89526011600452602489fd5b808d613610925260198d52604033912061533a565b8d613392565b61362d90613624868661516c565b905110156156fa565b3861338c565b8d8252600e8d52604082203383528d5261365360ff6040842054166156af565b613380565b8d825260198d526136706101f460408420541061566b565b613376565b60405162461bcd60e51b815260048101879052600e60248201526d5374616b65206f766572666c6f7760901b60448201528490fd5b634e487b7160e01b8a52601160045260248afd5b61012084015192506132e6565b6136d692935061516c565b9051103888816132de565b60405162461bcd60e51b815260048101849052600d60248201526c42657420746f6f206c6172676560981b6044820152606490fd5b50346106575760203660031901126106575760ff60406020926004358152600c84522054166137486040518092614f84565bf35b50346106575780600319360112610657576020600554604051908152f35b50346106575761377736614f40565b919081526019602052604081209081548310156106575760206107a18484614f56565b50346106575760203660031901126106575760406020916004358152600d83522054604051908152f35b5034610657576020366003190112610657576004356004811015610b165760209060070154604051908152f35b503461065757602080600319360112610b165760043561381460025482106153a8565b80835260188252613827604084206153e3565b91613837604084015115156159c9565b818452601d815260408420338552815261385860ff60408620541615615a03565b818452601d8152604080852033865282528420805460ff1916600117905560608301518493901561393c57828552601c82526040852033865282526040852054801580156138e6575b50505b836138ad578480f35b60a00151156109ea5760015460405163a9059cbb60e01b81529190819083906001600160a01b03168188816109578a3360048401615800565b909194506127109081830290838204831417156139285790610a526139156139209493610120890151906152f1565b6101608801516152de565b9238806138a1565b634e487b7160e01b87526011600452602487fd5b828552601a825260408520338652825260408520548061395d575b506138a4565b935082606461397361ffff8585015116876152de565b0494613990612710613988610ac3848a615274565b048097615274565b95806139f9575b5060a0830151156139e857686c6b935b8bbd4000008110155b6139bb575b50613957565b604051906003825284820152426040820152600080516020615ecc83398151915260603392a382386139b5565b678ac7230489e800008110156139b0565b60a084015115613a1957613a0f9060065461516c565b6006555b38613997565b613a259060055461516c565b600555613a13565b503461065757602036600319011261065757613a47614eb4565b613a4f61508f565b600480546001600160a01b0319166001600160a01b039290921691909117905580f35b503461065757604036600319011261065757600435613a8f614e9e565b90613a9d60025482106153a8565b808352601860205260408320546001600160a01b0390613ac09082163314615cfa565b818452600e6020526040842092169182845260205260408320600160ff198254161790557fef35c6815799b054cdc749d1f5bb07547c285ef9d7559c6e839da576f42b49098380a380f35b503461065757606036600319011261065757611a4e611a42604435602435600435615bd5565b503461065757604036600319011261065757600435602435613b5660025483106153a8565b818352601860205260408320908154613b7560ff8260b01c16156158b6565b613b8560098401544210156158f4565b60ff8160d81c166002811015613d7f5780613c9b57507f00000000000000000000000000000000000000000000000000000000000000006001600160a01b03163303613c4357600080516020615eac8339815191529260ff915b836006830155600160b01b908360b01b1916178155613c0560058201548414158261531d565b42600b820155613c1485615d34565b5460b81c16613c3d60405192839242918460409194939260608201958252151560208201520152565b0390a280f35b60405162461bcd60e51b815260206004820152602a60248201527f4f6e6c7920677569646564206f7261636c652063616e20736574746c652067756044820152696964656420706f6f6c7360b01b6064820152608490fd5b600103613d44577f00000000000000000000000000000000000000000000000000000000000000006001600160a01b03163303613cea57600080516020615eac8339815191529260ff91613bdf565b60405162461bcd60e51b815260206004820152602c60248201527f4f6e6c79206f7074696d6973746963206f7261636c652063616e20736574746c60448201526b65206f70656e20706f6f6c7360a01b6064820152608490fd5b60405162461bcd60e51b8152602060048201526013602482015272496e76616c6964206f7261636c65207479706560681b6044820152606490fd5b634e487b7160e01b86526021600452602486fd5b50346106575780600319360112610657576040517f00000000000000000000000000000000000000000000000000000000000000006001600160a01b03168152602090f35b503461065757602090816003193601126106575760043590613dfd60025483106153a8565b81815260188352604081208054926001600160a01b0380851633036140445760ff94613e2e868260b01c1615615741565b613e3c600485015415615784565b600a8401544211156140045760ff60b01b1916600160b01b178355818452601b86526040808520905181548082529186528786209096918790818a0190885b8b828210613fec57505050613e9292500387614d8d565b845b8651811015613fa65782613ea8828961581b565b511690848752601c895260408720828852895288604088205480613ed8575b5050613ed39150615399565b613e94565b8885895460c81c16600014613f845750613f1092938660015416908a60405180968195829463a9059cbb60e01b845260048401615800565b03925af1908115613f79578791613f37575b5090613f30613ed392615872565b8838613ec7565b90508881813d8311613f72575b613f4e8183614d8d565b81010312613f6e5790613f30613f66613ed3936150bb565b919250613f22565b8680fd5b503d613f44565b6040513d89823e3d90fd5b613fa1925080808093613ed3975af1613f9b6157d0565b5061582f565b613f30565b8584600080516020615f2c83398151915260608b613fc384615d34565b6010604051918083528201526f139bc818995d1cc81c9958d95a5d995960821b6040820152a280f35b8554881684526001958601958c955093019201613e7b565b60405162461bcd60e51b815260048101889052601860248201527710995d1d1a5b99c81c195c9a5bd9081b9bdd08195b99195960421b6044820152606490fd5b60405162461bcd60e51b81526004810187905260196024820152784f6e6c792063726561746f722063616e20776974686472617760381b6044820152606490fd5b503461065757602080600319360112610b1657600435906140a960025483106153a8565b818352601881526040832080546140c660ff8260b01c16156158b6565b6140d660098301544210156158f4565b60ff8160d81c166002811015613d7f578061423c57506007820154604051632e8d1dc160e11b8152600481019190915285816024817f00000000000000000000000000000000000000000000000000000000000000006001600160a01b03165afa908115612b945786908792614217575b50156141d457614156906159a6565b9260015b1561419c57506006820183905560ff60b01b1916600160b01b1781556005810154600080516020615eac833981519152929160ff91613c05908414158261531d565b6064906040519062461bcd60e51b8252600482015260116024820152704f7574636f6d65206e6f7420726561647960781b6044820152fd5b6064846040519062461bcd60e51b825280600483015260248201527f477569646564206f7574636f6d65206e6f7420617661696c61626c65207965746044820152fd5b905061423591503d8088833e61422d8183614d8d565b810190615936565b9038614147565b600103613d44576007820154604051632e8d1dc160e11b8152600481019190915285816024817f00000000000000000000000000000000000000000000000000000000000000006001600160a01b03165afa908115612b945786908792614306575b50156142b5576142ad906159a6565b92600161415a565b60405162461bcd60e51b8152600481018590526024808201527f4f7074696d6973746963206f7574636f6d65206e6f742066696e616c697a6564604482015263081e595d60e21b6064820152608490fd5b905061431c91503d8088833e61422d8183614d8d565b903861429e565b50346106575760403660031901126106575760ff6040602092614344614e9e565b6004358252601d85528282206001600160a01b03909116825284522054604051911615158152f35b50346106575760203660031901126106575760406020916004358152601283522060018060a01b0381541690614456600182015491600281015460038201546004830154600584015460ff600686015491600787015493600888015495600989015497600b6143dd600a8c01614db0565b9a01549b6040519e8f9e8f908152015260408d015260608c015260808b015261ffff811660a08b0152818160101c16151560c08b0152818160181c16151560e08b015260201c1615156101008901526101208801526101408701526101608601526101808501526101e0806101a0860152840190614e79565b906101c08301520390f35b50346106575760209081600319360112610657576004359061448660025483106153a8565b8181526018918284526040822090815460ff906144a8828260b01c16156158b6565b600c8401544211156148515760ff60b01b1916600160b01b178355818452601b865260408085209051815480825291865287862090918290818a0190885b8b828210614832575050506144fd92500382614d8d565b845b8151811015614608576001600160a01b0390888261451d838661581b565b5116868952601c825260408920818a5282526040892054908161454d575b5050506145489150615399565b6144ff565b89878a5460c81c166000146145ea5750614584939460015416908a60405180968195829463a9059cbb60e01b845260048401615800565b03925af1908115613f795787916145ac575b50906145a461454892615872565b88388061453b565b90508881813d83116145e3575b6145c38183614d8d565b81010312613f6e57906145a46145db614548936150bb565b919250614596565b503d6145b9565b6145489550614603935080809381935af1613f9b6157d0565b6145a4565b8288888689898282526019928386526040832096604051808989829b54938481520190875289872092875b8b8282106148135750505061464a92500389614d8d565b835b88518110156147ca5784886001600160a01b038061466a858e61581b565b5116868452601a83526040842081855283526040842054918261469b575b505050505061469690615399565b61464c565b885460c81c87161561476b576146ce945060015416908960405180968195829463a9059cbb60e01b845260048401615800565b03925af1908115612b94578691614736575b50156146f757614696905b905084888b8080614688565b606488876040519162461bcd60e51b83526004830152602482015278109255148818995d1d1bdc881c99599d5b990819985a5b1959603a1b6044820152fd5b90508881813d8311614764575b61474d8183614d8d565b810103126115db5761475e906150bb565b8a6146e0565b503d614743565b50839250829182915af161477d6157d0565b501561478c57614696906146eb565b606488886040519162461bcd60e51b835260048301526024820152771353d38818995d1d1bdc881c99599d5b990819985a5b195960421b6044820152fd5b8483600080516020615f2c83398151915260608b6147e784615d34565b60136040519180835282015272105c989a5d1c985d1a5bdb881d1a5b595bdd5d606a1b6040820152a280f35b85546001600160a01b031684526001958601958e955093019201614633565b85546001600160a01b03168452600195860195879550930192016144e6565b60405162461bcd60e51b815260048101889052601e60248201527f4172626974726174696f6e20706572696f64206e6f74206578706972656400006044820152606490fd5b5034610657576020908160031936011261065757600435916148bb60025484106153a8565b8282526018815260408220928354936148da60ff8660b01c1615615741565b6001600160a01b039485163314614cb457818452601c8352604084203385528352604084205415614c775760088101544210614c3a576004810194614920865415615784565b828552601c8452604085203386528452604085205491838652601c8552604086203387528552856040812055600281019061495c848354615274565b8092556001918282015480995411614c32575b5061ffff815460a01c166064811015614bdb575b50869750918694959693918793878652601b8552604086208287905b614ae5575b50505460c81c60ff1615614a8e576149d893945054169060405194858094819363a9059cbb60e01b83523360048401615800565b03925af1908115614a83578491614a4e575b5015614a0d575b600080516020615eec833981519152604051928484523393a380f35b60405162461bcd60e51b815260048101839052601960248201527810925514881314081dda5d1a191c985dd85b0819985a5b1959603a1b6044820152606490fd5b90508281813d8311614a7c575b614a658183614d8d565b8101031261065357614a76906150bb565b386149ea565b503d614a5b565b6040513d86823e3d90fd5b50508291508190335af1614aa06157d0565b506149f15760405162461bcd60e51b81526004810183905260186024820152771353d3881314081dda5d1a191c985dd85b0819985a5b195960421b6044820152606490fd5b91939550809294965054878a82841015614bcf575050614b058284614f56565b905460039291831b1c87163314614b3057505090614b238492615399565b908995939188979561499f565b9190939495969750600019918281019081116121685790614b6688614b58614b859487614f56565b905490881b1c169185614f56565b90919082549060031b9160018060a01b03809116831b921b1916179055565b81548015614bbb579386938a96938c99969860ff948b9a0192614ba88484614f56565b81939154921b1b191690555590386149a4565b634e487b7160e01b8b52603160045260248bfd5b969492509694926149a4565b6063198101908111610a625787988198969798614bfd575b5096959496614983565b909192939495506064810290808204606414901517156135e757889594939291614c26916152f1565b60038201553880614bf3565b97503861496f565b60405162461bcd60e51b8152600481018490526015602482015274115d995b9d081b9bdd081cdd185c9d1959081e595d605a1b6044820152606490fd5b60405162461bcd60e51b8152600481018490526015602482015274139bc81b1a5c5d5a591a5d1e481c1c9bdd9a591959605a1b6044820152606490fd5b6064836040519062461bcd60e51b825280600483015260248201527f43726561746f722063616e6e6f742075736520746869732066756e6374696f6e6044820152fd5b905034610b165781600319360112610b16576001546001600160a01b03168152602090f35b90600182811c92168015614d4c575b6020831014614d3657565b634e487b7160e01b600052602260045260246000fd5b91607f1691614d2b565b61030081019081106001600160401b038211176115c557604052565b602081019081106001600160401b038211176115c557604052565b601f909101601f19168101906001600160401b038211908210176115c557604052565b9060405191826000825492614dc484614d1c565b908184526001948581169081600014614e335750600114614df0575b5050614dee92500383614d8d565b565b9093915060005260209081600020936000915b818310614e1b575050614dee93508201013880614de0565b85548884018501529485019487945091830191614e03565b915050614dee94506020925060ff191682840152151560051b8201013880614de0565b60005b838110614e695750506000910152565b8181015183820152602001614e59565b90602091614e9281518092818552858086019101614e56565b601f01601f1916010190565b602435906001600160a01b038216820361155c57565b600435906001600160a01b038216820361155c57565b3461155c57600036600319011261155c5760206040516101f48152f35b6020908160408183019282815285518094520193019160005b828110614f0e575050505090565b835185529381019392810192600101614f00565b3461155c57600036600319011261155c576020604051620151808152f35b604090600319011261155c576004359060243590565b8054821015614f6e5760005260206000200190600090565b634e487b7160e01b600052603260045260246000fd5b906004821015614f915752565b634e487b7160e01b600052602160045260246000fd5b6001600160401b0381116115c557601f01601f191660200190565b81601f8201121561155c57803590614fd982614fa7565b92614fe76040519485614d8d565b8284526020838301011161155c57816000926020809301838601378301015290565b906002821015614f915752565b60081115614f9157565b6001600160401b0381116115c55760051b60200190565b6004811015614f9157600052600b602052604060002090565b3461155c57600036600319011261155c57602060405160058152f35b3461155c57600036600319011261155c576020604051670de0b6b3a76400008152f35b6000546001600160a01b031633036150a357565b60405163118cdaa760e01b8152336004820152602490fd5b5190811515820361155c57565b156150cf57565b60405162461bcd60e51b815260206004820152601f60248201527f4d4f4e207374616b652062656c6f77206d696e696d756d202835204d4f4e29006044820152606490fd5b1561511b57565b60405162461bcd60e51b8152602060048201526024808201527f42495452207374616b652062656c6f77206d696e696d756d20283130303020426044820152634954522960e01b6064820152608490fd5b9190820180921161517957565b634e487b7160e01b600052601160045260246000fd5b1561519657565b60405162461bcd60e51b815260206004820152600e60248201526d22bb32b73a103a37b79039b7b7b760911b6044820152606490fd5b156151d357565b60405162461bcd60e51b8152602060048201526014602482015273125b98dbdc9c9958dd081353d388185b5bdd5b9d60621b6044820152606490fd5b6001600160a01b03918216815291166020820152604081019190915260600190565b1561523857565b60405162461bcd60e51b815260206004820152601460248201527310925514881d1c985b9cd9995c8819985a5b195960621b6044820152606490fd5b9190820391821161517957565b1561528857565b60405162461bcd60e51b815260206004820152602860248201527f496e76616c6964206f6464733a206d75737420626520677265617465722074686044820152670c2dc40625c6060f60c31b6064820152608490fd5b8181029291811591840414171561517957565b81156152fb570490565b634e487b7160e01b600052601260045260246000fd5b6002821015614f915752565b805460ff60b81b191691151560b81b60ff60b81b16919091179055565b80549190600160401b8310156115c55782614b66916001614dee95018155614f56565b80549190600160401b8310156115c55782615380916001614dee95018155614f56565b90919082549060031b91821b91600019901b1916179055565b60001981146151795760010190565b156153af57565b60405162461bcd60e51b815260206004820152600c60248201526b125b9d985b1a59081c1bdbdb60a21b6044820152606490fd5b906040516153f081614d56565b6102e060108294805460018060a01b038116855261ffff8160a01c16602086015261546660ff8281809460b01c1615156040890152818160b81c1615156060890152818160c01c1615156080890152818160c81c16151560a0890152818160d01c16151560c089015260d81c1660e08701615311565b6001820154610100860152600282015461012086015260038201546101408601526004820154610160860152600582015461018086015260068201546101a086015260078201546101c086015260088201546101e08601526009820154610200860152600a820154610220860152600b820154610240860152600c8201546102608601526154f6600d8301614db0565b610280860152615508600e8301614db0565b6102a0860152600f8201541661551d81615016565b6102c08501520154910152565b1561553157565b60405162461bcd60e51b815260206004820152600c60248201526b141bdbdb081cd95d1d1b195960a21b6044820152606490fd5b1561556c57565b60405162461bcd60e51b81526020600482015260116024820152704265742062656c6f77206d696e696d756d60781b6044820152606490fd5b156155ac57565b60405162461bcd60e51b815260206004820152601460248201527310995d1d1a5b99c81c195c9a5bd908195b99195960621b6044820152606490fd5b156155ef57565b60405162461bcd60e51b815260206004820152601c60248201527b24b73b30b634b21037b23239903337b91031b0b631bab630ba34b7b760211b6044820152606490fd5b1561563a57565b60405162461bcd60e51b8152602060048201526009602482015268141bdbdb08199d5b1b60ba1b6044820152606490fd5b1561567257565b60405162461bcd60e51b8152602060048201526015602482015274546f6f206d616e79207061727469636970616e747360581b6044820152606490fd5b156156b657565b606460405162461bcd60e51b815260206004820152602060248201527f4e6f742077686974656c697374656420666f72207072697661746520706f6f6c6044820152fd5b1561570157565b60405162461bcd60e51b815260206004820152601860248201527722bc31b2b2b2399036b0bc103132ba103832b9103ab9b2b960411b6044820152606490fd5b1561574857565b60405162461bcd60e51b8152602060048201526014602482015273141bdbdb08185b1c9958591e481cd95d1d1b195960621b6044820152606490fd5b1561578b57565b60405162461bcd60e51b815260206004820152601e60248201527f506f6f6c2068617320626574732c2063616e6e6f7420776974686472617700006044820152606490fd5b3d156157fb573d906157e182614fa7565b916157ef6040519384614d8d565b82523d6000602084013e565b606090565b6001600160a01b039091168152602081019190915260400190565b8051821015614f6e5760209160051b010190565b1561583657565b60405162461bcd60e51b81526020600482015260146024820152731353d3881314081c99599d5b990819985a5b195960621b6044820152606490fd5b1561587957565b60405162461bcd60e51b815260206004820152601560248201527410925514881314081c99599d5b990819985a5b1959605a1b6044820152606490fd5b156158bd57565b60405162461bcd60e51b815260206004820152600f60248201526e105b1c9958591e481cd95d1d1b1959608a1b6044820152606490fd5b156158fb57565b60405162461bcd60e51b8152602060048201526013602482015272115d995b9d081b9bdd08195b991959081e595d606a1b6044820152606490fd5b919060408382031261155c5761594b836150bb565b602084015190936001600160401b03821161155c570181601f8201121561155c57805161597781614fa7565b926159856040519485614d8d565b8184526020828401011161155c576159a39160208085019101614e56565b90565b6020815191015190602081106159ba575090565b6000199060200360031b1b1690565b156159d057565b60405162461bcd60e51b815260206004820152600b60248201526a139bdd081cd95d1d1b195960aa1b6044820152606490fd5b15615a0a57565b60405162461bcd60e51b815260206004820152600f60248201526e105b1c9958591e4818db185a5b5959608a1b6044820152606490fd5b15615a4857565b60405162461bcd60e51b81526020600482015260116024820152701353d3881c185e5bdd5d0819985a5b1959607a1b6044820152606490fd5b15615a8857565b60405162461bcd60e51b815260206004820152601260248201527110925514881c185e5bdd5d0819985a5b195960721b6044820152606490fd5b6001546040516370a0823160e01b81526001600160a01b0392831660048201529160209183916024918391165afa908115615b9757600091615b66575b50690a968163f0a57b400000811015615b605769043c33c1937564800000811015615b595769010f0cf064dd59200000811015615b5257686c6b935b8bbd4000001115615b4c576101f490565b6101c290565b5061019090565b5061015e90565b5060fa90565b906020823d8211615b8f575b81615b7f60209383614d8d565b8101031261065757505138615aff565b3d9150615b72565b6040513d6000823e3d90fd5b90615bad82615020565b615bba6040519182614d8d565b8281528092615bcb601f1991615020565b0190602036910137565b9291906000938452600f6020526040842090815480841015615c63578082615bfe868094615274565b1115615c53575050915b615c1183615ba3565b945b838110615c205750505050565b80615c37615c31615c4e938561516c565b85614f56565b90549060031b1c615c48828961581b565b52615399565b615c13565b615c5d9250615274565b91615c08565b505050509060405190615c7582614d72565b80825236813790565b6001600160a01b03166000908152601060205260408120805491949392909180841015615c63578082615cb2868094615274565b1115615cea575050915b615cc583615ba3565b945b838110615cd45750505050565b80615c37615c31615ce5938561516c565b615cc7565b615cf49250615274565b91615cbc565b15615d0157565b60405162461bcd60e51b815260206004820152600b60248201526a2737ba1031b932b0ba37b960a91b6044820152606490fd5b600090808252601860205260018060a01b036040832054168252601060205260408220818352601160205260408320549080549182811080615e28575b615d7d575b5050505050565b60001992808401908111615e1457808203615de2575b505080548015615dce57820191615daa8383614f56565b909182549160031b1b19169055558152601160205260408120553880808080615d76565b634e487b7160e01b85526031600452602485fd5b615dec9083614f56565b90549060031b1c615e01816153808486614f56565b8552601160205260408520553880615d93565b634e487b7160e01b86526011600452602486fd5b5083615e348284614f56565b90549060031b1c14615d71565b8015615179576000190190565b8054821015614f6e5760005260206000209060021b0190600090565b15615e7157565b60405162461bcd60e51b8152602060048201526012602482015271125b9d985b1a590818dbdb589bc81c1bdbdb60721b6044820152606490fdfe86acb9671870fda5e7ea8aa500f96625102d6f2e5a2ee12d3ca0fb612850fa29d43c77f044c1f8bc6adf6676b4ce17edda35ef8ee63f154568826c0ecb3c6bf3c733c2813826d31c105dbff518b08258e9e7aeb3eb1c7c7f642d77696faf501d24b5efa61dd1cfc659205a97fb8ed868f3cb8c81922bab2b96423e5de1de2cb75d017285e8f2eb1ffcbc2466eaedb487942e395d5f1e312f09e9384b1687bea58be0079c531659141344cd1fd0a4f28419497f9722a3daafe3b4186f6b6457e021d161511e69ca56412b7a48242a4ffe30e5a7b4302114eff054d7277c1a03c2a62ac007af53ff4400791f2f3468865d30bb8700e4624a47647a3d5e6cbcf2e9a2646970667358221220982c0f5ca79a28ec320a5acf0b1a722715bcb803f4e0081b578da856ee00e49264736f6c63430008140033",
  "linkReferences": {},
  "deployedLinkReferences": {}
}