{
  "_format": "hh-sol-artifact-1",
  "contractName": "Oddyssey",
  "sourceName": "contracts/Oddyssey.sol",
  "abi": [
    {
      "inputs": [
        {
          "internalType": "address",
          "name": "_devWallet",
          "type": "address"
        },
        {
          "internalType": "uint256",
          "name": "_initialEntryFee",
          "type": "uint256"
        }
      ],
      "stateMutability": "nonpayable",
      "type": "constructor"
    },
    {
      "inputs": [],
      "name": "BettingClosed",
      "type": "error"
    },
    {
      "inputs": [],
      "name": "BettingNotClosed",
      "type": "error"
    },
    {
      "inputs": [],
      "name": "BettingNotStarted",
      "type": "error"
    },
    {
      "inputs": [],
      "name": "BettingWindowExpired",
      "type": "error"
    },
    {
      "inputs": [],
      "name": "BettingWindowNotReady",
      "type": "error"
    },
    {
      "inputs": [],
      "name": "ClaimingExpired",
      "type": "error"
    },
    {
      "inputs": [],
      "name": "ClaimingNotAvailable",
      "type": "error"
    },
    {
      "inputs": [],
      "name": "ClaimingNotReady",
      "type": "error"
    },
    {
      "inputs": [],
      "name": "CycleAlreadyResolved",
      "type": "error"
    },
    {
      "inputs": [],
      "name": "CycleAlreadyStarted",
      "type": "error"
    },
    {
      "inputs": [],
      "name": "CycleDoesNotExist",
      "type": "error"
    },
    {
      "inputs": [],
      "name": "CycleExpired",
      "type": "error"
    },
    {
      "inputs": [],
      "name": "CycleLimitExceeded",
      "type": "error"
    },
    {
      "inputs": [],
      "name": "CycleNotActive",
      "type": "error"
    },
    {
      "inputs": [],
      "name": "CycleNotEnded",
      "type": "error"
    },
    {
      "inputs": [],
      "name": "CycleNotResolved",
      "type": "error"
    },
    {
      "inputs": [],
      "name": "DataExpired",
      "type": "error"
    },
    {
      "inputs": [],
      "name": "DataIncomplete",
      "type": "error"
    },
    {
      "inputs": [],
      "name": "DataInvalid",
      "type": "error"
    },
    {
      "inputs": [],
      "name": "DataMismatch",
      "type": "error"
    },
    {
      "inputs": [],
      "name": "DataTooLarge",
      "type": "error"
    },
    {
      "inputs": [],
      "name": "DataTooSmall",
      "type": "error"
    },
    {
      "inputs": [],
      "name": "DuplicateMatchId",
      "type": "error"
    },
    {
      "inputs": [],
      "name": "DuplicatePrediction",
      "type": "error"
    },
    {
      "inputs": [],
      "name": "EndTimeBeforeStart",
      "type": "error"
    },
    {
      "inputs": [],
      "name": "EndTimeInvalid",
      "type": "error"
    },
    {
      "inputs": [],
      "name": "ExcessivePayment",
      "type": "error"
    },
    {
      "inputs": [],
      "name": "FeeTooHigh",
      "type": "error"
    },
    {
      "inputs": [],
      "name": "FeeTooLow",
      "type": "error"
    },
    {
      "inputs": [],
      "name": "GasLimitExceeded",
      "type": "error"
    },
    {
      "inputs": [],
      "name": "InsufficientPayment",
      "type": "error"
    },
    {
      "inputs": [],
      "name": "InvalidAddress",
      "type": "error"
    },
    {
      "inputs": [],
      "name": "InvalidBetType",
      "type": "error"
    },
    {
      "inputs": [],
      "name": "InvalidCycleId",
      "type": "error"
    },
    {
      "inputs": [],
      "name": "InvalidDevWallet",
      "type": "error"
    },
    {
      "inputs": [],
      "name": "InvalidFee",
      "type": "error"
    },
    {
      "inputs": [],
      "name": "InvalidMatchData",
      "type": "error"
    },
    {
      "inputs": [],
      "name": "InvalidMatchId",
      "type": "error"
    },
    {
      "inputs": [],
      "name": "InvalidOracleAddress",
      "type": "error"
    },
    {
      "inputs": [],
      "name": "InvalidPredictionCount",
      "type": "error"
    },
    {
      "inputs": [],
      "name": "InvalidPredictionFormat",
      "type": "error"
    },
    {
      "inputs": [],
      "name": "InvalidRank",
      "type": "error"
    },
    {
      "inputs": [],
      "name": "InvalidSelection",
      "type": "error"
    },
    {
      "inputs": [],
      "name": "InvalidStartTime",
      "type": "error"
    },
    {
      "inputs": [],
      "name": "InvalidState",
      "type": "error"
    },
    {
      "inputs": [],
      "name": "LeaderboardFull",
      "type": "error"
    },
    {
      "inputs": [],
      "name": "LeaderboardNotReady",
      "type": "error"
    },
    {
      "inputs": [],
      "name": "MatchAlreadyStarted",
      "type": "error"
    },
    {
      "inputs": [],
      "name": "MatchDataExpired",
      "type": "error"
    },
    {
      "inputs": [],
      "name": "MatchDataIncomplete",
      "type": "error"
    },
    {
      "inputs": [],
      "name": "MatchDataInvalid",
      "type": "error"
    },
    {
      "inputs": [],
      "name": "MatchIdMismatch",
      "type": "error"
    },
    {
      "inputs": [],
      "name": "MatchNotFound",
      "type": "error"
    },
    {
      "inputs": [],
      "name": "MatchNotReady",
      "type": "error"
    },
    {
      "inputs": [],
      "name": "MatchOrderMismatch",
      "type": "error"
    },
    {
      "inputs": [],
      "name": "NotOnLeaderboard",
      "type": "error"
    },
    {
      "inputs": [],
      "name": "NotOracle",
      "type": "error"
    },
    {
      "inputs": [],
      "name": "NotOwner",
      "type": "error"
    },
    {
      "inputs": [],
      "name": "OddsExpired",
      "type": "error"
    },
    {
      "inputs": [],
      "name": "OddsInvalid",
      "type": "error"
    },
    {
      "inputs": [],
      "name": "OddsMismatch",
      "type": "error"
    },
    {
      "inputs": [],
      "name": "OddsNotAvailable",
      "type": "error"
    },
    {
      "inputs": [],
      "name": "OddsNotSet",
      "type": "error"
    },
    {
      "inputs": [],
      "name": "OddsTooHigh",
      "type": "error"
    },
    {
      "inputs": [],
      "name": "OddsTooLow",
      "type": "error"
    },
    {
      "inputs": [
        {
          "internalType": "address",
          "name": "owner",
          "type": "address"
        }
      ],
      "name": "OwnableInvalidOwner",
      "type": "error"
    },
    {
      "inputs": [
        {
          "internalType": "address",
          "name": "account",
          "type": "address"
        }
      ],
      "name": "OwnableUnauthorizedAccount",
      "type": "error"
    },
    {
      "inputs": [],
      "name": "PaymentFailed",
      "type": "error"
    },
    {
      "inputs": [],
      "name": "PaymentRequired",
      "type": "error"
    },
    {
      "inputs": [],
      "name": "PredictionOutOfOrder",
      "type": "error"
    },
    {
      "inputs": [],
      "name": "PrizeAlreadyClaimed",
      "type": "error"
    },
    {
      "inputs": [],
      "name": "PrizeAmountInvalid",
      "type": "error"
    },
    {
      "inputs": [],
      "name": "PrizeExpired",
      "type": "error"
    },
    {
      "inputs": [],
      "name": "PrizeNotAvailable",
      "type": "error"
    },
    {
      "inputs": [],
      "name": "PrizeNotEarned",
      "type": "error"
    },
    {
      "inputs": [],
      "name": "RankNotFound",
      "type": "error"
    },
    {
      "inputs": [],
      "name": "ReentrancyDetected",
      "type": "error"
    },
    {
      "inputs": [],
      "name": "ReentrancyGuardReentrantCall",
      "type": "error"
    },
    {
      "inputs": [],
      "name": "RefundFailed",
      "type": "error"
    },
    {
      "inputs": [],
      "name": "ResultAlreadySet",
      "type": "error"
    },
    {
      "inputs": [],
      "name": "ResultExpired",
      "type": "error"
    },
    {
      "inputs": [],
      "name": "ResultIncomplete",
      "type": "error"
    },
    {
      "inputs": [],
      "name": "ResultInvalid",
      "type": "error"
    },
    {
      "inputs": [],
      "name": "ResultMismatch",
      "type": "error"
    },
    {
      "inputs": [],
      "name": "ResultNotSet",
      "type": "error"
    },
    {
      "inputs": [],
      "name": "SlipAlreadyEvaluated",
      "type": "error"
    },
    {
      "inputs": [],
      "name": "SlipAlreadyPlaced",
      "type": "error"
    },
    {
      "inputs": [],
      "name": "SlipExpired",
      "type": "error"
    },
    {
      "inputs": [],
      "name": "SlipInvalid",
      "type": "error"
    },
    {
      "inputs": [],
      "name": "SlipLimitExceeded",
      "type": "error"
    },
    {
      "inputs": [],
      "name": "SlipNotEvaluated",
      "type": "error"
    },
    {
      "inputs": [],
      "name": "SlipNotFound",
      "type": "error"
    },
    {
      "inputs": [],
      "name": "SlipNotPlaced",
      "type": "error"
    },
    {
      "inputs": [],
      "name": "StartTimeInPast",
      "type": "error"
    },
    {
      "inputs": [],
      "name": "StartTimeTooLate",
      "type": "error"
    },
    {
      "inputs": [],
      "name": "StartTimeTooSoon",
      "type": "error"
    },
    {
      "inputs": [],
      "name": "StateExpired",
      "type": "error"
    },
    {
      "inputs": [],
      "name": "StateMismatch",
      "type": "error"
    },
    {
      "inputs": [],
      "name": "StateNotReady",
      "type": "error"
    },
    {
      "inputs": [],
      "name": "StateTransitionInvalid",
      "type": "error"
    },
    {
      "inputs": [],
      "name": "TimeWindowInvalid",
      "type": "error"
    },
    {
      "inputs": [],
      "name": "TooFewPredictions",
      "type": "error"
    },
    {
      "inputs": [],
      "name": "TooManyCycles",
      "type": "error"
    },
    {
      "inputs": [],
      "name": "TooManyPredictions",
      "type": "error"
    },
    {
      "inputs": [],
      "name": "TransactionExpired",
      "type": "error"
    },
    {
      "inputs": [],
      "name": "TransactionFailed",
      "type": "error"
    },
    {
      "inputs": [],
      "name": "TransactionInvalid",
      "type": "error"
    },
    {
      "inputs": [],
      "name": "TransferFailed",
      "type": "error"
    },
    {
      "inputs": [],
      "name": "Unauthorized",
      "type": "error"
    },
    {
      "anonymous": false,
      "inputs": [
        {
          "indexed": true,
          "internalType": "uint256",
          "name": "cycleId",
          "type": "uint256"
        },
        {
          "indexed": false,
          "internalType": "uint256",
          "name": "totalVolume",
          "type": "uint256"
        },
        {
          "indexed": false,
          "internalType": "uint32",
          "name": "totalSlips",
          "type": "uint32"
        },
        {
          "indexed": false,
          "internalType": "uint256",
          "name": "averageScore",
          "type": "uint256"
        }
      ],
      "name": "AnalyticsUpdated",
      "type": "event"
    },
    {
      "anonymous": false,
      "inputs": [
        {
          "indexed": true,
          "internalType": "uint256",
          "name": "cycleId",
          "type": "uint256"
        },
        {
          "indexed": false,
          "internalType": "uint256",
          "name": "endTime",
          "type": "uint256"
        },
        {
          "indexed": false,
          "internalType": "uint32",
          "name": "totalSlips",
          "type": "uint32"
        }
      ],
      "name": "CycleEnded",
      "type": "event"
    },
    {
      "anonymous": false,
      "inputs": [
        {
          "indexed": true,
          "internalType": "uint256",
          "name": "cycleId",
          "type": "uint256"
        },
        {
          "indexed": false,
          "internalType": "uint256",
          "name": "prizePool",
          "type": "uint256"
        }
      ],
      "name": "CycleResolved",
      "type": "event"
    },
    {
      "anonymous": false,
      "inputs": [
        {
          "indexed": true,
          "internalType": "uint256",
          "name": "cycleId",
          "type": "uint256"
        },
        {
          "indexed": false,
          "internalType": "uint256",
          "name": "endTime",
          "type": "uint256"
        }
      ],
      "name": "CycleStarted",
      "type": "event"
    },
    {
      "anonymous": false,
      "inputs": [
        {
          "indexed": true,
          "internalType": "uint256",
          "name": "newFee",
          "type": "uint256"
        }
      ],
      "name": "EntryFeeSet",
      "type": "event"
    },
    {
      "anonymous": false,
      "inputs": [
        {
          "indexed": true,
          "internalType": "uint256",
          "name": "cycleId",
          "type": "uint256"
        },
        {
          "indexed": true,
          "internalType": "address",
          "name": "player",
          "type": "address"
        },
        {
          "indexed": true,
          "internalType": "uint256",
          "name": "slipId",
          "type": "uint256"
        },
        {
          "indexed": false,
          "internalType": "uint8",
          "name": "rank",
          "type": "uint8"
        },
        {
          "indexed": false,
          "internalType": "uint256",
          "name": "finalScore",
          "type": "uint256"
        }
      ],
      "name": "LeaderboardUpdated",
      "type": "event"
    },
    {
      "anonymous": false,
      "inputs": [
        {
          "indexed": true,
          "internalType": "address",
          "name": "user",
          "type": "address"
        },
        {
          "indexed": false,
          "internalType": "uint256",
          "name": "pointsEarned",
          "type": "uint256"
        },
        {
          "indexed": false,
          "internalType": "uint256",
          "name": "correctPredictions",
          "type": "uint256"
        },
        {
          "indexed": false,
          "internalType": "uint256",
          "name": "totalReputation",
          "type": "uint256"
        }
      ],
      "name": "OddysseyReputationUpdated",
      "type": "event"
    },
    {
      "anonymous": false,
      "inputs": [
        {
          "indexed": true,
          "internalType": "address",
          "name": "newOracle",
          "type": "address"
        }
      ],
      "name": "OracleSet",
      "type": "event"
    },
    {
      "anonymous": false,
      "inputs": [
        {
          "indexed": true,
          "internalType": "address",
          "name": "previousOwner",
          "type": "address"
        },
        {
          "indexed": true,
          "internalType": "address",
          "name": "newOwner",
          "type": "address"
        }
      ],
      "name": "OwnershipTransferred",
      "type": "event"
    },
    {
      "anonymous": false,
      "inputs": [
        {
          "indexed": true,
          "internalType": "uint256",
          "name": "cycleId",
          "type": "uint256"
        },
        {
          "indexed": true,
          "internalType": "address",
          "name": "player",
          "type": "address"
        },
        {
          "indexed": false,
          "internalType": "uint256",
          "name": "rank",
          "type": "uint256"
        },
        {
          "indexed": false,
          "internalType": "uint256",
          "name": "amount",
          "type": "uint256"
        }
      ],
      "name": "PrizeClaimed",
      "type": "event"
    },
    {
      "anonymous": false,
      "inputs": [
        {
          "indexed": true,
          "internalType": "uint256",
          "name": "fromCycleId",
          "type": "uint256"
        },
        {
          "indexed": true,
          "internalType": "uint256",
          "name": "toCycleId",
          "type": "uint256"
        },
        {
          "indexed": false,
          "internalType": "uint256",
          "name": "amount",
          "type": "uint256"
        }
      ],
      "name": "PrizeRollover",
      "type": "event"
    },
    {
      "anonymous": false,
      "inputs": [
        {
          "indexed": true,
          "internalType": "uint256",
          "name": "slipId",
          "type": "uint256"
        },
        {
          "indexed": true,
          "internalType": "address",
          "name": "player",
          "type": "address"
        },
        {
          "indexed": true,
          "internalType": "uint256",
          "name": "cycleId",
          "type": "uint256"
        },
        {
          "indexed": false,
          "internalType": "uint8",
          "name": "correctCount",
          "type": "uint8"
        },
        {
          "indexed": false,
          "internalType": "uint256",
          "name": "finalScore",
          "type": "uint256"
        }
      ],
      "name": "SlipEvaluated",
      "type": "event"
    },
    {
      "anonymous": false,
      "inputs": [
        {
          "indexed": true,
          "internalType": "uint256",
          "name": "cycleId",
          "type": "uint256"
        },
        {
          "indexed": true,
          "internalType": "address",
          "name": "player",
          "type": "address"
        },
        {
          "indexed": true,
          "internalType": "uint256",
          "name": "slipId",
          "type": "uint256"
        }
      ],
      "name": "SlipPlaced",
      "type": "event"
    },
    {
      "anonymous": false,
      "inputs": [
        {
          "indexed": true,
          "internalType": "address",
          "name": "user",
          "type": "address"
        },
        {
          "indexed": false,
          "internalType": "uint256",
          "name": "totalSlips",
          "type": "uint256"
        },
        {
          "indexed": false,
          "internalType": "uint256",
          "name": "totalWins",
          "type": "uint256"
        },
        {
          "indexed": false,
          "internalType": "uint256",
          "name": "bestScore",
          "type": "uint256"
        },
        {
          "indexed": false,
          "internalType": "uint256",
          "name": "winRate",
          "type": "uint256"
        }
      ],
      "name": "UserStatsUpdated",
      "type": "event"
    },
    {
      "inputs": [],
      "name": "DAILY_LEADERBOARD_SIZE",
      "outputs": [
        {
          "internalType": "uint256",
          "name": "",
          "type": "uint256"
        }
      ],
      "stateMutability": "view",
      "type": "function"
    },
    {
      "inputs": [],
      "name": "DEV_FEE_PERCENTAGE",
      "outputs": [
        {
          "internalType": "uint256",
          "name": "",
          "type": "uint256"
        }
      ],
      "stateMutability": "view",
      "type": "function"
    },
    {
      "inputs": [],
      "name": "MATCH_COUNT",
      "outputs": [
        {
          "internalType": "uint256",
          "name": "",
          "type": "uint256"
        }
      ],
      "stateMutability": "view",
      "type": "function"
    },
    {
      "inputs": [],
      "name": "MAX_CYCLES_TO_RESOLVE",
      "outputs": [
        {
          "internalType": "uint256",
          "name": "",
          "type": "uint256"
        }
      ],
      "stateMutability": "view",
      "type": "function"
    },
    {
      "inputs": [],
      "name": "MIN_CORRECT_PREDICTIONS",
      "outputs": [
        {
          "internalType": "uint256",
          "name": "",
          "type": "uint256"
        }
      ],
      "stateMutability": "view",
      "type": "function"
    },
    {
      "inputs": [],
      "name": "ODDS_SCALING_FACTOR",
      "outputs": [
        {
          "internalType": "uint256",
          "name": "",
          "type": "uint256"
        }
      ],
      "stateMutability": "view",
      "type": "function"
    },
    {
      "inputs": [],
      "name": "PRIZE_ROLLOVER_FEE_PERCENTAGE",
      "outputs": [
        {
          "internalType": "uint256",
          "name": "",
          "type": "uint256"
        }
      ],
      "stateMutability": "view",
      "type": "function"
    },
    {
      "inputs": [
        {
          "internalType": "uint256[]",
          "name": "_cycleIds",
          "type": "uint256[]"
        }
      ],
      "name": "claimMultiplePrizes",
      "outputs": [],
      "stateMutability": "nonpayable",
      "type": "function"
    },
    {
      "inputs": [
        {
          "internalType": "uint256",
          "name": "_cycleId",
          "type": "uint256"
        }
      ],
      "name": "claimPrize",
      "outputs": [],
      "stateMutability": "nonpayable",
      "type": "function"
    },
    {
      "inputs": [
        {
          "internalType": "uint256",
          "name": "",
          "type": "uint256"
        }
      ],
      "name": "claimableStartTimes",
      "outputs": [
        {
          "internalType": "uint256",
          "name": "",
          "type": "uint256"
        }
      ],
      "stateMutability": "view",
      "type": "function"
    },
    {
      "inputs": [
        {
          "internalType": "uint256",
          "name": "",
          "type": "uint256"
        }
      ],
      "name": "cycleInfo",
      "outputs": [
        {
          "internalType": "uint256",
          "name": "startTime",
          "type": "uint256"
        },
        {
          "internalType": "uint256",
          "name": "endTime",
          "type": "uint256"
        },
        {
          "internalType": "uint256",
          "name": "prizePool",
          "type": "uint256"
        },
        {
          "internalType": "uint32",
          "name": "slipCount",
          "type": "uint32"
        },
        {
          "internalType": "uint32",
          "name": "evaluatedSlips",
          "type": "uint32"
        },
        {
          "internalType": "enum Oddyssey.CycleState",
          "name": "state",
          "type": "uint8"
        },
        {
          "internalType": "bool",
          "name": "hasWinner",
          "type": "bool"
        }
      ],
      "stateMutability": "view",
      "type": "function"
    },
    {
      "inputs": [
        {
          "internalType": "uint256",
          "name": "",
          "type": "uint256"
        }
      ],
      "name": "cycleStats",
      "outputs": [
        {
          "internalType": "uint256",
          "name": "volume",
          "type": "uint256"
        },
        {
          "internalType": "uint32",
          "name": "slips",
          "type": "uint32"
        },
        {
          "internalType": "uint32",
          "name": "evaluatedSlips",
          "type": "uint32"
        }
      ],
      "stateMutability": "view",
      "type": "function"
    },
    {
      "inputs": [
        {
          "internalType": "uint256",
          "name": "",
          "type": "uint256"
        }
      ],
      "name": "dailyCycleEndTimes",
      "outputs": [
        {
          "internalType": "uint256",
          "name": "",
          "type": "uint256"
        }
      ],
      "stateMutability": "view",
      "type": "function"
    },
    {
      "inputs": [],
      "name": "dailyCycleId",
      "outputs": [
        {
          "internalType": "uint256",
          "name": "",
          "type": "uint256"
        }
      ],
      "stateMutability": "view",
      "type": "function"
    },
    {
      "inputs": [
        {
          "internalType": "uint256",
          "name": "",
          "type": "uint256"
        },
        {
          "internalType": "uint256",
          "name": "",
          "type": "uint256"
        }
      ],
      "name": "dailyLeaderboards",
      "outputs": [
        {
          "internalType": "address",
          "name": "player",
          "type": "address"
        },
        {
          "internalType": "uint256",
          "name": "slipId",
          "type": "uint256"
        },
        {
          "internalType": "uint256",
          "name": "finalScore",
          "type": "uint256"
        },
        {
          "internalType": "uint8",
          "name": "correctCount",
          "type": "uint8"
        }
      ],
      "stateMutability": "view",
      "type": "function"
    },
    {
      "inputs": [
        {
          "internalType": "uint256",
          "name": "",
          "type": "uint256"
        },
        {
          "internalType": "uint256",
          "name": "",
          "type": "uint256"
        }
      ],
      "name": "dailyMatches",
      "outputs": [
        {
          "internalType": "uint64",
          "name": "id",
          "type": "uint64"
        },
        {
          "internalType": "uint64",
          "name": "startTime",
          "type": "uint64"
        },
        {
          "internalType": "uint32",
          "name": "oddsHome",
          "type": "uint32"
        },
        {
          "internalType": "uint32",
          "name": "oddsDraw",
          "type": "uint32"
        },
        {
          "internalType": "uint32",
          "name": "oddsAway",
          "type": "uint32"
        },
        {
          "internalType": "uint32",
          "name": "oddsOver",
          "type": "uint32"
        },
        {
          "internalType": "uint32",
          "name": "oddsUnder",
          "type": "uint32"
        },
        {
          "components": [
            {
              "internalType": "enum Oddyssey.MoneylineResult",
              "name": "moneyline",
              "type": "uint8"
            },
            {
              "internalType": "enum Oddyssey.OverUnderResult",
              "name": "overUnder",
              "type": "uint8"
            }
          ],
          "internalType": "struct Oddyssey.Result",
          "name": "result",
          "type": "tuple"
        }
      ],
      "stateMutability": "view",
      "type": "function"
    },
    {
      "inputs": [
        {
          "internalType": "uint256",
          "name": "",
          "type": "uint256"
        }
      ],
      "name": "dailyPrizePools",
      "outputs": [
        {
          "internalType": "uint256",
          "name": "",
          "type": "uint256"
        }
      ],
      "stateMutability": "view",
      "type": "function"
    },
    {
      "inputs": [],
      "name": "devWallet",
      "outputs": [
        {
          "internalType": "address",
          "name": "",
          "type": "address"
        }
      ],
      "stateMutability": "view",
      "type": "function"
    },
    {
      "inputs": [],
      "name": "entryFee",
      "outputs": [
        {
          "internalType": "uint256",
          "name": "",
          "type": "uint256"
        }
      ],
      "stateMutability": "view",
      "type": "function"
    },
    {
      "inputs": [
        {
          "internalType": "uint256[]",
          "name": "_slipIds",
          "type": "uint256[]"
        }
      ],
      "name": "evaluateMultipleSlips",
      "outputs": [],
      "stateMutability": "nonpayable",
      "type": "function"
    },
    {
      "inputs": [
        {
          "internalType": "uint256",
          "name": "_slipId",
          "type": "uint256"
        }
      ],
      "name": "evaluateSlip",
      "outputs": [],
      "stateMutability": "nonpayable",
      "type": "function"
    },
    {
      "inputs": [],
      "name": "getCurrentCycle",
      "outputs": [
        {
          "internalType": "uint256",
          "name": "",
          "type": "uint256"
        }
      ],
      "stateMutability": "view",
      "type": "function"
    },
    {
      "inputs": [],
      "name": "getCurrentCycleInfo",
      "outputs": [
        {
          "internalType": "uint256",
          "name": "cycleId",
          "type": "uint256"
        },
        {
          "internalType": "uint8",
          "name": "state",
          "type": "uint8"
        },
        {
          "internalType": "uint256",
          "name": "endTime",
          "type": "uint256"
        },
        {
          "internalType": "uint256",
          "name": "prizePool",
          "type": "uint256"
        },
        {
          "internalType": "uint32",
          "name": "cycleSlipCount",
          "type": "uint32"
        }
      ],
      "stateMutability": "view",
      "type": "function"
    },
    {
      "inputs": [
        {
          "internalType": "uint256",
          "name": "_cycleId",
          "type": "uint256"
        }
      ],
      "name": "getCycleAnalytics",
      "outputs": [
        {
          "internalType": "uint256",
          "name": "totalVolume",
          "type": "uint256"
        },
        {
          "internalType": "uint32",
          "name": "totalSlips",
          "type": "uint32"
        },
        {
          "internalType": "uint32",
          "name": "evaluatedSlips",
          "type": "uint32"
        },
        {
          "internalType": "uint256",
          "name": "averageScore",
          "type": "uint256"
        },
        {
          "internalType": "uint256",
          "name": "highestScore",
          "type": "uint256"
        },
        {
          "internalType": "uint8",
          "name": "winnersCount",
          "type": "uint8"
        },
        {
          "internalType": "bool",
          "name": "hasRollover",
          "type": "bool"
        }
      ],
      "stateMutability": "view",
      "type": "function"
    },
    {
      "inputs": [
        {
          "internalType": "uint256",
          "name": "_cycleId",
          "type": "uint256"
        }
      ],
      "name": "getCycleMatches",
      "outputs": [
        {
          "components": [
            {
              "internalType": "uint64",
              "name": "id",
              "type": "uint64"
            },
            {
              "internalType": "uint64",
              "name": "startTime",
              "type": "uint64"
            },
            {
              "internalType": "uint32",
              "name": "oddsHome",
              "type": "uint32"
            },
            {
              "internalType": "uint32",
              "name": "oddsDraw",
              "type": "uint32"
            },
            {
              "internalType": "uint32",
              "name": "oddsAway",
              "type": "uint32"
            },
            {
              "internalType": "uint32",
              "name": "oddsOver",
              "type": "uint32"
            },
            {
              "internalType": "uint32",
              "name": "oddsUnder",
              "type": "uint32"
            },
            {
              "components": [
                {
                  "internalType": "enum Oddyssey.MoneylineResult",
                  "name": "moneyline",
                  "type": "uint8"
                },
                {
                  "internalType": "enum Oddyssey.OverUnderResult",
                  "name": "overUnder",
                  "type": "uint8"
                }
              ],
              "internalType": "struct Oddyssey.Result",
              "name": "result",
              "type": "tuple"
            }
          ],
          "internalType": "struct Oddyssey.Match[10]",
          "name": "",
          "type": "tuple[10]"
        }
      ],
      "stateMutability": "view",
      "type": "function"
    },
    {
      "inputs": [
        {
          "internalType": "uint256",
          "name": "_cycleId",
          "type": "uint256"
        }
      ],
      "name": "getCycleStatus",
      "outputs": [
        {
          "internalType": "bool",
          "name": "exists",
          "type": "bool"
        },
        {
          "internalType": "uint8",
          "name": "state",
          "type": "uint8"
        },
        {
          "internalType": "uint256",
          "name": "endTime",
          "type": "uint256"
        },
        {
          "internalType": "uint256",
          "name": "prizePool",
          "type": "uint256"
        },
        {
          "internalType": "uint32",
          "name": "cycleSlipCount",
          "type": "uint32"
        },
        {
          "internalType": "bool",
          "name": "hasWinner",
          "type": "bool"
        }
      ],
      "stateMutability": "view",
      "type": "function"
    },
    {
      "inputs": [
        {
          "internalType": "uint256",
          "name": "_cycleId",
          "type": "uint256"
        }
      ],
      "name": "getDailyLeaderboard",
      "outputs": [
        {
          "components": [
            {
              "internalType": "address",
              "name": "player",
              "type": "address"
            },
            {
              "internalType": "uint256",
              "name": "slipId",
              "type": "uint256"
            },
            {
              "internalType": "uint256",
              "name": "finalScore",
              "type": "uint256"
            },
            {
              "internalType": "uint8",
              "name": "correctCount",
              "type": "uint8"
            }
          ],
          "internalType": "struct Oddyssey.LeaderboardEntry[5]",
          "name": "",
          "type": "tuple[5]"
        }
      ],
      "stateMutability": "view",
      "type": "function"
    },
    {
      "inputs": [
        {
          "internalType": "uint256",
          "name": "_cycleId",
          "type": "uint256"
        }
      ],
      "name": "getDailyMatches",
      "outputs": [
        {
          "components": [
            {
              "internalType": "uint64",
              "name": "id",
              "type": "uint64"
            },
            {
              "internalType": "uint64",
              "name": "startTime",
              "type": "uint64"
            },
            {
              "internalType": "uint32",
              "name": "oddsHome",
              "type": "uint32"
            },
            {
              "internalType": "uint32",
              "name": "oddsDraw",
              "type": "uint32"
            },
            {
              "internalType": "uint32",
              "name": "oddsAway",
              "type": "uint32"
            },
            {
              "internalType": "uint32",
              "name": "oddsOver",
              "type": "uint32"
            },
            {
              "internalType": "uint32",
              "name": "oddsUnder",
              "type": "uint32"
            },
            {
              "components": [
                {
                  "internalType": "enum Oddyssey.MoneylineResult",
                  "name": "moneyline",
                  "type": "uint8"
                },
                {
                  "internalType": "enum Oddyssey.OverUnderResult",
                  "name": "overUnder",
                  "type": "uint8"
                }
              ],
              "internalType": "struct Oddyssey.Result",
              "name": "result",
              "type": "tuple"
            }
          ],
          "internalType": "struct Oddyssey.Match[10]",
          "name": "",
          "type": "tuple[10]"
        }
      ],
      "stateMutability": "view",
      "type": "function"
    },
    {
      "inputs": [
        {
          "internalType": "address",
          "name": "_user",
          "type": "address"
        }
      ],
      "name": "getOddysseyReputation",
      "outputs": [
        {
          "internalType": "uint256",
          "name": "totalReputation",
          "type": "uint256"
        },
        {
          "internalType": "uint256",
          "name": "totalCorrectPredictions",
          "type": "uint256"
        }
      ],
      "stateMutability": "view",
      "type": "function"
    },
    {
      "inputs": [
        {
          "internalType": "uint256",
          "name": "_cycleId",
          "type": "uint256"
        }
      ],
      "name": "getPrizePoolBreakdown",
      "outputs": [
        {
          "internalType": "uint256",
          "name": "totalPool",
          "type": "uint256"
        },
        {
          "internalType": "uint256",
          "name": "firstPlace",
          "type": "uint256"
        },
        {
          "internalType": "uint256",
          "name": "secondPlace",
          "type": "uint256"
        },
        {
          "internalType": "uint256",
          "name": "thirdPlace",
          "type": "uint256"
        },
        {
          "internalType": "uint256",
          "name": "fourthPlace",
          "type": "uint256"
        },
        {
          "internalType": "uint256",
          "name": "fifthPlace",
          "type": "uint256"
        },
        {
          "internalType": "uint256",
          "name": "devFee",
          "type": "uint256"
        },
        {
          "internalType": "bool",
          "name": "hasRollover",
          "type": "bool"
        }
      ],
      "stateMutability": "view",
      "type": "function"
    },
    {
      "inputs": [
        {
          "internalType": "uint256",
          "name": "_slipId",
          "type": "uint256"
        }
      ],
      "name": "getSlip",
      "outputs": [
        {
          "components": [
            {
              "internalType": "address",
              "name": "player",
              "type": "address"
            },
            {
              "internalType": "uint256",
              "name": "cycleId",
              "type": "uint256"
            },
            {
              "internalType": "uint256",
              "name": "placedAt",
              "type": "uint256"
            },
            {
              "components": [
                {
                  "internalType": "uint64",
                  "name": "matchId",
                  "type": "uint64"
                },
                {
                  "internalType": "enum Oddyssey.BetType",
                  "name": "betType",
                  "type": "uint8"
                },
                {
                  "internalType": "bytes32",
                  "name": "selection",
                  "type": "bytes32"
                },
                {
                  "internalType": "uint32",
                  "name": "selectedOdd",
                  "type": "uint32"
                }
              ],
              "internalType": "struct Oddyssey.UserPrediction[10]",
              "name": "predictions",
              "type": "tuple[10]"
            },
            {
              "internalType": "uint256",
              "name": "finalScore",
              "type": "uint256"
            },
            {
              "internalType": "uint8",
              "name": "correctCount",
              "type": "uint8"
            },
            {
              "internalType": "bool",
              "name": "isEvaluated",
              "type": "bool"
            }
          ],
          "internalType": "struct Oddyssey.Slip",
          "name": "",
          "type": "tuple"
        }
      ],
      "stateMutability": "view",
      "type": "function"
    },
    {
      "inputs": [
        {
          "internalType": "address",
          "name": "_user",
          "type": "address"
        },
        {
          "internalType": "uint256",
          "name": "_cycleId",
          "type": "uint256"
        }
      ],
      "name": "getUserSlipsForCycle",
      "outputs": [
        {
          "internalType": "uint256[]",
          "name": "",
          "type": "uint256[]"
        }
      ],
      "stateMutability": "view",
      "type": "function"
    },
    {
      "inputs": [
        {
          "internalType": "address",
          "name": "_user",
          "type": "address"
        }
      ],
      "name": "getUserStats",
      "outputs": [
        {
          "internalType": "uint256",
          "name": "totalSlips",
          "type": "uint256"
        },
        {
          "internalType": "uint256",
          "name": "totalWins",
          "type": "uint256"
        },
        {
          "internalType": "uint256",
          "name": "bestScore",
          "type": "uint256"
        },
        {
          "internalType": "uint256",
          "name": "averageScore",
          "type": "uint256"
        },
        {
          "internalType": "uint256",
          "name": "winRate",
          "type": "uint256"
        },
        {
          "internalType": "uint256",
          "name": "currentStreak",
          "type": "uint256"
        },
        {
          "internalType": "uint256",
          "name": "bestStreak",
          "type": "uint256"
        },
        {
          "internalType": "uint256",
          "name": "lastActiveCycle",
          "type": "uint256"
        }
      ],
      "stateMutability": "view",
      "type": "function"
    },
    {
      "inputs": [
        {
          "internalType": "address",
          "name": "_user",
          "type": "address"
        }
      ],
      "name": "getUserStatsWithReputation",
      "outputs": [
        {
          "internalType": "uint256",
          "name": "totalSlips",
          "type": "uint256"
        },
        {
          "internalType": "uint256",
          "name": "totalWins",
          "type": "uint256"
        },
        {
          "internalType": "uint256",
          "name": "bestScore",
          "type": "uint256"
        },
        {
          "internalType": "uint256",
          "name": "averageScore",
          "type": "uint256"
        },
        {
          "internalType": "uint256",
          "name": "winRate",
          "type": "uint256"
        },
        {
          "internalType": "uint256",
          "name": "currentStreak",
          "type": "uint256"
        },
        {
          "internalType": "uint256",
          "name": "bestStreak",
          "type": "uint256"
        },
        {
          "internalType": "uint256",
          "name": "lastActiveCycle",
          "type": "uint256"
        },
        {
          "internalType": "uint256",
          "name": "totalReputation",
          "type": "uint256"
        },
        {
          "internalType": "uint256",
          "name": "totalCorrectPredictions",
          "type": "uint256"
        }
      ],
      "stateMutability": "view",
      "type": "function"
    },
    {
      "inputs": [
        {
          "internalType": "address",
          "name": "_user",
          "type": "address"
        }
      ],
      "name": "getUserTotalSlips",
      "outputs": [
        {
          "internalType": "uint256",
          "name": "",
          "type": "uint256"
        }
      ],
      "stateMutability": "view",
      "type": "function"
    },
    {
      "inputs": [
        {
          "internalType": "uint256",
          "name": "_cycleId",
          "type": "uint256"
        }
      ],
      "name": "isCycleInitialized",
      "outputs": [
        {
          "internalType": "bool",
          "name": "",
          "type": "bool"
        }
      ],
      "stateMutability": "view",
      "type": "function"
    },
    {
      "inputs": [
        {
          "internalType": "uint256",
          "name": "",
          "type": "uint256"
        }
      ],
      "name": "isCycleResolved",
      "outputs": [
        {
          "internalType": "bool",
          "name": "",
          "type": "bool"
        }
      ],
      "stateMutability": "view",
      "type": "function"
    },
    {
      "inputs": [],
      "name": "oracle",
      "outputs": [
        {
          "internalType": "address",
          "name": "",
          "type": "address"
        }
      ],
      "stateMutability": "view",
      "type": "function"
    },
    {
      "inputs": [],
      "name": "owner",
      "outputs": [
        {
          "internalType": "address",
          "name": "",
          "type": "address"
        }
      ],
      "stateMutability": "view",
      "type": "function"
    },
    {
      "inputs": [
        {
          "components": [
            {
              "internalType": "uint64",
              "name": "matchId",
              "type": "uint64"
            },
            {
              "internalType": "enum Oddyssey.BetType",
              "name": "betType",
              "type": "uint8"
            },
            {
              "internalType": "bytes32",
              "name": "selection",
              "type": "bytes32"
            },
            {
              "internalType": "uint32",
              "name": "selectedOdd",
              "type": "uint32"
            }
          ],
          "internalType": "struct Oddyssey.UserPrediction[10]",
          "name": "_predictions",
          "type": "tuple[10]"
        }
      ],
      "name": "placeSlip",
      "outputs": [],
      "stateMutability": "payable",
      "type": "function"
    },
    {
      "inputs": [
        {
          "internalType": "uint256",
          "name": "",
          "type": "uint256"
        },
        {
          "internalType": "uint8",
          "name": "",
          "type": "uint8"
        }
      ],
      "name": "prizeClaimed",
      "outputs": [
        {
          "internalType": "bool",
          "name": "",
          "type": "bool"
        }
      ],
      "stateMutability": "view",
      "type": "function"
    },
    {
      "inputs": [],
      "name": "renounceOwnership",
      "outputs": [],
      "stateMutability": "nonpayable",
      "type": "function"
    },
    {
      "inputs": [
        {
          "internalType": "uint256",
          "name": "_cycleId",
          "type": "uint256"
        },
        {
          "components": [
            {
              "internalType": "enum Oddyssey.MoneylineResult",
              "name": "moneyline",
              "type": "uint8"
            },
            {
              "internalType": "enum Oddyssey.OverUnderResult",
              "name": "overUnder",
              "type": "uint8"
            }
          ],
          "internalType": "struct Oddyssey.Result[10]",
          "name": "_results",
          "type": "tuple[10]"
        }
      ],
      "name": "resolveDailyCycle",
      "outputs": [],
      "stateMutability": "nonpayable",
      "type": "function"
    },
    {
      "inputs": [
        {
          "internalType": "uint256[]",
          "name": "_cycleIds",
          "type": "uint256[]"
        },
        {
          "components": [
            {
              "internalType": "enum Oddyssey.MoneylineResult",
              "name": "moneyline",
              "type": "uint8"
            },
            {
              "internalType": "enum Oddyssey.OverUnderResult",
              "name": "overUnder",
              "type": "uint8"
            }
          ],
          "internalType": "struct Oddyssey.Result[10][]",
          "name": "_results",
          "type": "tuple[10][]"
        }
      ],
      "name": "resolveMultipleCycles",
      "outputs": [],
      "stateMutability": "nonpayable",
      "type": "function"
    },
    {
      "inputs": [
        {
          "internalType": "uint256",
          "name": "_newFee",
          "type": "uint256"
        }
      ],
      "name": "setEntryFee",
      "outputs": [],
      "stateMutability": "nonpayable",
      "type": "function"
    },
    {
      "inputs": [
        {
          "internalType": "address",
          "name": "_newOracle",
          "type": "address"
        }
      ],
      "name": "setOracle",
      "outputs": [],
      "stateMutability": "nonpayable",
      "type": "function"
    },
    {
      "inputs": [],
      "name": "slipCount",
      "outputs": [
        {
          "internalType": "uint256",
          "name": "",
          "type": "uint256"
        }
      ],
      "stateMutability": "view",
      "type": "function"
    },
    {
      "inputs": [
        {
          "internalType": "uint256",
          "name": "",
          "type": "uint256"
        }
      ],
      "name": "slips",
      "outputs": [
        {
          "internalType": "address",
          "name": "player",
          "type": "address"
        },
        {
          "internalType": "uint256",
          "name": "cycleId",
          "type": "uint256"
        },
        {
          "internalType": "uint256",
          "name": "placedAt",
          "type": "uint256"
        },
        {
          "internalType": "uint256",
          "name": "finalScore",
          "type": "uint256"
        },
        {
          "internalType": "uint8",
          "name": "correctCount",
          "type": "uint8"
        },
        {
          "internalType": "bool",
          "name": "isEvaluated",
          "type": "bool"
        }
      ],
      "stateMutability": "view",
      "type": "function"
    },
    {
      "inputs": [
        {
          "components": [
            {
              "internalType": "uint64",
              "name": "id",
              "type": "uint64"
            },
            {
              "internalType": "uint64",
              "name": "startTime",
              "type": "uint64"
            },
            {
              "internalType": "uint32",
              "name": "oddsHome",
              "type": "uint32"
            },
            {
              "internalType": "uint32",
              "name": "oddsDraw",
              "type": "uint32"
            },
            {
              "internalType": "uint32",
              "name": "oddsAway",
              "type": "uint32"
            },
            {
              "internalType": "uint32",
              "name": "oddsOver",
              "type": "uint32"
            },
            {
              "internalType": "uint32",
              "name": "oddsUnder",
              "type": "uint32"
            },
            {
              "components": [
                {
                  "internalType": "enum Oddyssey.MoneylineResult",
                  "name": "moneyline",
                  "type": "uint8"
                },
                {
                  "internalType": "enum Oddyssey.OverUnderResult",
                  "name": "overUnder",
                  "type": "uint8"
                }
              ],
              "internalType": "struct Oddyssey.Result",
              "name": "result",
              "type": "tuple"
            }
          ],
          "internalType": "struct Oddyssey.Match[10]",
          "name": "_matches",
          "type": "tuple[10]"
        }
      ],
      "name": "startDailyCycle",
      "outputs": [],
      "stateMutability": "nonpayable",
      "type": "function"
    },
    {
      "inputs": [],
      "name": "stats",
      "outputs": [
        {
          "internalType": "uint256",
          "name": "totalVolume",
          "type": "uint256"
        },
        {
          "internalType": "uint32",
          "name": "totalSlips",
          "type": "uint32"
        },
        {
          "internalType": "uint256",
          "name": "highestOdd",
          "type": "uint256"
        }
      ],
      "stateMutability": "view",
      "type": "function"
    },
    {
      "inputs": [
        {
          "internalType": "address",
          "name": "newOwner",
          "type": "address"
        }
      ],
      "name": "transferOwnership",
      "outputs": [],
      "stateMutability": "nonpayable",
      "type": "function"
    },
    {
      "inputs": [
        {
          "internalType": "address",
          "name": "",
          "type": "address"
        }
      ],
      "name": "userOddysseyCorrectPredictions",
      "outputs": [
        {
          "internalType": "uint256",
          "name": "",
          "type": "uint256"
        }
      ],
      "stateMutability": "view",
      "type": "function"
    },
    {
      "inputs": [
        {
          "internalType": "address",
          "name": "",
          "type": "address"
        }
      ],
      "name": "userOddysseyReputation",
      "outputs": [
        {
          "internalType": "uint256",
          "name": "",
          "type": "uint256"
        }
      ],
      "stateMutability": "view",
      "type": "function"
    },
    {
      "inputs": [
        {
          "internalType": "address",
          "name": "",
          "type": "address"
        }
      ],
      "name": "userStats",
      "outputs": [
        {
          "internalType": "uint256",
          "name": "totalSlips",
          "type": "uint256"
        },
        {
          "internalType": "uint256",
          "name": "totalWins",
          "type": "uint256"
        },
        {
          "internalType": "uint256",
          "name": "bestScore",
          "type": "uint256"
        },
        {
          "internalType": "uint256",
          "name": "averageScore",
          "type": "uint256"
        },
        {
          "internalType": "uint256",
          "name": "winRate",
          "type": "uint256"
        },
        {
          "internalType": "uint256",
          "name": "currentStreak",
          "type": "uint256"
        },
        {
          "internalType": "uint256",
          "name": "bestStreak",
          "type": "uint256"
        },
        {
          "internalType": "uint256",
          "name": "lastActiveCycle",
          "type": "uint256"
        }
      ],
      "stateMutability": "view",
      "type": "function"
    }
  ],
  "bytecode": "0x60e0346200016257620041d390601f38839003908101601f19168201906001600160401b03821183831017620001675780839160409586948552833981010312620001625780516001600160a01b03808216929091908382036200016257602001519133156200014a576000549360018060a01b03199433868216176000558651923391167f8be0079c531659141344cd1fd0a4f28419497f9722a3daafe3b4186f6b6457e0600080a360018055156200013b57506706f05b59d3b2000082036200012a5760c052600355339060025416176002556101f48060805260a0525161405590816200017e8239608051818181610b6d015261321b015260a051818181610c2e015281816139c00152613e14015260c051818181610dd80152818161324b0152613a260152f35b83516358d620b360e01b8152600490fd5b63ef241aef60e01b8152600490fd5b8451631e4fbdf760e01b815260006004820152602490fd5b600080fd5b634e487b7160e01b600052604160045260246000fdfe6080604052600436101561001257600080fd5b60003560e01c806302c009ef14612443578063042db2e61461073457806305b61d1114612425578063072ea61c146124075780630832275e146122f957806314bd9644146122dd57806317ee395b1461229257806318bf9b03146122385780632012ef0314611f89578063201a013b14611aa1578063210d5f5f14611a765780632ac5df9314611a4a578063361a9792146119da5780633e03d4c11461192e57806344dac5551461136957806344f79609146112e85780634c3b1939146112a45780634e43603a14610e305780634f4bc86e1461126a5780635052617d1461124e578063590d0f99146112315780635e56616b146111f75780635fdc0dbd146111a4578063625d9ce5146111885780636977f54614611160578063715018a61461111957806373d2257314611056578063745be5761461102a5780637adbf97314610fa35780637dc0d1d014610f7a5780637e12170d14610f315780638366021714610ec95780638a65d87414610e305780638da5cb5b14610e075780638ea5220f14610dc2578063904502e114610d7b5780639ad7884c14610d275780639bea95ac14610cf6578063a1ce7ecb14610c51578063a4957efe14610c16578063af9b2bfb14610b90578063b0dbf47d14610b55578063ba1487ad14610752578063be26ed7f14610734578063c503b25114610690578063c56a00de1461061d578063c6b68508146105e3578063c81b986c146103ff578063d7098154146103d5578063d80528ae146103a0578063e734e60c14610374578063eb770d0c14610303578063f2fde38b1461028f5763fbb0de531461026e57600080fd5b3461028a57600036600319011261028a57602060405160078152f35b600080fd5b3461028a57602036600319011261028a576102a8612d58565b6102b0612e6b565b6001600160a01b039081169081156102ea576000548260018060a01b031982161760005516600080516020613fc0833981519152600080a3005b604051631e4fbdf760e01b815260006004820152602490fd5b3461028a57602036600319011261028a5760043561031f612e6b565b6706f05b59d3b20000810361036257600354811461036257806003557f565a4bfd76b3419546eefb0f3228d436837362a9b57e0c3a03227225dfec023d600080a2005b6040516358d620b360e01b8152600490fd5b3461028a57602036600319011261028a57600435600052600b6020526020604060002054604051908152f35b3461028a57600036600319011261028a57606060145463ffffffff601554166016549060405192835260208301526040820152f35b3461028a57602036600319011261028a576103ee61305f565b6103f9600435613158565b60018055005b3461028a57602036600319011261028a5760405161041c81612ba9565b60008152600060208201526000604082015260405161043a81612bd7565b60005b61014081106105ce57600060c0848460608201528260808201528260a08201520152600435600052600f60205260406000206040519061047c82612ba9565b80546001600160a01b03168252600181015460208301526002810154604080840191909152516104ab81612bd7565b6003828101906000835b600a82106105b1578660ff60228888606085015260218101546080850152015481811660a084015260081c16151560c082015260405160018060a01b03825116815260208201516020820152604082015160408201526060820151606082016000905b600a821061054c576105c08460c087608081015161056084015260ff60a082015116610580840152015115156105a0820152f35b825180516001600160401b031682526020810151600281101561059b578263ffffffff606060209460809486600198015260408101516040850152015116606082015201930191019091610518565b634e487b7160e01b600052602160045260246000fd5b8260206001926105c087613082565b8152019401910190926104b5565b6020906105d9613404565b818401520161043d565b3461028a57602036600319011261028a576001600160a01b03610604612d58565b1660005260076020526020604060002054604051908152f35b3461028a5760208060031936011261028a57610637613385565b50600435600052600981526040600020906040519061065582612bd7565b6000825b600a8210610673576040518061066f8682612cbf565b0390f35b60038360019261068288612f28565b815201950191019093610659565b3461028a57602036600319011261028a576004356001600160401b03811161028a576106c0903690600401612e0d565b60005b8151811015610732576106d68183612f14565b5190303b1561028a57604051916335c2605560e21b8352600483015260008260248183305af19182156107265761071292610717575b50612e97565b6106c3565b61072090612bc4565b8361070c565b6040513d6000823e3d90fd5b005b3461028a57600036600319011261028a576020600454604051908152f35b3461028a57604036600319011261028a576001600160401b0360043581811161028a57610783903690600401612e0d565b60243591821161028a573660238301121561028a578160040135916107a783612df6565b926107b56040519485612c0e565b808452602084019160246102808093028201019036821161028a57602401925b818410610aee576002546001600160a01b03908690889083163303610ab8578151815103610adc576032825111610aca5760005b82518110156107325761081c8184612f14565b51906108288184612f14565b519185600254163303610ab85780158015610aad575b610a9b5780600052600e8060205260406000205415610a89578160005260205260406000209260038401549060ff91828160401c169061087d82612c93565b60038214610a775760018701549081421115610a65576001836108a08895612c93565b14610a25575b50505060005b600a81106109b75750505060038301805460ff60401b1916600360401b1781556000828152601260205260409020805460ff191660011790555463ffffffff908116610969576060610964946000805160206140008339815191529284600052600b602052426040600020555b84600052600c60205284600080516020613f808339815191526020604060002054604051908152a26003600283015492015416604051918252602082015260006040820152a2612e97565b610809565b6201518042018042116109a157610964946000805160206140008339815191529260609285600052600b602052604060002055610919565b634e487b7160e01b600052601160045260246000fd5b6109c18183612ea6565b519084600052600960205260026109dc826040600020612dae565b500182516109e981612c93565b6109f281612c93565b6020825494015193600385101561059b578661ff00610a209660081b1692169061ffff191617179055612e97565b6108ac565b600160411b60ff60401b1982161760038901556040805192835263ffffffff9091166020830152600080516020613fa083398151915291a28289806108a6565b6040516312d655ab60e21b8152600490fd5b604051633778bbe160e11b8152600490fd5b604051635efb56a560e01b8152600490fd5b6040516308dd7fd960e11b8152600490fd5b50600454811161083e565b604051631bc2178f60e01b8152600490fd5b604051632061c47f60e11b8152600490fd5b604051635651f66960e11b8152600490fd5b36601f8501121561028a57604051610b0581612bd7565b8084860136811161028a5791859287949294905b808210610b31575050815294019360200190506107d5565b91935091936020604091610b453686612c31565b8152019201869391949294610b19565b3461028a57600036600319011261028a5760206040517f00000000000000000000000000000000000000000000000000000000000000008152f35b3461028a57602036600319011261028a576004356001600160401b03811161028a57610bc0903690600401612e0d565b60005b815181101561073257610bd68183612f14565b5190303b1561028a57604051916302c009ef60e01b8352600483015260008260248183305af191821561072657610c11926107175750612e97565b610bc3565b3461028a57600036600319011261028a5760206040517f00000000000000000000000000000000000000000000000000000000000000008152f35b3461028a57610c5f36612d6e565b9060005260096020526040600020600a82101561028a5761012091610c8391612dae565b50610cf4815463ffffffff92610ca26002856001840154169201612dc2565b916040519460018060401b0380831687528260401c166020870152808260801c166040870152808260a01c1660608701528160c01c16608086015260e01c60a085015260c084015260e0830190612c9d565bf35b3461028a57602036600319011261028a576004356000526012602052602060ff604060002054166040519015158152f35b3461028a57602036600319011261028a5760c060ff63ffffffff610d4c6004356134e1565b9594969093604093929351971515885216602087015260408601526060850152166080830152151560a0820152f35b3461028a57602036600319011261028a576001600160a01b03610d9c612d58565b166000526007602052604080600020546008602052816000205482519182526020820152f35b3461028a57600036600319011261028a576040517f00000000000000000000000000000000000000000000000000000000000000006001600160a01b03168152602090f35b3461028a57600036600319011261028a576000546040516001600160a01b039091168152602090f35b3461028a57602036600319011261028a576001600160a01b03610e51612d58565b1660005260066020526040600020805461066f6001830154926002810154906003810154600482015460058301549160076006850154940154946040519889988994919260e0969399989794919961010087019a8752602087015260408601526060850152608084015260a083015260c08201520152565b3461028a57610ed736612d6e565b9060005260116020526040600020600582101561028a57608091610efa91612d84565b5060018060a01b038154169060018101549060ff600360028301549201541691604051938452602084015260408301526060820152f35b3461028a57602036600319011261028a57600435600052600d602052606060406000206001815491015460405191825263ffffffff90818116602084015260201c166040820152f35b3461028a57600036600319011261028a576002546040516001600160a01b039091168152602090f35b3461028a57602036600319011261028a57610fbc612d58565b610fc4612e6b565b6001600160a01b03908116908115611018576002549081168214611018576001600160a01b03191681176002557f3f32684a32a11dabdbb8c0177de80aa3ae36a004d75210335b49e544e48cd0aa600080a2005b604051635521068160e01b8152600490fd5b3461028a57602036600319011261028a57600435600052600c6020526020604060002054604051908152f35b3461028a57604036600319011261028a5761106f612d58565b6024356000526020906010825260406000209060018060a01b03166000528152604060002060405190818382549182815201908192600052846000209060005b868282106111055786866110c582880383612c0e565b604051928392818401908285525180915260408401929160005b8281106110ee57505050500390f35b8351855286955093810193928101926001016110df565b8354855290930192600192830192016110af565b3461028a57600036600319011261028a57611132612e6b565b600080546001600160a01b0319811682556001600160a01b0316600080516020613fc08339815191528280a3005b3461028a57602036600319011261028a57602061117e600435613e58565b6040519015158152f35b3461028a57600036600319011261028a57602060405160058152f35b3461028a57602036600319011261028a576101006111c3600435613cfe565b95604095919594929451978852602088015260408701526060860152608085015260a084015260c0830152151560e0820152f35b3461028a57602036600319011261028a576001600160a01b03611218612d58565b1660005260066020526020604060002054604051908152f35b3461028a57600036600319011261028a5760206040516103e88152f35b3461028a57600036600319011261028a576020604051600a8152f35b3461028a57602036600319011261028a576001600160a01b0361128b612d58565b1660005260086020526020604060002054604051908152f35b3461028a57600036600319011261028a5760a060ff63ffffffff6112c6613429565b9395909260405196875216602086015260408501526060840152166080820152f35b3461028a57602036600319011261028a57600435600052600e60205260e0604060002060ff81549160018101546003600283015492015491838360401c16916040519586526020860152604085015263ffffffff80831660608601528260201c16608085015261135781612c93565b60a084015260481c16151560c0820152f35b61050036600319011261028a57366023121561028a5760405161138b81612bd7565b8061050436811161028a576004915b8183106118ce57836113aa61305f565b60045480156118bc5780600052600e6020526040600020600160ff600383015460401c166113d781612c93565b036118bc5760018101544210156118aa57600354340361189857816000526009602052604060002060005b600a81106116e4575050600554926040519061141d82612ba9565b3382526020820190848252604083014281526060840191825260006080850152600060a0850152600060c085015286600052600f60205260406000209260018060a01b0385511660018060a01b03198554161784555160018401555160028301555160038201906000905b600a82106116755750505060229060808301516021820155019060ff60a08201511661ff0060c08454930151151560081b169161ffff1916171790556114cf600554612e97565b60055581600052601060205260406000203360005260205260406000208054600160401b81101561165f5761150991600182018155613032565b81549060031b9085821b91600019901b191617905581600052600c6020526040600020611537348254612eb7565b905561154534601454612eb7565b601455600360155463ffffffff908161155f81831661304a565b1663ffffffff198092161760155584600052600d6020526040600020611586348254612eb7565b905584600052600d6020526001604060002001805482846115a881841661304a565b169116179055600284016115bd348254612eb7565b905582840154916115cf81841661304a565b1691161791015533600052600660205260406000206115ee8154612e97565b908181558260078201556001810154906004600282015491015491604051938452602084015260408301526060820152600080516020613fe083398151915260803392a233907ff6e7d09282448c842ef23b148b6dfa2dc4b69839898341f8fb5065eb496cb0fa600080a460018055005b634e487b7160e01b600052604160045260246000fd5b805160018060401b0381511690845492602082015191600283101561059b5760019460039460209460ff60401b9060401b1691878060481b0319161717875560408101518588015563ffffffff6060600289019201511663ffffffff1982541617905501930191019091611488565b6116ee8186612ea6565b5180516001600160401b03908116906117078486612dae565b505416036118865761172261171c8385612dae565b50612f28565b602082018051906002918281101561059b57611810575050604082018051611748612fdb565b60208151910120146000146117ae57506040015163ffffffff165b63ffffffff80911691821561179c5760600151160361178a5761178590612e97565b611402565b60405163491f773b60e11b8152600490fd5b604051638d83e18960e01b8152600490fd5b80516117b8612ff8565b60208151910120146000146117d757506060015163ffffffff16611763565b516117e0613015565b60208151910120146000146117fe576080015163ffffffff16611763565b604051631efccef760e11b8152600490fd5b519081101561059b576001036118745760408201805161182e612f9a565b602081519101201460001461184d575060a0015163ffffffff16611763565b51611856612fba565b60208151910120146000146117fe5760c0015163ffffffff16611763565b6040516391c402a160e01b8152600490fd5b604051630871c42b60e21b8152600490fd5b60405163cd1c886760e01b8152600490fd5b6040516330e2a62560e11b8152600490fd5b60405163a7cdc26d60e01b8152600490fd5b60808336031261028a57604051906118e582612b72565b6118ee84612c6e565b82526020908185013592600284101561028a576080938382015260408601356040820152606061191f818801612c82565b9082015281520192019161139a565b3461028a57602036600319011261028a576001600160a01b0361194f612d58565b166000526006602052610140604060002080549060018101549060028101549060038101549060048101546005820154906007600684015493015493600760205260406000205495600860205260406000205497604051998a5260208a015260408901526060880152608087015260a086015260c085015260e0840152610100830152610120820152f35b3461028a57602036600319011261028a57600435600052600f60205260c0604060002060ff60018060a01b038254169160018101549060028101546022602183015492015492604051958652602086015260408501526060840152818116608084015260081c16151560a0820152f35b3461028a57602036600319011261028a57600435600052600a6020526020604060002054604051908152f35b3461028a57602036600319011261028a5761066f611a95600435613e93565b60405191829182612cbf565b3461028a57610b4036600319011261028a57366023121561028a57604051611ac881612bd7565b80610b4436811161028a576004915b818310611edf576002805485906001600160a01b03163303610ab8574261012c8101916001600160401b039183109060005b600a80821015611c5857611b1d8284612ea6565b5180519091906001600160401b031615611c46576020820180519092906001600160401b0316866109a157881015611c345763ffffffff80604083015116158015611c26575b8015611c18575b61179c578060a08301511615908115611c09575b5061179c57600184018085116109a1575b828110611bc957505090516001600160401b03908116915085168110611bbf575b50611bba90612e97565b611b09565b9350611bba611bb0565b81516001600160401b0390811690611be18389612ea6565b51511614611bf757611bf290612e97565b611b8f565b60405163b90af29360e01b8152600490fd5b905060c082015116158a611b7e565b508060808301511615611b6a565b508060608301511615611b63565b604051630a5c9ce760e31b8152600490fd5b604051631632113760e31b8152600490fd5b82878787876109a1576001600160401b031690811115611c3457611c7d600454612e97565b9182600455600019918284018481116109a157611c9990613964565b61012b19016001600160401b0381116109a15760018060401b03169083600052602092600984526040600020956000905b600a8210611dea575050847f62eeb403dc233a7676f50cdb0fd72dae595aeb7c63039adce5caacc33254f9c0959650600052600a845282604060002055600b845260406000205560128352604060002060ff198154169055604051611d2e81612ba9565b42815283810190838252611da5604082019160008352600360608201916000835260808101966000885260a08201956001875260c0830197600089528d600052600e8c526040600020935184555160018401555190820155019463ffffffff8092511663ffffffff19875416178655511684612ef1565b5190611db082612c93565b611db982612c93565b8254905161ffff60401b19909116604092831b60ff60401b161790151560481b60ff60481b161790915551908152a2005b8051805187820151604080840151606085015160808087015160a08089015160c092831b63ffffffff60c01b169490911b63ffffffff60a01b169490921b63ffffffff60801b169590941b600160401b600160801b03166001600160401b03969096169590951793909317179190911760e092831b6001600160e01b031916178b5582015160018b01805463ffffffff191663ffffffff92909216919091179055015180519091858a0190611e9e83612c93565b611ea783612c93565b888254940151916003938484101561059b5760019560ff61ff008d9660081b1692169061ffff19161717905501980191019096611cca565b6101208336031261028a5760405161012091611efa82612b8d565b611f0385612c6e565b8252602091611f13838701612c6e565b83820152611f2360408701612c82565b60408201526060611f35818801612c82565b908201526080611f46818801612c82565b9082015260a0611f57818801612c82565b9082015260c0611f68818801612c82565b90820152611f793660e08801612c31565b60e0820152815201920191611ad7565b3461028a576102a036600319011261028a57600435366043121561028a57604051611fb381612bd7565b806102a436811161028a5760249182905b82821061221e57505060028054909291506001600160a01b03163303610ab85783158015612213575b610a9b5783600052602091600e835260406000205415610a895784600052600e83526040600020600380820195865460ff90818160401c169061202f82612c93565b848214610a775760018601549081421115610a65576001836120518e95612c93565b146121d7575b50505060005b600a8110612154575050865460ff60401b1916600360401b178755505060008681526012855260409020805460ff19166001179055845463ffffffff9390841661210757509160609391600080516020614000833981519152959387600052600b8452426040600020555b87600052600c845287600080516020613f8083398151915285604060002054604051908152a201549254169060405192835282015260006040820152a2005b620151804201908142116121405750916000805160206140008339815191529593916060959388600052600b85526040600020556120c8565b634e487b7160e01b60009081526011600452fd5b61215e8184612ea6565b518a6000526009895286612176836040600020612dae565b50019080519061218582612c93565b61218e82612c93565b8a8354910151878110156121c257908561ff006121bd9695949360081b1692169061ffff191617179055612e97565b61205d565b8a634e487b7160e01b60005260216004526000fd5b600160411b60ff60401b198216178b556040805192835263ffffffff9091168a830152600080516020613fa083398151915291a2888a80612057565b506004548411611fed565b602060409161222d3685612c31565b815201910190611fc4565b3461028a57602036600319011261028a5760e060ff612258600435613ad5565b959694909360409392935197885263ffffffff8092166020890152166040870152606086015260808501521660a0830152151560c0820152f35b3461028a57604036600319011261028a5760243560ff811680910361028a576004356000526013602052604060002090600052602052602060ff604060002054166040519015158152f35b3461028a57600036600319011261028a57602060405160328152f35b3461028a5760208060031936011261028a5760405161231781612b57565b8160005b60a081106123f357506004356000526011815260406000206040519061234082612b57565b600083835b600583106123a757508360405191826000905b600582106123665761028085f35b835180516001600160a01b0316825280840151828501526040808201519083015260609081015160ff16908201529282019260019190910190608001612358565b6001916004916040516123b981612b72565b848060a01b03875416815284870154838201526002870154604082015260ff60038801541660608201528152019301910190918490612345565b6123fb613404565b8184015201829061231b565b3461028a57600036600319011261028a576020600354604051908152f35b3461028a57600036600319011261028a576020600554604051908152f35b3461028a57602036600319011261028a5761245c61305f565b6005546004351015612b4557600435600052600f602052604060002060018101549081600052600e602052600360ff816040600020015460401c166124a081612c93565b03612b335760228101549060ff8260081c16612b21576000916103e890846000526009602052604060002060005b600a811061292657505061ffff191660ff84169081176101001760228401551561291d57905b81602182015561254e60018060a01b039384938484541687816040517ff3324f053660448de57e1a850bb27d9eb7877e61696945b435201c118fc8de5e6004359180612541888a83613104565b0390a460043590886135c0565b541690816000526006602052604060002090836000526010602052604060002083600052602052604060002080549081612641575b505050608081600080516020613fe08339815191529254906001810154906004600282015491015491604051938452602084015260408301526060820152a280600052600d6020526040600020600e602052600160406000209101612617600363ffffffff936126016125fb86865460201c1661304a565b85612ef1565b0161261184825460201c1661304a565b90612ef1565b54908082169160201c161461262c5760018055005b600052600b60205242604060002055806103f9565b9193926000199290918381019081116109a15761265d91613032565b90549060031b1c600052600f6020526040600020916022830192600760ff855416101560001461290857600183016126958154612e97565b905560ff8454168560005260086020526126b56040600020918254612eb7565b9055600360ff85541660088110156128ff575b60098110156128f6575b600a146128ee575b60009660005b600560ff8216106128b1575b505090919293949561288f575b6021820154600285018054821161287c575b505090600784015492600184018094116109a1578693880361287057600585016127358154612e97565b8091556006860180548211612858575b50505b8360005260076020526040600020612761848254612eb7565b9055845491826127c1575b50505090600080516020613f6083398151915260606080949360ff600080516020613fe08339815191529754168460005260076020526040600020549060405192835260208301526040820152a29185612583565b90919294935060038401918254908401908482116109a1576127fb9260216127ed87946127f694612ed1565b91015490612eb7565b6130e4565b9055600182015493612710948581029581870414901517156109a157606060809460ff600080516020613f60833981519152936128488a96600080516020613fe08339815191529a6130e4565b600488015597505092939461276c565b556003830193509183106109a1578592918880612745565b60016005860155612748565b55600281018091116109a157878061270b565b600a8101809111156126f957634e487b7160e01b600052601160045260246000fd5b89600052601160205287826128ca836040600020612d84565b505416146128e0576128db906130d3565b6126e0565b5060019750899050806126ec565b5060086126da565b600691506126d2565b600491506126c8565b84955060006005849596940155600191612748565b506000906124f4565b61293c6129368260038801612dae565b50613082565b61294961171c8385612dae565b6000906020830151600281101561059b57612a84576040830190815161296d612fdb565b60208151910120149182612a61575b8215612a20575b82156129db575b50506129d3575b6129a5575b506129a090612e97565b6124ce565b956129cb6129a0929563ffffffff60606129c16103e8956130d3565b9a01511690612ed1565b049390612996565b506001612991565b909150516129e7613015565b602081519101201490816129fe575b508a8061298a565b6003915060e0015151612a1081612c93565b612a1981612c93565b148a6129f6565b80925051612a2c612ff8565b602081519101201480612a40575b91612983565b50600260e082015151612a5281612c93565b612a5b81612c93565b14612a3a565b9150600160e082015151612a7481612c93565b612a7d81612c93565b149161297c565b6040830151612a91612f9a565b60208151910120149081612afd575b8115612ab5575b501561299157506001612991565b90506040830151612ac4612fba565b60208151910120149081612ada575b508a612aa7565b60e00151612aeb9150602001612ee4565b600381101561059b576002148a612ad3565b9050612b0f602060e083015101612ee4565b600381101561059b5760011490612aa0565b604051636d3e967760e01b8152600490fd5b6040516328ae54ed60e01b8152600490fd5b604051633cb68a9d60e21b8152600490fd5b60a081019081106001600160401b0382111761165f57604052565b608081019081106001600160401b0382111761165f57604052565b61010081019081106001600160401b0382111761165f57604052565b60e081019081106001600160401b0382111761165f57604052565b6001600160401b03811161165f57604052565b61014081019081106001600160401b0382111761165f57604052565b604081019081106001600160401b0382111761165f57604052565b601f909101601f19168101906001600160401b0382119082101761165f57604052565b919082604091031261028a57604051612c4981612bf3565b8092803590600482101561028a576020918352013590600382101561028a5760200152565b35906001600160401b038216820361028a57565b359063ffffffff8216820361028a57565b6004111561059b57565b6020908051612cab81612c93565b8352015190600382101561059b5760200152565b610b40810192916000915b600a8310612cd757505050565b600190610120835191612d4c848060401b039384815116835260209485820151168584015263ffffffff60408181840151169085015260608181840151169085015260808181840151169085015260a08181840151169085015260c09081830151169084015260e08091015190830190612c9d565b01920192019190612cca565b600435906001600160a01b038216820361028a57565b604090600319011261028a576004359060243590565b906005811015612d985760021b0190600090565b634e487b7160e01b600052603260045260246000fd5b90600a811015612d98576003020190600090565b90604051612dcf81612bf3565b60ff819354818116612de081612c93565b835260081c1690600382101561059b5760200152565b6001600160401b03811161165f5760051b60200190565b81601f8201121561028a57803591612e2483612df6565b92612e326040519485612c0e565b808452602092838086019260051b82010192831161028a578301905b828210612e5c575050505090565b81358152908301908301612e4e565b6000546001600160a01b03163303612e7f57565b60405163118cdaa760e01b8152336004820152602490fd5b60001981146109a15760010190565b90600a811015612d985760051b0190565b919082018092116109a157565b919082039182116109a157565b818102929181159184041417156109a157565b51600381101561059b5790565b805463ffffffff60201b191660209290921b63ffffffff60201b16919091179055565b8051821015612d985760209160051b010190565b90604051612f3581612b8d565b60e0612f9560028395805460018060401b0380821687528160401c16602087015263ffffffff90818160801c166040880152818160a01c166060880152818160c01c166080880152851c60a087015260018201541660c086015201612dc2565b910152565b60405190612fa782612bf3565b600482526327bb32b960e11b6020830152565b60405190612fc782612bf3565b60058252642ab73232b960d91b6020830152565b60405190612fe882612bf3565b60018252603160f81b6020830152565b6040519061300582612bf3565b60018252600b60fb1b6020830152565b6040519061302282612bf3565b60018252601960f91b6020830152565b8054821015612d985760005260206000200190600090565b63ffffffff8091169081146109a15760010190565b600260015414613070576002600155565b604051633ee5aeb560e01b8152600490fd5b9060405161308f81612b72565b82546001600160401b03811682529092839160401c60ff1690600282101561059b57600263ffffffff91606093602086015260018101546040860152015416910152565b60ff1660ff81146109a15760010190565b81156130ee570490565b634e487b7160e01b600052601260045260246000fd5b6020909392919360ff60408201951681520152565b3d15613153573d906001600160401b03821161165f5760405191613147601f8201601f191660200184612c0e565b82523d6000602084013e565b606090565b6000908082526020600e815260ff92604091600385818585200154851c1661317f81612c93565b0361337457838252600b8152828220544210613363578382526011815282822082908390845b60058982161061332d575b50501561331c578483526013825283832095808216968785528352848420541661330b57848352600c8252838320546131e8916138d8565b9182156132ea57848152601382528381208682528252838120805460ff19166001179055808080806132486127106132407f00000000000000000000000000000000000000000000000000000000000000008a612ed1565b048098612ec4565b967f00000000000000000000000000000000000000000000000000000000000000006001600160a01b03165af161327d613119565b50156132d95780808085335af1613292613119565b50156132c857825194855284015233927f64da964e036dd66a7be792791f60a47ec5378950b9d12795de3f453aa3940eb09190a3565b82516312171d8360e31b8152600490fd5b83516312171d8360e31b8152600490fd5b93845260138152828420948452939093529020805460ff1916600117905550565b835163611ab18960e11b8152600490fd5b835163b305461d60e01b8152600490fd5b6133378183612d84565b50546001600160a01b0316331461335657613351906130d3565b6131a5565b92505050600138806131b0565b8251632ff18b4b60e11b8152600490fd5b82516328ae54ed60e01b8152600490fd5b604090815161339381612bd7565b809260005b61014081106133a657505050565b60209082516133b481612b8d565b60008152826000818301526000858301526000606083015260006080830152600060a0830152600060c083015260008551916133ef83612bf3565b81835282015260e08201528185015201613398565b6040519061341182612b72565b60006060838281528260208201528260408201520152565b600454806134435750600090600090600090600090600090565b9081600052600e6020526040600020906040519261346084612ba9565b8254845260018301549160208501928352600360028501549460408701958652015494606081019363ffffffff918288168652828860201c16608082015260c060ff808a60401c16996134b28b612c93565b8a60a085015260481c1615159101526134ca87612c93565b6134d387612c93565b519451935116919493929190565b801580156135a8575b61359357600052600e60205260406000206040519161350883612ba9565b81548352600182015460208401908152600360028401549360408601948552015490606085019263ffffffff8084168552808460201c16608088015260ff8460401c169661355588612c93565b8760a082015260ff60c082019560481c16151585525115159261357788612c93565b61358088612c93565b5195519451169251151591959493929190565b50600090600090600090600090600090600090565b5060045481116134ea565b80156109a1576000190190565b91929493909460ff80921690600782106138b357600091848352601192602084815260409283832095600019968a8552600f90818552600291828888200154600591825b6137d4575b5050506000198903613626575b5050505050505050505050509050565b600492835b8a81116137235750508b6136449c9d9e88519d8e612b72565b60018060a01b038091169d8e815287810192835261366f8c8b8301958d875260608401998a52612d84565b96909661371157505185546001600160a01b0319169116178455516001840155519082015590516003918201805460ff1916918916919091179055878352600e9091529082902001805460ff60481b1916600160481b179055517f2eb45d01ab90204a94f80f77d0fcf5d9e24539fb9e9ffa39dd9135e210a2672d93909283926136fc9290911683613104565b0390a480388080808080808080808080613616565b634e487b7160e01b8a52899052602489fd5b60001981018181116137c2576137399084612d84565b506137448285612d84565b6137b057908d828261375f959403613764575b5050506135b3565b61362b565b825481546001600160a01b0319166001600160a01b03919091161781556001838101549082015587830154888201556003928301549201805460ff191691909216179055388d81613757565b634e487b7160e01b8a5289875260248afd5b634e487b7160e01b8952828652602489fd5b90919a6000198c01908c821161389f578b8e6137f08488612d84565b50908c92898301549081811160001461382a57505050505060015b15613823575061381b909b6135b3565b919082613604565b9b50613609565b14613837575b505061380b565b600382015416808b11156138525750505060015b388f613830565b8a1461385f575b5061384b565b80546001600160a01b031661387957505060015b38613859565b6001809101548c52848b52878d8d2001548610613897575b50613873565b905038613891565b634e487b7160e01b8a52600487905260248afd5b50505050509050565b6101f4908181029181830414901517156109a157612710900490565b60009060ff16806138f95750506138f561271091610fa090612ed1565b0490565b600181036139135750506138f561271091610bb890612ed1565b6002810361392d5750506138f5612710916107d090612ed1565b600381036139475750506138f5612710916101f490612ed1565b60040361395f57506138f5612710916101f490612ed1565b905090565b8015613ac15760008181526011602052604080822080546001600160a01b039493929190851615908115613aae575b5061399f575b50505050565b600c6020528082205491826139b5575b50613999565b6139ed6127106139e57f000000000000000000000000000000000000000000000000000000000000000086612ed1565b048094612ec4565b92848252600c60205281838120556001850195868611613a9a578280928192898352600c602052868320613a22898254612eb7565b90557f0000000000000000000000000000000000000000000000000000000000000000165af1613a50613119565b5015613a8a577fd02ee9eafb934e2ffd95384478ef177c9932fd0d6cb1813747b8eefdf55d8b199160209151908152a338808080806139af565b516312171d8360e31b8152600490fd5b634e487b7160e01b83526011600452602483fd5b60079150600360ff910154161038613993565b50565b906005811015612d985760051b0190565b9081158015613cf3575b613ce15760008281526020600e815260409182812094835194613b0186612ba9565b865486526001870154848701526003600288015497868801988952015460ff60c063ffffffff9889841660608201528984891c16608082015282848a1c16613b4881612c93565b60a0820152019160481c1615158152828452600d8552858420938651946060860186811060018060401b03821117613ccd579060019189528054875201549886860194898b168652898988019b891c168b5282526011875287822096885197613bb089612b57565b9083908a8a5b60058410613c8157505050505081938295835b60ff81166005811015613c4d578a908c908a6001600160a01b03613bed8386613ac4565b515116613c07575b50505050613c02906130d3565b613bc9565b9091613c1e83613c1883969d6130d3565b9c613ac4565b51015111613c30575b908b918a613bf5565b613c02929950613c40908c613ac4565b5101519790508a38613c27565b5050939992985093958291959750519251169851169651159283613c76575b5096959493929190565b511515925038613c6c565b82600491836001945190613c9482612b72565b858060a01b038954168252858901548483015260028901549082015260ff60038901541660608201528152019401920191928b90613bb6565b634e487b7160e01b83526041600452602483fd5b90506000906000908180918180918190565b506004548211613adf565b906000918252600c6020526040822054908115613e4957600e6020526040832060ff600360405192613d2f84612ba9565b805484526001810154602085015260028101546040850152015463ffffffff80821660608501528160201c166080840152818160401c16613d6f81612c93565b60a084015260481c16159060c08215910152613e0a57610fa0820292610f9f1983850401613df657610bb8830292610bb71981850401613de2576107d08102926107cf1982850401613a9a57613dc4826138bc565b92613dce836138bc565b929661271080809204970495049392918190565b634e487b7160e01b82526011600452602482fd5b634e487b7160e01b81526011600452602490fd5b9190612710613e397f000000000000000000000000000000000000000000000000000000000000000083612ed1565b0490928280928192829190600190565b90508180918180918180918190565b60045481118015613e8b575b613e85576000908152600960205260409020546001600160401b0316151590565b50600090565b508015613e64565b613e9b613385565b5060045481111580613f56575b15613f1a5760005260206009815260406000209060405191613ec983612bd7565b90600090835b600a8310613efd5750508251516001600160401b0316159150613ef190505790565b50613efa613385565b90565b600382600192613f0c87612f28565b815201940192019192613ecf565b60405162461bcd60e51b815260206004820152601460248201527310de58db1948191bd95cc81b9bdd08195e1a5cdd60621b6044820152606490fd5b50801515613ea856fe9c7b6f99cba4ae2b8837d2a4ff724e1273427755c6f2e43bac3108bccb98b66add45cfbd9f2d20e6b7b6f5fa3148363d48017feae0c98de41ec4435a5aa754464be5baac7841559fb74c0921ff46bde6d2bf126b474aefdfa655c08029415acc8be0079c531659141344cd1fd0a4f28419497f9722a3daafe3b4186f6b6457e0dbc55064e49993e4c979488990287b80a393512ce56bbe0cb3834df880cf97c797a418b8eba38918e37c3358c1e3164bfac2cc587f136c8b2833e66fcb3e4580a2646970667358221220246b693a603d0a84355f89fc7f338c7219de33a6a926f3c039ad9a709349396164736f6c63430008140033",
  "linkReferences": {},
  "deployedLinkReferences": {}
}