{
  "_format": "hh-sol-artifact-1",
  "contractName": "OptimisticOracle",
  "sourceName": "contracts/OptimisticOracle.sol",
  "abi": [
    {
      "inputs": [
        {
          "internalType": "address",
          "name": "_bondToken",
          "type": "address"
        },
        {
          "internalType": "address",
          "name": "_bitredictPool",
          "type": "address"
        }
      ],
      "stateMutability": "nonpayable",
      "type": "constructor"
    },
    {
      "inputs": [
        {
          "internalType": "address",
          "name": "owner",
          "type": "address"
        }
      ],
      "name": "OwnableInvalidOwner",
      "type": "error"
    },
    {
      "inputs": [
        {
          "internalType": "address",
          "name": "account",
          "type": "address"
        }
      ],
      "name": "OwnableUnauthorizedAccount",
      "type": "error"
    },
    {
      "anonymous": false,
      "inputs": [
        {
          "indexed": true,
          "internalType": "bytes32",
          "name": "marketId",
          "type": "bytes32"
        },
        {
          "indexed": true,
          "internalType": "address",
          "name": "claimer",
          "type": "address"
        },
        {
          "indexed": false,
          "internalType": "uint256",
          "name": "amount",
          "type": "uint256"
        }
      ],
      "name": "BondClaimed",
      "type": "event"
    },
    {
      "anonymous": false,
      "inputs": [
        {
          "indexed": true,
          "internalType": "bytes32",
          "name": "marketId",
          "type": "bytes32"
        },
        {
          "indexed": true,
          "internalType": "uint256",
          "name": "poolId",
          "type": "uint256"
        },
        {
          "indexed": false,
          "internalType": "string",
          "name": "question",
          "type": "string"
        },
        {
          "indexed": false,
          "internalType": "string",
          "name": "category",
          "type": "string"
        },
        {
          "indexed": false,
          "internalType": "uint256",
          "name": "eventEndTime",
          "type": "uint256"
        }
      ],
      "name": "MarketCreated",
      "type": "event"
    },
    {
      "anonymous": false,
      "inputs": [
        {
          "indexed": true,
          "internalType": "bytes32",
          "name": "marketId",
          "type": "bytes32"
        },
        {
          "indexed": false,
          "internalType": "bytes32",
          "name": "finalOutcome",
          "type": "bytes32"
        },
        {
          "indexed": false,
          "internalType": "address",
          "name": "winner",
          "type": "address"
        },
        {
          "indexed": false,
          "internalType": "uint256",
          "name": "reward",
          "type": "uint256"
        }
      ],
      "name": "MarketResolved",
      "type": "event"
    },
    {
      "anonymous": false,
      "inputs": [
        {
          "indexed": true,
          "internalType": "bytes32",
          "name": "marketId",
          "type": "bytes32"
        },
        {
          "indexed": true,
          "internalType": "address",
          "name": "disputer",
          "type": "address"
        },
        {
          "indexed": false,
          "internalType": "uint256",
          "name": "bond",
          "type": "uint256"
        }
      ],
      "name": "OutcomeDisputed",
      "type": "event"
    },
    {
      "anonymous": false,
      "inputs": [
        {
          "indexed": true,
          "internalType": "bytes32",
          "name": "marketId",
          "type": "bytes32"
        },
        {
          "indexed": true,
          "internalType": "address",
          "name": "proposer",
          "type": "address"
        },
        {
          "indexed": false,
          "internalType": "bytes32",
          "name": "outcome",
          "type": "bytes32"
        },
        {
          "indexed": false,
          "internalType": "uint256",
          "name": "bond",
          "type": "uint256"
        }
      ],
      "name": "OutcomeProposed",
      "type": "event"
    },
    {
      "anonymous": false,
      "inputs": [
        {
          "indexed": true,
          "internalType": "address",
          "name": "previousOwner",
          "type": "address"
        },
        {
          "indexed": true,
          "internalType": "address",
          "name": "newOwner",
          "type": "address"
        }
      ],
      "name": "OwnershipTransferred",
      "type": "event"
    },
    {
      "anonymous": false,
      "inputs": [
        {
          "indexed": true,
          "internalType": "address",
          "name": "user",
          "type": "address"
        },
        {
          "indexed": false,
          "internalType": "string",
          "name": "action",
          "type": "string"
        },
        {
          "indexed": false,
          "internalType": "int256",
          "name": "reputationDelta",
          "type": "int256"
        },
        {
          "indexed": true,
          "internalType": "bytes32",
          "name": "marketId",
          "type": "bytes32"
        },
        {
          "indexed": false,
          "internalType": "uint256",
          "name": "timestamp",
          "type": "uint256"
        }
      ],
      "name": "ReputationAction",
      "type": "event"
    },
    {
      "anonymous": false,
      "inputs": [
        {
          "indexed": true,
          "internalType": "address",
          "name": "user",
          "type": "address"
        },
        {
          "indexed": false,
          "internalType": "uint256",
          "name": "oldReputation",
          "type": "uint256"
        },
        {
          "indexed": false,
          "internalType": "uint256",
          "name": "newReputation",
          "type": "uint256"
        }
      ],
      "name": "ReputationUpdated",
      "type": "event"
    },
    {
      "anonymous": false,
      "inputs": [
        {
          "indexed": true,
          "internalType": "bytes32",
          "name": "marketId",
          "type": "bytes32"
        },
        {
          "indexed": true,
          "internalType": "address",
          "name": "voter",
          "type": "address"
        },
        {
          "indexed": false,
          "internalType": "bytes32",
          "name": "outcome",
          "type": "bytes32"
        },
        {
          "indexed": false,
          "internalType": "uint256",
          "name": "votingPower",
          "type": "uint256"
        }
      ],
      "name": "VoteCast",
      "type": "event"
    },
    {
      "inputs": [],
      "name": "CHALLENGE_WINDOW",
      "outputs": [
        {
          "internalType": "uint256",
          "name": "",
          "type": "uint256"
        }
      ],
      "stateMutability": "view",
      "type": "function"
    },
    {
      "inputs": [],
      "name": "DISPUTE_BOND",
      "outputs": [
        {
          "internalType": "uint256",
          "name": "",
          "type": "uint256"
        }
      ],
      "stateMutability": "view",
      "type": "function"
    },
    {
      "inputs": [],
      "name": "MIN_DISPUTE_REPUTATION",
      "outputs": [
        {
          "internalType": "uint256",
          "name": "",
          "type": "uint256"
        }
      ],
      "stateMutability": "view",
      "type": "function"
    },
    {
      "inputs": [],
      "name": "MIN_REPUTATION",
      "outputs": [
        {
          "internalType": "uint256",
          "name": "",
          "type": "uint256"
        }
      ],
      "stateMutability": "view",
      "type": "function"
    },
    {
      "inputs": [],
      "name": "PROPOSAL_BOND",
      "outputs": [
        {
          "internalType": "uint256",
          "name": "",
          "type": "uint256"
        }
      ],
      "stateMutability": "view",
      "type": "function"
    },
    {
      "inputs": [],
      "name": "RESOLUTION_WINDOW",
      "outputs": [
        {
          "internalType": "uint256",
          "name": "",
          "type": "uint256"
        }
      ],
      "stateMutability": "view",
      "type": "function"
    },
    {
      "inputs": [
        {
          "internalType": "uint256",
          "name": "",
          "type": "uint256"
        }
      ],
      "name": "allMarkets",
      "outputs": [
        {
          "internalType": "bytes32",
          "name": "",
          "type": "bytes32"
        }
      ],
      "stateMutability": "view",
      "type": "function"
    },
    {
      "inputs": [
        {
          "internalType": "address[]",
          "name": "users",
          "type": "address[]"
        },
        {
          "internalType": "uint256[]",
          "name": "reputations",
          "type": "uint256[]"
        }
      ],
      "name": "batchSetReputations",
      "outputs": [],
      "stateMutability": "nonpayable",
      "type": "function"
    },
    {
      "inputs": [],
      "name": "bitredictPool",
      "outputs": [
        {
          "internalType": "contract IBitredictPool",
          "name": "",
          "type": "address"
        }
      ],
      "stateMutability": "view",
      "type": "function"
    },
    {
      "inputs": [],
      "name": "bondToken",
      "outputs": [
        {
          "internalType": "contract IERC20",
          "name": "",
          "type": "address"
        }
      ],
      "stateMutability": "view",
      "type": "function"
    },
    {
      "inputs": [
        {
          "internalType": "bytes32",
          "name": "",
          "type": "bytes32"
        },
        {
          "internalType": "uint256",
          "name": "",
          "type": "uint256"
        }
      ],
      "name": "categoryMarkets",
      "outputs": [
        {
          "internalType": "bytes32",
          "name": "",
          "type": "bytes32"
        }
      ],
      "stateMutability": "view",
      "type": "function"
    },
    {
      "inputs": [
        {
          "internalType": "bytes32",
          "name": "marketId",
          "type": "bytes32"
        }
      ],
      "name": "claimBonds",
      "outputs": [],
      "stateMutability": "nonpayable",
      "type": "function"
    },
    {
      "inputs": [
        {
          "internalType": "bytes32",
          "name": "marketId",
          "type": "bytes32"
        },
        {
          "internalType": "uint256",
          "name": "poolId",
          "type": "uint256"
        },
        {
          "internalType": "string",
          "name": "question",
          "type": "string"
        },
        {
          "internalType": "string",
          "name": "category",
          "type": "string"
        },
        {
          "internalType": "uint256",
          "name": "eventEndTime",
          "type": "uint256"
        }
      ],
      "name": "createMarket",
      "outputs": [],
      "stateMutability": "nonpayable",
      "type": "function"
    },
    {
      "inputs": [
        {
          "internalType": "bytes32",
          "name": "marketId",
          "type": "bytes32"
        }
      ],
      "name": "disputeOutcome",
      "outputs": [],
      "stateMutability": "nonpayable",
      "type": "function"
    },
    {
      "inputs": [
        {
          "internalType": "bytes32",
          "name": "",
          "type": "bytes32"
        }
      ],
      "name": "disputes",
      "outputs": [
        {
          "internalType": "bytes32",
          "name": "marketId",
          "type": "bytes32"
        },
        {
          "internalType": "uint256",
          "name": "totalVotingPower",
          "type": "uint256"
        },
        {
          "internalType": "uint256",
          "name": "disputeEndTime",
          "type": "uint256"
        },
        {
          "internalType": "bool",
          "name": "resolved",
          "type": "bool"
        }
      ],
      "stateMutability": "view",
      "type": "function"
    },
    {
      "inputs": [
        {
          "internalType": "bytes32",
          "name": "marketId",
          "type": "bytes32"
        },
        {
          "internalType": "bytes32",
          "name": "outcome",
          "type": "bytes32"
        }
      ],
      "name": "emergencyResolveMarket",
      "outputs": [],
      "stateMutability": "nonpayable",
      "type": "function"
    },
    {
      "inputs": [
        {
          "internalType": "bytes32",
          "name": "marketId",
          "type": "bytes32"
        }
      ],
      "name": "emergencyWithdrawBonds",
      "outputs": [],
      "stateMutability": "nonpayable",
      "type": "function"
    },
    {
      "inputs": [],
      "name": "getAllMarkets",
      "outputs": [
        {
          "internalType": "bytes32[]",
          "name": "",
          "type": "bytes32[]"
        }
      ],
      "stateMutability": "view",
      "type": "function"
    },
    {
      "inputs": [
        {
          "internalType": "bytes32",
          "name": "marketId",
          "type": "bytes32"
        }
      ],
      "name": "getDispute",
      "outputs": [
        {
          "internalType": "uint256",
          "name": "totalVotingPower",
          "type": "uint256"
        },
        {
          "internalType": "uint256",
          "name": "disputeEndTime",
          "type": "uint256"
        },
        {
          "internalType": "bool",
          "name": "resolved",
          "type": "bool"
        },
        {
          "internalType": "address[]",
          "name": "voters",
          "type": "address[]"
        }
      ],
      "stateMutability": "view",
      "type": "function"
    },
    {
      "inputs": [
        {
          "internalType": "bytes32",
          "name": "marketId",
          "type": "bytes32"
        }
      ],
      "name": "getMarket",
      "outputs": [
        {
          "components": [
            {
              "internalType": "bytes32",
              "name": "marketId",
              "type": "bytes32"
            },
            {
              "internalType": "uint256",
              "name": "poolId",
              "type": "uint256"
            },
            {
              "internalType": "string",
              "name": "question",
              "type": "string"
            },
            {
              "internalType": "string",
              "name": "category",
              "type": "string"
            },
            {
              "internalType": "bytes32",
              "name": "proposedOutcome",
              "type": "bytes32"
            },
            {
              "internalType": "address",
              "name": "proposer",
              "type": "address"
            },
            {
              "internalType": "uint256",
              "name": "proposalTime",
              "type": "uint256"
            },
            {
              "internalType": "uint256",
              "name": "proposalBond",
              "type": "uint256"
            },
            {
              "internalType": "address",
              "name": "disputer",
              "type": "address"
            },
            {
              "internalType": "uint256",
              "name": "disputeTime",
              "type": "uint256"
            },
            {
              "internalType": "uint256",
              "name": "disputeBond",
              "type": "uint256"
            },
            {
              "internalType": "bytes32",
              "name": "finalOutcome",
              "type": "bytes32"
            },
            {
              "internalType": "enum OptimisticOracle.MarketState",
              "name": "state",
              "type": "uint8"
            },
            {
              "internalType": "uint256",
              "name": "eventEndTime",
              "type": "uint256"
            },
            {
              "internalType": "bool",
              "name": "bondsClaimed",
              "type": "bool"
            }
          ],
          "internalType": "struct OptimisticOracle.Market",
          "name": "",
          "type": "tuple"
        }
      ],
      "stateMutability": "view",
      "type": "function"
    },
    {
      "inputs": [
        {
          "internalType": "string",
          "name": "category",
          "type": "string"
        }
      ],
      "name": "getMarketsByCategory",
      "outputs": [
        {
          "internalType": "bytes32[]",
          "name": "",
          "type": "bytes32[]"
        }
      ],
      "stateMutability": "view",
      "type": "function"
    },
    {
      "inputs": [
        {
          "internalType": "bytes32",
          "name": "marketId",
          "type": "bytes32"
        }
      ],
      "name": "getOutcome",
      "outputs": [
        {
          "internalType": "bool",
          "name": "isSettled",
          "type": "bool"
        },
        {
          "internalType": "bytes",
          "name": "outcome",
          "type": "bytes"
        }
      ],
      "stateMutability": "view",
      "type": "function"
    },
    {
      "inputs": [
        {
          "internalType": "bytes32",
          "name": "marketId",
          "type": "bytes32"
        },
        {
          "internalType": "bytes32",
          "name": "outcome",
          "type": "bytes32"
        }
      ],
      "name": "getOutcomeTotals",
      "outputs": [
        {
          "internalType": "uint256",
          "name": "",
          "type": "uint256"
        }
      ],
      "stateMutability": "view",
      "type": "function"
    },
    {
      "inputs": [
        {
          "internalType": "bytes32",
          "name": "marketId",
          "type": "bytes32"
        },
        {
          "internalType": "address",
          "name": "voter",
          "type": "address"
        }
      ],
      "name": "getVote",
      "outputs": [
        {
          "internalType": "bytes32",
          "name": "outcome",
          "type": "bytes32"
        },
        {
          "internalType": "uint256",
          "name": "votingPower",
          "type": "uint256"
        },
        {
          "internalType": "uint256",
          "name": "timestamp",
          "type": "uint256"
        }
      ],
      "stateMutability": "view",
      "type": "function"
    },
    {
      "inputs": [
        {
          "internalType": "bytes32",
          "name": "",
          "type": "bytes32"
        }
      ],
      "name": "markets",
      "outputs": [
        {
          "internalType": "bytes32",
          "name": "marketId",
          "type": "bytes32"
        },
        {
          "internalType": "uint256",
          "name": "poolId",
          "type": "uint256"
        },
        {
          "internalType": "string",
          "name": "question",
          "type": "string"
        },
        {
          "internalType": "string",
          "name": "category",
          "type": "string"
        },
        {
          "internalType": "bytes32",
          "name": "proposedOutcome",
          "type": "bytes32"
        },
        {
          "internalType": "address",
          "name": "proposer",
          "type": "address"
        },
        {
          "internalType": "uint256",
          "name": "proposalTime",
          "type": "uint256"
        },
        {
          "internalType": "uint256",
          "name": "proposalBond",
          "type": "uint256"
        },
        {
          "internalType": "address",
          "name": "disputer",
          "type": "address"
        },
        {
          "internalType": "uint256",
          "name": "disputeTime",
          "type": "uint256"
        },
        {
          "internalType": "uint256",
          "name": "disputeBond",
          "type": "uint256"
        },
        {
          "internalType": "bytes32",
          "name": "finalOutcome",
          "type": "bytes32"
        },
        {
          "internalType": "enum OptimisticOracle.MarketState",
          "name": "state",
          "type": "uint8"
        },
        {
          "internalType": "uint256",
          "name": "eventEndTime",
          "type": "uint256"
        },
        {
          "internalType": "bool",
          "name": "bondsClaimed",
          "type": "bool"
        }
      ],
      "stateMutability": "view",
      "type": "function"
    },
    {
      "inputs": [],
      "name": "owner",
      "outputs": [
        {
          "internalType": "address",
          "name": "",
          "type": "address"
        }
      ],
      "stateMutability": "view",
      "type": "function"
    },
    {
      "inputs": [
        {
          "internalType": "bytes32",
          "name": "marketId",
          "type": "bytes32"
        },
        {
          "internalType": "bytes32",
          "name": "outcome",
          "type": "bytes32"
        }
      ],
      "name": "proposeOutcome",
      "outputs": [],
      "stateMutability": "nonpayable",
      "type": "function"
    },
    {
      "inputs": [],
      "name": "renounceOwnership",
      "outputs": [],
      "stateMutability": "nonpayable",
      "type": "function"
    },
    {
      "inputs": [],
      "name": "reputationSystem",
      "outputs": [
        {
          "internalType": "contract IReputationSystem",
          "name": "",
          "type": "address"
        }
      ],
      "stateMutability": "view",
      "type": "function"
    },
    {
      "inputs": [
        {
          "internalType": "bytes32",
          "name": "marketId",
          "type": "bytes32"
        }
      ],
      "name": "resolveMarket",
      "outputs": [],
      "stateMutability": "nonpayable",
      "type": "function"
    },
    {
      "inputs": [
        {
          "internalType": "address",
          "name": "_reputationSystem",
          "type": "address"
        }
      ],
      "name": "setReputationSystem",
      "outputs": [],
      "stateMutability": "nonpayable",
      "type": "function"
    },
    {
      "inputs": [
        {
          "internalType": "address",
          "name": "user",
          "type": "address"
        },
        {
          "internalType": "uint256",
          "name": "reputation",
          "type": "uint256"
        }
      ],
      "name": "setUserReputation",
      "outputs": [],
      "stateMutability": "nonpayable",
      "type": "function"
    },
    {
      "inputs": [
        {
          "internalType": "address",
          "name": "newOwner",
          "type": "address"
        }
      ],
      "name": "transferOwnership",
      "outputs": [],
      "stateMutability": "nonpayable",
      "type": "function"
    },
    {
      "inputs": [
        {
          "internalType": "address",
          "name": "",
          "type": "address"
        }
      ],
      "name": "userReputation",
      "outputs": [
        {
          "internalType": "uint256",
          "name": "",
          "type": "uint256"
        }
      ],
      "stateMutability": "view",
      "type": "function"
    },
    {
      "inputs": [
        {
          "internalType": "bytes32",
          "name": "marketId",
          "type": "bytes32"
        },
        {
          "internalType": "bytes32",
          "name": "outcome",
          "type": "bytes32"
        }
      ],
      "name": "voteOnDispute",
      "outputs": [],
      "stateMutability": "nonpayable",
      "type": "function"
    }
  ],
  "bytecode": "0x60c0346200013757601f620034b138819003918201601f19168301916001600160401b038311848410176200013c57808492604094855283398101031262000137576200005a6020620000528362000152565b920162000152565b9033156200011e5760008054336001600160a01b0319821681178355604051946001600160a01b0394909385939192918416907f8be0079c531659141344cd1fd0a4f28419497f9722a3daafe3b4186f6b6457e09080a3166080521660a05261334990816200016882396080518181816103350152818161059e015281816108b301528181611438015281816114f801528181611a5c01528181612fa201526130e9015260a051818181610d6301528181611e23015281816125e0015261292f0152f35b604051631e4fbdf760e01b815260006004820152602490fd5b600080fd5b634e487b7160e01b600052604160045260246000fd5b51906001600160a01b0382168203620001375756fe608080604052600436101561001357600080fd5b600090813560e01c908163022824b71461291b5750806311be1997146128c9578063136ba6aa146127eb5780632fcec8001461269c57806330526c3b1461256557806331143cee146125205780633c7dad19146124d857806340672a1b14611cdd5780634c68ae6314611cb95780634dffca881461196557806352d84d1e146119255780635d1a3b82146118e95780636587eda1146118c0578063697c6045146118a45780636e66fb4714611845578063715018a6146117fd578063734c8544146117df5780637564912b146116ca57806376e6caff146116435780637aa8ab22146113865780637e3681bd146113625780638da5cb5b1461133b578063a09f8be31461131f578063b05239bb14610d11578063b0772d0b14610c9d578063b3ddbe1514610c6d578063b3e7c2bd14610c06578063b8a3a36b146108e2578063c28f43921461089d578063c3c95c7b14610648578063cede2d4214610515578063d62aad29146104f7578063e2f410f514610253578063e503bb051461021a5763f2fde38b146101a257600080fd5b34610217576020366003190112610217576101bb6129a4565b6101c3612be2565b6001600160a01b039081169081156101fe576000548260018060a01b0319821617600055166000805160206132f4833981519152600080a380f35b604051631e4fbdf760e01b815260048101849052602490fd5b80fd5b5034610217576020366003190112610217576020906040906001600160a01b036102426129a4565b168152600483522054604051908152f35b5034610217576102623661298e565b9080835260206002815261027b60408520541515612c0e565b6001546001600160a01b03919082168181156104d85760405163baccbfdb60e01b815233600482015291829060249082905afa9081156104cd57869161049a575b5060646102ca911015612c52565b8285526002815260408520600c81019060ff82541660058110156104865761044457600d810154421061040957610302861515612c98565b604051906323b872dd60e01b825233600483015230602483015283826064818b6802b5e3af16b1880000998a60448401527f0000000000000000000000000000000000000000000000000000000000000000165af19081156103fe5761037360079287948b916103d1575b50612cee565b876004820155600581013360018060a01b03198254161790554260068201550155600160ff198254161790556040519384528301527f9309959b56da38a7d20756c4ba4d271701cd1562f4995a7324bd95575db83e6660403393a380f35b6103f19150873d89116103f7575b6103e98183612a7b565b810190612cd6565b3861036d565b503d6103df565b6040513d8a823e3d90fd5b60405162461bcd60e51b8152600481018490526013602482015272115d995b9d081b9bdd08195b991959081e595d606a1b6044820152606490fd5b60405162461bcd60e51b815260048101849052601a6024820152794d61726b6574206e6f742070656e64696e67206f7574636f6d6560301b6044820152606490fd5b634e487b7160e01b88526021600452602488fd5b90508181813d83116104c6575b6104b18183612a7b565b810103126104c1575160646102bc565b600080fd5b503d6104a7565b6040513d88823e3d90fd5b5050338552600481526104f2606460408720541015612c52565b6102ca565b50346102175780600319360112610217576020604051620151808152f35b50346102175760208060031936011261064457610530612be2565b600435825260028152604082206105506007820154600a83015490612d31565b908161055a578380f35b600e01805460ff19166001179055825460405163a9059cbb60e01b815291839183916001600160a01b039183918891839161059a91861660048401612e38565b03927f0000000000000000000000000000000000000000000000000000000000000000165af190811561063957839161061c575b50156105da5780808380f35b6064906040519062461bcd60e51b82526004820152601b60248201527a115b595c99d95b98de481dda5d1a191c985dd85b0819985a5b1959602a1b6044820152fd5b6106339150823d84116103f7576103e98183612a7b565b386105ce565b6040513d85823e3d90fd5b5080fd5b503461021757602036600319011261021757806040916101c0835161066c81612a5f565b8281528260208201526060858201526060808201528260808201528260a08201528260c08201528260e08201528261010082015282610120820152826101408201528261016082015282610180820152826101a082015201526004358152600260205220604051906106dd82612a5f565b80548252600181015460208301526106f760028201612a9e565b604083015261070860038201612a9e565b6060830152600481015460808301526005808201546001600160a01b0390811660a0850152600683015460c0850152600783015460e08501526008830154166101008401526009820154610120840152600a820154610140840152600b820154610160840152600c82015460ff16908110156108875760ff91600e91610180850152600d8101546101a085015201541615156101c082015260405180916020825280516020830152602081015160408301526101c06107f16107db60408401516101e060608701526102008601906129d2565b6060840151858203601f190160808701526129d2565b91608081015160a085015260018060a01b0360a08201511660c085015260c081015160e085015260e081015161010085015260018060a01b036101008201511661012085015261012081015161014085015261014081015161016085015261016081015161018085015261086f6101808201516101a0860190612b44565b6101a081015182850152015115156101e08301520390f35b634e487b7160e01b600052602160045260246000fd5b50346102175780600319360112610217576040517f00000000000000000000000000000000000000000000000000000000000000006001600160a01b03168152602090f35b5034610217576108f13661298e565b908083526002602081815261090b60408620541515612c0e565b6001546001600160a01b0392908316828115610be75760405163baccbfdb60e01b815233600482015291829060249082905afa908115610bdc578791610bae575b50604b61095a911015612c52565b83865280825260408620906003835260ff600c60408920930154166005811015610486578103610b735760058201544211610b385761099a861515612c98565b6001820193336000528484528160406000200154610b0357338852600484526040882054948515610acc576040519060608201906001600160401b03821183831017610ab657849160405289835286830188815260408401914283523360005288526040600020935184555160018401555191015560038301805490600160401b821015610aa25781610a379160016004979695940181556129ba565b819291549060031b9133831b921b19161790558688528101835260408720610a60858254612d31565b905501610a6e838254612d31565b90556040519384528301527fad441f9de4a3beb10e0d1ffe3b9b28f07e66aa51e7fcee0cc3d8596daaac270960403393a380f35b634e487b7160e01b8a52604160045260248afd5b634e487b7160e01b600052604160045260246000fd5b60405162461bcd60e51b815260048101869052600f60248201526e2737903b37ba34b733903837bbb2b960891b6044820152606490fd5b60405162461bcd60e51b815260048101859052600d60248201526c105b1c9958591e481d9bdd1959609a1b6044820152606490fd5b60405162461bcd60e51b8152600481018490526013602482015272159bdd1a5b99c81c195c9a5bd908195b991959606a1b6044820152606490fd5b60405162461bcd60e51b815260048101849052601360248201527213585c9ad95d081b9bdd08191a5cdc1d5d1959606a1b6044820152606490fd5b90508281813d8311610bd5575b610bc58183612a7b565b810103126104c15751604b61094c565b503d610bbb565b6040513d89823e3d90fd5b505033865260048252610c01604b60408820541015612c52565b61095a565b5034610217576040366003190112610217576024356001600160a01b03811691908290036104c15760406001916004358152600360205220019060005260205260606040600020805490600260018201549101549060405192835260208301526040820152f35b5034610217576040602091610c813661298e565b9082526003845260028383200190825283522054604051908152f35b50346102175780600319360112610217576040516005805480835290835260208083019360008051602061327483398151915292915b828210610cfa57610cf685610cea81890382612a7b565b60405191829182612ba7565b0390f35b835486529485019460019384019390910190610cd3565b50346102175760a0366003190112610217576044356001600160401b03811161064457610d42903690600401612b51565b6064356001600160401b03811161131b57610d61903690600401612b51565b7f00000000000000000000000000000000000000000000000000000000000000006001600160a01b031633036112d85760043583526002602052604083205461129b5742608435111561125757604051610dba81612a5f565b600435815260243560208201528260408201528160608201528360808201528360a08201528360c08201528360e082015283610100820152836101208201528361014082015283610160820152836101808201526084356101a0820152836101c082015260043584526002602052604084208151815560208201516001820155604082015180519060018060401b038211611178578190610e5e6002850154612a12565b601f8111611206575b50602090601f831160011461119757889261118c575b50508160011b916000199060031b1c19161760028201555b60608201518051906001600160401b038211611178578190610eba6003850154612a12565b601f8111611127575b50602090601f83116001146110b85788926110ad575b50508160011b916000199060031b1c19161760038201555b6080820151600482015560a0820151600580830180546001600160a01b039384166001600160a01b03199182161790915560c0850151600685015560e08501516007850155610100850151600885018054919094169116179091556101208301516009830155610140830151600a830155610160830151600b8301556101808301519190600c82019083101561109957600e60ff926101c092841995858783541691161790556101a0860151600d82015501930151151591835416911617905560055490600160401b9182811015610ab65760018101806005558110156110835760056000526004359060206000200155805160208201208452600660205260408420805492831015610ab6578261101191600161104b950181556129ba565b81549060031b90600435821b91600019901b191617905561103d604051936060855260608501906129d2565b9083820360208501526129d2565b60843560408301527f78fb87fee77ef31b7db9ff0b08af431bb3a3b7e0112e29bdbc797d0e4d35cf8d6024359280600435930390a380f35b634e487b7160e01b600052603260045260246000fd5b634e487b7160e01b87526021600452602487fd5b015190503880610ed9565b9250600384018852602088209088935b601f198416851061110c576001945083601f198116106110f3575b505050811b016003820155610ef1565b015160001960f88460031b161c191690553880806110e3565b818101518355602094850194600190930192909101906110c8565b90915060038401885260208820601f840160051c810160208510611171575b90849392915b601f830160051c82018110611162575050610ec3565b6000815585945060010161114c565b5080611146565b634e487b7160e01b87526041600452602487fd5b015190503880610e7d565b9250600284018852602088209088935b601f19841685106111eb576001945083601f198116106111d2575b505050811b016002820155610e95565b015160001960f88460031b161c191690553880806111c2565b818101518355602094850194600190930192909101906111a7565b90915060028401885260208820601f840160051c810160208510611250575b90849392915b601f830160051c82018110611241575050610e67565b6000815585945060010161122b565b5080611225565b606460405162461bcd60e51b815260206004820152602060248201527f4576656e7420656e642074696d65206d75737420626520696e206675747572656044820152fd5b60405162461bcd60e51b81526020600482015260156024820152744d61726b657420616c72656164792065786973747360581b6044820152606490fd5b60405162461bcd60e51b815260206004820152601b60248201527a13db9b1e48109a5d1c99591a58dd141bdbdb0818d85b8818d85b1b602a1b6044820152606490fd5b8280fd5b50346102175780600319360112610217576020604051604b8152f35b5034610217578060031936011261021757546040516001600160a01b039091168152602090f35b503461021757806003193601126102175760206040516802b5e3af16b18800008152f35b50346102175760208060031936011261064457600435808352600282526113b260408420541515612c0e565b80835260028252604083209160ff600c84015416600581101561162f576003036115f557600e8301805460ff81166115b85760ff1916600117905560088301546001600160a01b039081166114a65790611432916005850182600783835416970196875490604051968792839263a9059cbb60e01b845260048401612e38565b03818a867f0000000000000000000000000000000000000000000000000000000000000000165af1938415610bdc576000805160206132b48339815191529461148191899161148f5750612cee565b54169354604051908152a380f35b6103f19150853d87116103f7576103e98183612a7b565b600b840154600485015481036115a7575060056114cc6007860154600a87015490612d31565b94016114f2838684845416604051938492839263a9059cbb60e01b845260048401612e38565b03818a877f0000000000000000000000000000000000000000000000000000000000000000165af1908115610bdc57879161158a575b501561154c575460405194855216926000805160206132b48339815191529190a380f35b60405162461bcd60e51b815260048101849052601660248201527514995dd85c99081d1c985b9cd9995c8819985a5b195960521b6044820152606490fd5b6115a19150843d86116103f7576103e98183612a7b565b38611528565b929150506115b59250612e86565b80f35b60405162461bcd60e51b8152600481018490526015602482015274109bdb991cc8185b1c9958591e4818db185a5b5959605a1b6044820152606490fd5b6064906040519062461bcd60e51b82526004820152601360248201527213585c9ad95d081b9bdd081c995cdbdb1d9959606a1b6044820152fd5b634e487b7160e01b85526021600452602485fd5b503461021757602080600319360112610644576004356001600160401b03811161131b57611675903690600401612b51565b81815191012082526006815260408220916040518092808554928381520194835280832092905b8282106116b357610cf685610cea81890382612a7b565b83548652948501946001938401939091019061169c565b50346102175760203660031901126102175760043581526002602052604090208054600182015491600281016116ff90612a9e565b61170b60038301612a9e565b91600481015492600160a01b600190038060058401541690600684015490600785015490600886015416600986015491600a87015493600b88015495600c89015460ff1697600d8a015499600e015460ff169a6040519e8f9e8f908152602001528d6101e09081604082015201611781916129d2565b8d810360608f0152611792916129d2565b9a60808d015260a08c015260c08b015260e08a015261010089015261012088015261014087015261016086015261018085016117cd91612b44565b6101a084015215156101c08301520390f35b503461021757806003193601126102175760206040516202a3008152f35b5034610217578060031936011261021757611816612be2565b600080546001600160a01b0319811682556001600160a01b03166000805160206132f48339815191528280a380f35b50346102175760403660031901126102175761185f6129a4565b6000805160206132d483398151915260406024359261187c612be2565b60018060a01b031692838552600460205281852090808254925582519182526020820152a280f35b5034610217578060031936011261021757602060405160648152f35b50346102175780600319360112610217576001546040516001600160a01b039091168152602090f35b503461021757602036600319011261021757611906600435612d93565b90610cf6604051928392151583526040602084015260408301906129d2565b5034610217576020366003190112610217576004356005548110156106445760056000526000805160206132748339815191520154604051908152602090f35b503461021757602080600319360112610644576004358083526002825261199160408420541515612c0e565b6001546001600160a01b0392908316818115611c9a5760405163baccbfdb60e01b815233600482015291829060249082905afa908115611c8f578591611c61575b50604b6119e0911015612c52565b8184526002815260408420600c81019060ff825416600581101561109957600103611c1d576006810154620151808101809111611b17574211611bdd57846005820154163314611b8c576040516323b872dd60e01b815233600482015230602482015283816064818a68056bc75e2d631000009a8b60448401527f0000000000000000000000000000000000000000000000000000000000000000165af1908115610bdc578791611b6f575b5015611b2b57600a8160088793013360018060a01b0319825416179055426009820155015560ff199060028282541617905582855260038252604085208381556202a3004201804211611b175760058201556006018054909116905560405192835233927f2cf997baab6ffa43a4ea6d22103db1212210a1692382c6d95fc16394e30b99cd9190a380f35b634e487b7160e01b87526011600452602487fd5b60405162461bcd60e51b815260048101849052601c60248201527b111a5cdc1d5d1948189bdb99081d1c985b9cd9995c8819985a5b195960221b6044820152606490fd5b611b869150843d86116103f7576103e98183612a7b565b38611a8c565b60405162461bcd60e51b8152600481018490526024808201527f50726f706f7365722063616e6e6f742064697370757465206f776e2070726f706044820152631bdcd85b60e21b6064820152608490fd5b60405162461bcd60e51b815260048101849052601860248201527710da185b1b195b99d9481dda5b991bddc8195e1c1a5c995960421b6044820152606490fd5b60405162461bcd60e51b815260048101849052601c60248201527b4d61726b6574206e6f7420696e2070726f706f73656420737461746560201b6044820152606490fd5b90508181813d8311611c88575b611c788183612a7b565b810103126104c15751604b6119d2565b503d611c6e565b6040513d87823e3d90fd5b505033845260048152611cb4604b60408620541015612c52565b6119e0565b5034610217578060031936011261021757602060405168056bc75e2d631000008152f35b50346102175760203660031901126102175760043581526002602052611d0860408220541515612c0e565b600435815260026020526040812090600c82015460ff811660058110156124c45760018103611efc5750506006820154620151808101809111611ee857421115611ea457600482015491600b8101928355600360ff19600c8301541617600c8201556005810160018060a01b0380825416948585526004602052604085205495600a8701808811611b17576000805160206132d4833981519152604088998493848b52600460205280838c205582519182526020820152a2604051906000805160206132548339815191526004359280611de2428261319c565b0390a35491541660078301549060405192835260208301526040820152600080516020613294833981519152606060043592a25b6001810154600b909101547f00000000000000000000000000000000000000000000000000000000000000006001600160a01b03169190823b15611e9f57604484928360405195869485936311bf11df60e11b8552600485015260248401525af18015611e9457611e845750f35b611e8d90612a4c565b6102175780f35b6040513d84823e3d90fd5b505050fd5b60405162461bcd60e51b815260206004820152601c60248201527b10da185b1b195b99d9481dda5b991bddc81b9bdd08195e1c1a5c995960221b6044820152606490fd5b634e487b7160e01b82526011600452602482fd5b9192909160020361247f576004358352600360205260408320600581015442111561244057611f3260ff60068301541615612d54565b600435845260036020819052604085209081015485949185805b8381106123df5750505050600160069185600b860155600360ff1980921617600c860155828401541617910155600435835260026020526040832091600360205260408420918160048501541460001461230c5760058401546001600160a01b03168086526004602052604086205490600a82018211611b17579060409187526004602052600a8101828820556000805160206132d483398151915260018060a01b03600588015416928392600a825191808352016020820152a2604051906000805160206132548339815191526004359280612029428261319c565b0390a35b845b600384015481101561219f5761204881600386016129ba565b905460039190911b1c6001600160a01b03166000818152600186016020526040902054840361210257808752600460205260408720546005810181116120ee5790806000805160206132d483398151915260406120e99594838c52600460205260058101828d20556005825191808352016020820152a26040519060008051602061325483398151915260043592806120e14282613217565b0390a3612e53565b61202f565b634e487b7160e01b88526011600452602488fd5b808752600460205260408720546003811061217c57806002198101116120ee5790806000805160206132d483398151915260406120e99594818c60021983019182915b8781526004602052205582519182526020820152a26040519060008051602061325483398151915260043592806120e142826131de565b90806000805160206132d483398151915260406120e99594818c80918291612145565b5060048401549194939092506008918514612262570180546001600160a01b0390811680855260046020526040852054919592600a830191828411611b175786976000805160206132d4833981519152926040928952600460205284838a2055541693849382519182526020820152a26040519060008051602061325483398151915260043592806122314282613217565b0390a35b604051908152826020820152826040820152600080516020613294833981519152606060043592a2611e16565b0180546001600160a01b0390811680855260046020526040852054919592600883106122f1576007198301838111611b175786976000805160206132d483398151915292604092945b8952600460205284838a2055541693849382519182526020820152a26040519060008051602061325483398151915260043592806122e942826131de565b0390a3612235565b604086976000805160206132d48339815191529288946122ab565b60058401546001600160a01b03168086526004602052604086205490600f82106123d85781600e19810111611b1757600e198201905b875260046020528060408820556000805160206132d4833981519152604060018060a01b0360058901541693849382519182526020820152a26040519060608252601c60608301527b4f5554434f4d455f50524f504f5345445f494e434f52524543544c5960201b6080830152600e19602083015242604083015260008051602061325483398151915260a060043593a361202d565b8690612342565b6123ec81600385016129ba565b60018060a01b0391549060031b1c1660005260018301602052604060002054808a526002840160205260408a2054838111612432575b505061242d90612e53565b611f4c565b909850915061242d38612422565b60405162461bcd60e51b8152602060048201526017602482015276159bdd1a5b99c81c195c9a5bd9081b9bdd08195b991959604a1b6044820152606490fd5b60405162461bcd60e51b815260206004820152601f60248201527f4d61726b6574206e6f7420726561647920666f72207265736f6c7574696f6e006044820152606490fd5b634e487b7160e01b83526021600452602483fd5b50346102175760403660031901126102175760243590600435815260066020526040812090815483101561021757602061251284846129ba565b90546040519160031b1c8152f35b50346102175760203660031901126102175761253a6129a4565b612542612be2565b600180546001600160a01b0319166001600160a01b039290921691909117905580f35b5034610217576125743661298e565b61257c612be2565b818352600260205260408320600c810180549060ff821660058110156110995760036125a9911415612d54565b83600b840155600360ff198093161790558385526003602052604085208054612688575b5050600101546001600160a01b039084907f00000000000000000000000000000000000000000000000000000000000000008316803b1561131b576044839260405194859384926311bf11df60e11b845260048401528860248401525af18015611c8f57612662575b50600080516020613294833981519152916060918554166040519182526020820152846040820152a280f35b916060919461267f60008051602061329483398151915294612a4c565b94915091612636565b6006600191019182541617905538806125cd565b5034610217576040366003190112610217576001600160401b0390600435828111610644576126cf90369060040161295e565b9260243590811161131b576126e890369060040161295e565b90936126f2612be2565b8181036127ae57835b818110612706578480f35b6001600160a01b038061271a838588612e62565b61272390612e72565b1686526020906004825260408720549161273e84878b612e62565b358261274b86888b612e62565b61275490612e72565b16895260048252604089205561276b848689612e62565b61277490612e72565b9061278085888c612e62565b3590604051948552840152169060406000805160206132d483398151915291a26127a990612e53565b6126fb565b60405162461bcd60e51b8152602060048201526015602482015274082e4e4c2f240d8cadccee8d040dad2e6dac2e8c6d605b1b6044820152606490fd5b50346102175760208060031936011261064457906004358152600382526040812091600483015491600584015492600360ff600687015416950192604051808286549182815201908196865283862090865b8181106128ac5750505081612853910382612a7b565b604051968796608088019488528388015215156040870152608060608701525180925260a0850193925b82811061288c57505050500390f35b83516001600160a01b03168552869550938101939281019260010161287d565b82546001600160a01b03168452928501926001928301920161283d565b5034610217576020366003190112610217576040608091600435815260036020522080549060048101549060ff6006600583015492015416916040519384526020840152604083015215156060820152f35b9050346106445781600319360112610644577f00000000000000000000000000000000000000000000000000000000000000006001600160a01b03168152602090f35b9181601f840112156104c1578235916001600160401b0383116104c1576020808501948460051b0101116104c157565b60409060031901126104c1576004359060243590565b600435906001600160a01b03821682036104c157565b80548210156110835760005260206000200190600090565b919082519283825260005b8481106129fe575050826000602080949584010152601f8019910116010190565b6020818301810151848301820152016129dd565b90600182811c92168015612a42575b6020831014612a2c57565b634e487b7160e01b600052602260045260246000fd5b91607f1691612a21565b6001600160401b038111610ab657604052565b6101e081019081106001600160401b03821117610ab657604052565b601f909101601f19168101906001600160401b03821190821017610ab657604052565b9060405191826000825492612ab284612a12565b908184526001948581169081600014612b215750600114612ade575b5050612adc92500383612a7b565b565b9093915060005260209081600020936000915b818310612b09575050612adc93508201013880612ace565b85548884018501529485019487945091830191612af1565b915050612adc94506020925060ff191682840152151560051b8201013880612ace565b9060058210156108875752565b81601f820112156104c1578035906001600160401b038211610ab65760405192612b85601f8401601f191660200185612a7b565b828452602083830101116104c157816000926020809301838601378301015290565b6020908160408183019282815285518094520193019160005b828110612bce575050505090565b835185529381019392810192600101612bc0565b6000546001600160a01b03163303612bf657565b60405163118cdaa760e01b8152336004820152602490fd5b15612c1557565b60405162461bcd60e51b815260206004820152601560248201527413585c9ad95d08191bd95cc81b9bdd08195e1a5cdd605a1b6044820152606490fd5b15612c5957565b60405162461bcd60e51b815260206004820152601760248201527624b739bab33334b1b4b2b73a103932b83aba30ba34b7b760491b6044820152606490fd5b15612c9f57565b60405162461bcd60e51b815260206004820152600f60248201526e496e76616c6964206f7574636f6d6560881b6044820152606490fd5b908160209103126104c1575180151581036104c15790565b15612cf557565b60405162461bcd60e51b8152602060048201526014602482015273109bdb99081d1c985b9cd9995c8819985a5b195960621b6044820152606490fd5b91908201809211612d3e57565b634e487b7160e01b600052601160045260246000fd5b15612d5b57565b60405162461bcd60e51b815260206004820152601060248201526f105b1c9958591e481c995cdbdb1d995960821b6044820152606490fd5b9060009182526002602052604080832060ff600c82015416600581101561162f57600314612df25750805190839060208301906001600160401b03821184831017612dde5752815290565b634e487b7160e01b83526041600452602483fd5b600b015481516020808201929092529081529283820191906001600160401b03831185841017612e2457505260019190565b634e487b7160e01b81526041600452602490fd5b6001600160a01b039091168152602081019190915260400190565b6000198114612d3e5760010190565b91908110156110835760051b0190565b356001600160a01b03811681036104c15790565b90600090828252602092600284526040938484209360039081835286812095612eb86007820154600a83015490612d31565b8683526002880185528883205491821590816130a2575060019889810198859187018b5b612ef0575b50505050505050505050505050565b805483101561309d57828b8e612f078f96856129ba565b90546001600160a01b03918d1b1c8116808c52928d52908a2080548614612f3b575b505050612f3590612e53565b92612edc565b9590919293949501548088029088820414881517156130895786613075578f908f96959493928d8b8d93049384612f75575b505050612f29565b9091929394959697985051809263a9059cbb60e01b82528160049581612f9e898b8a8401612e38565b03927f0000000000000000000000000000000000000000000000000000000000000000165af1908115613067578b9161304a575b5015613008575091612f35918f8f9695948d8f92916000805160206132b48339815191529251908152a390388f818d8c92612f6d565b8f5162461bcd60e51b81529081018c9052601c60248201527b159bdd195c881c995dd85c99081d1c985b9cd9995c8819985a5b195960221b6044820152606490fd5b61306191508d803d106103f7576103e98183612a7b565b38612fd2565b50508f5190503d8a823e3d90fd5b634e487b7160e01b8a52601260045260248afd5b634e487b7160e01b8a52601160045260248afd5b612ee1565b60080180548b5163a9059cbb60e01b8152919c9b9a50979850959691956001600160a01b0395509250869183915081906130e3908890881660048401612e38565b038185877f0000000000000000000000000000000000000000000000000000000000000000165af19182156131915791613174575b501561313b576000805160206132b48339815191529394959654169451908152a3565b845162461bcd60e51b8152600481018490526012602482015271109bdb99081c99599d5b990819985a5b195960721b6044820152606490fd5b61318b9150843d86116103f7576103e98183612a7b565b38613118565b8751903d90823e3d90fd5b919060608352601a6060840152794f5554434f4d455f50524f504f5345445f434f52524543544c5960301b6080840152604060a0840193600a60208201520152565b919060608352601060608401526f10d2105313115391d157d1905253115160821b6080840152604060a084019360071960208201520152565b919060608352601460608401527310d2105313115391d157d4d550d0d154d4d1955360621b6080840152604060a0840193600a6020820152015256fe771bf1bb87cc205af921972b0ee8396e8a8e65d500a6950d7a84ad9ddf9d5e58036b6384b5eca791c62761152d0c79bb0604c104a5fb6f4eb0703f3154bb3db091ca3f85aaee021f5716eb2dc0420a08d010f2c3559cffd95c5047b027e0ff9603e8263f3afed7930daa8af1e52a6fb85e3c91af66348b09d23e2201467c21455b88a2e3fc1a53234357ab78c104df11c33ccfa79886793654565ad70b8afb6e8be0079c531659141344cd1fd0a4f28419497f9722a3daafe3b4186f6b6457e0a2646970667358221220191c16c65eb9f4e6446dd57d0e434818d47f35972f84f1e18026319dd21b965264736f6c63430008140033",
  "linkReferences": {},
  "deployedLinkReferences": {}
}