{
  "_format": "hh-sol-artifact-1",
  "contractName": "ReputationSystem",
  "sourceName": "contracts/ReputationSystem.sol",
  "abi": [
    {
      "inputs": [
        {
          "internalType": "address",
          "name": "initialOwner",
          "type": "address"
        }
      ],
      "stateMutability": "nonpayable",
      "type": "constructor"
    },
    {
      "inputs": [
        {
          "internalType": "address",
          "name": "owner",
          "type": "address"
        }
      ],
      "name": "OwnableInvalidOwner",
      "type": "error"
    },
    {
      "inputs": [
        {
          "internalType": "address",
          "name": "account",
          "type": "address"
        }
      ],
      "name": "OwnableUnauthorizedAccount",
      "type": "error"
    },
    {
      "anonymous": false,
      "inputs": [
        {
          "indexed": true,
          "internalType": "address",
          "name": "previousOwner",
          "type": "address"
        },
        {
          "indexed": true,
          "internalType": "address",
          "name": "newOwner",
          "type": "address"
        }
      ],
      "name": "OwnershipTransferred",
      "type": "event"
    },
    {
      "anonymous": false,
      "inputs": [
        {
          "indexed": true,
          "internalType": "address",
          "name": "user",
          "type": "address"
        },
        {
          "indexed": false,
          "internalType": "uint256",
          "name": "oldReputation",
          "type": "uint256"
        },
        {
          "indexed": false,
          "internalType": "uint256",
          "name": "newReputation",
          "type": "uint256"
        }
      ],
      "name": "ReputationUpdated",
      "type": "event"
    },
    {
      "anonymous": false,
      "inputs": [
        {
          "indexed": true,
          "internalType": "address",
          "name": "updater",
          "type": "address"
        },
        {
          "indexed": false,
          "internalType": "bool",
          "name": "authorized",
          "type": "bool"
        }
      ],
      "name": "UpdaterAuthorized",
      "type": "event"
    },
    {
      "inputs": [],
      "name": "DEFAULT_REPUTATION",
      "outputs": [
        {
          "internalType": "uint256",
          "name": "",
          "type": "uint256"
        }
      ],
      "stateMutability": "view",
      "type": "function"
    },
    {
      "inputs": [],
      "name": "MAX_REPUTATION",
      "outputs": [
        {
          "internalType": "uint256",
          "name": "",
          "type": "uint256"
        }
      ],
      "stateMutability": "view",
      "type": "function"
    },
    {
      "inputs": [],
      "name": "MIN_GUIDED_POOL_REPUTATION",
      "outputs": [
        {
          "internalType": "uint256",
          "name": "",
          "type": "uint256"
        }
      ],
      "stateMutability": "view",
      "type": "function"
    },
    {
      "inputs": [],
      "name": "MIN_OPEN_POOL_REPUTATION",
      "outputs": [
        {
          "internalType": "uint256",
          "name": "",
          "type": "uint256"
        }
      ],
      "stateMutability": "view",
      "type": "function"
    },
    {
      "inputs": [],
      "name": "MIN_OUTCOME_PROPOSAL_REPUTATION",
      "outputs": [
        {
          "internalType": "uint256",
          "name": "",
          "type": "uint256"
        }
      ],
      "stateMutability": "view",
      "type": "function"
    },
    {
      "inputs": [
        {
          "internalType": "address",
          "name": "",
          "type": "address"
        }
      ],
      "name": "authorizedUpdaters",
      "outputs": [
        {
          "internalType": "bool",
          "name": "",
          "type": "bool"
        }
      ],
      "stateMutability": "view",
      "type": "function"
    },
    {
      "inputs": [
        {
          "internalType": "address[]",
          "name": "users",
          "type": "address[]"
        },
        {
          "internalType": "uint256[]",
          "name": "reputations",
          "type": "uint256[]"
        }
      ],
      "name": "batchUpdateReputation",
      "outputs": [],
      "stateMutability": "nonpayable",
      "type": "function"
    },
    {
      "inputs": [
        {
          "internalType": "address",
          "name": "user",
          "type": "address"
        }
      ],
      "name": "canCreateGuidedPool",
      "outputs": [
        {
          "internalType": "bool",
          "name": "",
          "type": "bool"
        }
      ],
      "stateMutability": "view",
      "type": "function"
    },
    {
      "inputs": [
        {
          "internalType": "address",
          "name": "user",
          "type": "address"
        }
      ],
      "name": "canCreateOpenPool",
      "outputs": [
        {
          "internalType": "bool",
          "name": "",
          "type": "bool"
        }
      ],
      "stateMutability": "view",
      "type": "function"
    },
    {
      "inputs": [
        {
          "internalType": "address",
          "name": "user",
          "type": "address"
        }
      ],
      "name": "canProposeOutcome",
      "outputs": [
        {
          "internalType": "bool",
          "name": "",
          "type": "bool"
        }
      ],
      "stateMutability": "view",
      "type": "function"
    },
    {
      "inputs": [
        {
          "internalType": "address",
          "name": "user",
          "type": "address"
        }
      ],
      "name": "getUserReputation",
      "outputs": [
        {
          "internalType": "uint256",
          "name": "",
          "type": "uint256"
        }
      ],
      "stateMutability": "view",
      "type": "function"
    },
    {
      "inputs": [
        {
          "internalType": "address",
          "name": "user",
          "type": "address"
        }
      ],
      "name": "initializeUserReputation",
      "outputs": [],
      "stateMutability": "nonpayable",
      "type": "function"
    },
    {
      "inputs": [],
      "name": "owner",
      "outputs": [
        {
          "internalType": "address",
          "name": "",
          "type": "address"
        }
      ],
      "stateMutability": "view",
      "type": "function"
    },
    {
      "inputs": [],
      "name": "renounceOwnership",
      "outputs": [],
      "stateMutability": "nonpayable",
      "type": "function"
    },
    {
      "inputs": [
        {
          "internalType": "address",
          "name": "updater",
          "type": "address"
        },
        {
          "internalType": "bool",
          "name": "authorized",
          "type": "bool"
        }
      ],
      "name": "setAuthorizedUpdater",
      "outputs": [],
      "stateMutability": "nonpayable",
      "type": "function"
    },
    {
      "inputs": [
        {
          "internalType": "address",
          "name": "newOwner",
          "type": "address"
        }
      ],
      "name": "transferOwnership",
      "outputs": [],
      "stateMutability": "nonpayable",
      "type": "function"
    },
    {
      "inputs": [
        {
          "internalType": "address",
          "name": "user",
          "type": "address"
        },
        {
          "internalType": "uint256",
          "name": "newReputation",
          "type": "uint256"
        }
      ],
      "name": "updateReputation",
      "outputs": [],
      "stateMutability": "nonpayable",
      "type": "function"
    },
    {
      "inputs": [
        {
          "internalType": "address",
          "name": "",
          "type": "address"
        }
      ],
      "name": "userReputation",
      "outputs": [
        {
          "internalType": "uint256",
          "name": "",
          "type": "uint256"
        }
      ],
      "stateMutability": "view",
      "type": "function"
    }
  ],
  "bytecode": "0x6080346100cd57601f610a3c38819003918201601f19168301916001600160401b038311848410176100d2578084926020946040528339810103126100cd57516001600160a01b0390818116908190036100cd5780156100b457600080546001600160a01b031981168317825560408051946101f4949193928291167f8be0079c531659141344cd1fd0a4f28419497f9722a3daafe3b4186f6b6457e08480a381526001602052205561095390816100e98239f35b604051631e4fbdf760e01b815260006004820152602490fd5b600080fd5b634e487b7160e01b600052604160045260246000fdfe6040608081526004908136101561001557600080fd5b600090813560e01c80633e2cb9021461069f5780635b33f2601461054457806369ce34ab1461069f578063715018a6146106575780638da5cb5b146106305780638ff29cfe146105f357806399fc65d4146105725780639f98f9c814610544578063a61dd46e14610396578063ad8ce72414610391578063adc257e914610391578063baccbfdb1461034b578063d213c0f21461032f578063db7b29aa146102cd578063e503bb0514610296578063f2fde38b14610221578063f5c91a081461018c5763fbad6cf5146100e757600080fd5b346101885760209283600319360112610184576101026106c0565b825163baccbfdb60e01b81526001600160a01b03909116918101919091528381602481305afa928315610179578093610143575b5050602890519110158152f35b909192508382813d8311610172575b61015c8183610829565b8101031261016f57505190602838610136565b80fd5b503d610152565b8251903d90823e3d90fd5b8280fd5b5080fd5b50346101885780600319360112610188576000805160206108de8339815191526101b46106c0565b9160243592338552600260205260ff8286205416801561020e575b6101d89061074e565b6101e66101f48511156107a6565b60018060a01b031692838552600160205281852090808254925582519182526020820152a280f35b5084546001600160a01b031633146101cf565b5082346101845760203660031901126101845761023c6106c0565b90610245610722565b6001600160a01b0391821692831561028057505082546001600160a01b0319811683178455166000805160206108fe8339815191528380a380f35b51631e4fbdf760e01b8152908101849052602490fd5b50346101885760203660031901126101885760209181906001600160a01b036102bd6106c0565b1681526001845220549051908152f35b5034610188576020366003190112610188576001600160a01b036102ef6106c0565b1690818352600160205280832090815415610308578380f35b60286000805160206108de8339815191529255805184815260286020820152a28180808380f35b5034610188578160031936011261018857602090516101f48152f35b5034610188576020366003190112610188576020916001600160a01b036103706106c0565b16815260018352819020548061038b57506028905b51908152f35b90610385565b610706565b508290346101845780600319360112610184576001600160401b03918035838111610540576103c890369083016106d6565b602493919394853590811161053c576103e490369085016106d6565b94909433885260206002815260ff858a2054168015610529575b6104079061074e565b8184036104ef57885b84811061041b578980f35b61042681848a6107ef565b356101f41015610435906107a6565b85836001600160a01b0387838e8361044e88858d6107ef565b61045790610815565b1681528d848b89600193848d5281878720549a610473926107ef565b359661047e926107ef565b61048790610815565b16825288522055858b8561049c818c8c6107ef565b6104a590610815565b926104af926107ef565b3584519384528684015216916000805160206108de83398151915291a260001981146104dd57600101610410565b634e487b7160e01b8a5260118752888afd5b8560168960649388519362461bcd60e51b855284015282015275082e4e4c2f2e640d8cadccee8d040dad2e6dac2e8c6d60531b6044820152fd5b5088546001600160a01b031633146103fe565b8680fd5b8480fd5b5034610188576020366003190112610188576020906105696105646106c0565b610862565b90519015158152f35b503461018857806003193601126101885761058b6106c0565b602435908115158092036105ef577f5c001b1d70af3e0a09eed53bc0588d57fec6d23196319ba29c6313eb3321273c916020916105c6610722565b6001600160a01b031680865260028352848620805460ff191660ff84161790559351908152a280f35b8380fd5b50346101885760203660031901126101885760209160ff9082906001600160a01b0361061d6106c0565b1681526002855220541690519015158152f35b5034610188578160031936011261018857905490516001600160a01b039091168152602090f35b823461016f578060031936011261016f57610670610722565b80546001600160a01b03198116825581906001600160a01b03166000805160206108fe8339815191528280a380f35b346106bb5760003660031901126106bb57602060405160288152f35b600080fd5b600435906001600160a01b03821682036106bb57565b9181601f840112156106bb578235916001600160401b0383116106bb576020808501948460051b0101116106bb57565b346106bb5760003660031901126106bb57602060405160648152f35b6000546001600160a01b0316330361073657565b60405163118cdaa760e01b8152336004820152602490fd5b1561075557565b60405162461bcd60e51b815260206004820152602360248201527f4e6f7420617574686f72697a656420746f20757064617465207265707574617460448201526234b7b760e91b6064820152608490fd5b156107ad57565b60405162461bcd60e51b815260206004820152601a60248201527952657075746174696f6e2065786365656473206d6178696d756d60301b6044820152606490fd5b91908110156107ff5760051b0190565b634e487b7160e01b600052603260045260246000fd5b356001600160a01b03811681036106bb5790565b601f909101601f19168101906001600160401b0382119082101761084c57604052565b634e487b7160e01b600052604160045260246000fd5b60405163baccbfdb60e01b81526001600160a01b039091166004820152602081602481305afa80156108d15760009061089f575b60649150101590565b6020823d82116108c9575b816108b760209383610829565b8101031261016f575060649051610896565b3d91506108aa565b6040513d6000823e3d90fdfe5b88a2e3fc1a53234357ab78c104df11c33ccfa79886793654565ad70b8afb6e8be0079c531659141344cd1fd0a4f28419497f9722a3daafe3b4186f6b6457e0a2646970667358221220114ec7a597d83defc327cff11fa88fb1582762b46b35363bdb7446897797cbe364736f6c63430008140033",
  "linkReferences": {},
  "deployedLinkReferences": {}
}